:020000003EC000
:1000020028C728C702C3FBCFFACFFAC2F8CFF7CF6F
:10001200D6C2F5CF2BC3F3CFF2CFF1CFF0CFEFCFD4
:10002200EECFEDCF8000FFFFFFFF000000001027A2
:10003200E80364000A000100001000011000010042
:100042000000555341525420427566666572206F16
:10005200766572666C6F77004D656D6F72792044BC
:10006200617461204F766572666C6F7700000100E3
:10007200070026000200780242000000F894EE27F2
:10008200ECBBF1E0FBBFEBBFE5BFF8E1F1BDE1BDC9
:100092008DE0A2E0BB27ED938A95E9F780E094E03A
:1000A200A0E6ED930197E9F7E0E7F0E085919591FD
:1000B200009761F0A591B59105901590BF01F001EF
:1000C20005900D920197E1F7FB01F0CFEFE5EDBF4F
:1000D200E4E0EEBFCCE8D1E00AC8F894EFE1E1BD7C
:1000E200EFE0E1BDA89578940895F894E8E1E1BDC8
:1000F200E8E0E1BDA89578940895F894E1B5E86147
:10010200E1BDE0E0E1BD78940895EFDFFFCF1A93FF
:1001120011E0E981E11770F09498E4EFF1E0FA93CD
:10012200EA935ADA949AE4EFF1E0FA93EA9354DA12
:100132001F5FEFCF9498188122960895E0E008950A
:10014200A2E0B0E0EDDAFF2766277727DF01CB01D7
:10015200F20166277727A3DA08952CDBA0E0B0E04E
:10016200DBDA2F01E0E0F8E0E415F50510F0E0E15C
:100172000FC0E0E0F0E2E415F50510F0E0E208C09F
:10018200E0E0F0E8E415F50510F0E0E401C0E0E895
:100192007E2EA2E0B0E0C4DA0E2F10E0113078F427
:1001A200E5E0E19FF001E056FE4FAFEFBFEF8FEFCA
:1001B2009FEFA083B183828393831F5FEFCF0130D0
:1001C20010F0920102C020E030E0F901ACE8B1E0A9
:1001D200662777278EDA11E01530F0F4101710F445
:1001E200920102C020E030E0E4E0E19FF001E45738
:1001F200FE4F0F01E12FE150F0E033DAE457FE4FFA
:10020200DF0171DADF01CB01F90166277727F4D923
:10021200D0016FDA1F5FE0CFD4DA249608951A93E3
:100222008ED96A92C0D9EA81F070EA93BCD9E98189
:10023200EA93B9D984D9E62DE160EA93B4D9E0E032
:10024200EA9396D91E2F8AD9E12F18812396089511
:1002520024971A93E0918C01F0918D0160918E01A7
:1002620070918F01AF81B88589859A859CDA18F4DF
:1002720010E0E0EA41C0E0919001F09191016091BB
:10028200920170919301E150F04060407040AF8163
:10029200B88589859A8587DA18F411E0E2EA2CC0DC
:1002A200E0919401F091950160919601709197010E
:1002B200E150F04060407040AF81B88589859A85F1
:1002C20072DA18F412E0E4EA17C0E0919801F091B2
:1002D200990160919A0170919B01E150F040604058
:1002E2007040AF81B88589859A855DDA18F413E08C
:1002F200E6EA02C014E0E8EA6E2EAD81BE814D92BC
:100302005C92E4E0E19FF001E457FE4FDF01EBD99C
:10031200DF01CB01F2016627772778D9A983BA8357
:100322008B839C83A981BA818B819C81EF81F88523
:1003320069857A8566D918812B9608953BDAEC8116
:10034200FD816E817F81DED9EDB7FEB73197FA93D9
:10035200EA933F932F937CDF2F913F918F011A9362
:100362000A935DDF2EDA28960895249721DAEE8526
:10037200FF8568897989C6D9FE013A96FA93EA938C
:1003820067DF8F01EE81FF81E01BF10BAF01EC858E
:10039200FD854E175F0730F04C855D85E0E0E8870C
:1003A200E98706C0EC85FD85E41BF50BE887F98734
:1003B200C6D86A92F8D8E12FF070EA93F4D80A937B
:1003C200F2D8BDD8E62DE160EA93EDD820E030E026
:1003D200FA0131972E173F0780F4F901AA85BB85F0
:1003E200EA0FFB1FFF93EF93E1E0EA93C1D8AF91CD
:1003F200BF91EC932F5F3F4FEBCFF901AA85BB85ED
:10040200EA0FFB1FFF93EF93E0E0EA93B1D8AF91BD
:10041200BF91EC93A885B985B7D908F042C0FA011B
:10042200AE85BF858889998966277727E5D86AD9F5
:10043200FE013A96FA93EA930BDF8F0180D86A9213
:10044200B2D8E12FF070EA93AED80A93ACD877D83D
:10045200E62DE160EA93A7D82F5F3F4FEC85FD853B
:1004620031972E173F0780F4F901AA85BB85EA0F61
:10047200FB1FFF93EF93E1E0EA937AD8AF91BF912C
:10048200EC932F5F3F4FEACFF901AA85BB85EA0FB4
:10049200FB1FFF93EF93E0E0EA936AD8AF91BF911D
:1004A200EC938DD96296089583D9E985FA856B8597
:1004B2007C8528D9EDB7FEB73197FA93EA935F931B
:1004C2004F93C6DE4F915F919F0139D86A926BD8E4
:1004D200E32FF070EA9367D82A9365D800E010E022
:1004E200E885D801F0E0AE17BF0758F4F801AE81F5
:1004F200BF81AE0FBF1FEC91EA9355D80F5F1F4F1C
:10050200EFCF2CD8EAE0F0E0FA93EA9365D857D916
:100512002D960895EF97EF9722974CD920E030E07F
:1005220010E0103850F4E12FF0E0DE011496AE0F27
:10053200BF1FE0E0EC931F5FF4CF02DEDE01AA579B
:10054200BF4F0D901D908D919C91D0012CD948F4F4
:10055200FE01EC57FF4F0190F081E02D2E173F076F
:1005620008F028C0FE01EA57FF4F019011906191F7
:100572007081F001C7D87A92FE013996FA93EA9314
:1005820093DFE72DFF2766277727DE01AA57BF4FA4
:100592000D901D908D919C91D0012ED8DE01AA570D
:1005A200BF4FED93FD936D937C93E72DF0E02E0FFB
:1005B2003F1FC3CF06D9EF96EF962C9608956A9304
:1005C2007A93EA93FA93EFB7EA93E091A501F09157
:1005D200A6016091A7017091A801EF5FFF4F6F4FD5
:1005E2007F4FE093A501F093A6016093A70170935A
:1005F200A801E991EFBFF991E99179916991189573
:10060200EA93E1E08E2EE9911895AA93EA93EFB767
:10061200EA93E091A901EF5FE093A901A091A901FA
:10062200AB1540F0849B02C0949801C0949AE0E01C
:10063200E093A901E991EFBFE991A9911895E0E052
:10064200E2BFE9B7E160E9BF0895E9B7EF77E9BF33
:1006520094980895FADFE0E0E093A901B880E4BD40
:10066200E9B7E068E9BF949A21960895EA93FA936C
:10067200EFB7EA93A1D81BB10CB1E12FEC7189F469
:10068200EA2DF0E0E655FE4F0083A394E8ECEA156C
:1006920009F4AA24C394E8ECEC1519F4CC24689468
:1006A20020F894D8E991EFBFF991E99118951A933E
:1006B200CC20F1F3ED2DF0E0E655FE4F1081D394FE
:1006C200E8ECED1509F4DD24F894CA947894E12F4E
:1006D20019910895AC2DE0E0DDD70895E981E1316B
:1006E20021F4E881EA934AD117C0E23A21F4E88181
:1006F200EA9343D211C0E13B21F4E881EA9394D218
:100702000BC0E23E21F4E881EA93BBD205C0E23B92
:1007120019F4E881EA931AD315C01A9310E0E9811B
:10072200E13111F0E23A09F402C0E13B09F402C0FE
:10073200E23E09F402C0E23B09F411E0A12FE1E03C
:10074200A4D7188122960895C5DFE03011F0AFDFFB
:10075200FBCF089531D89498E6E9F0E0FA93EA9352
:100762003BD7949AE6E9F0E0FA93EA9335D7949866
:100772009EDF1E2F1D3E11F0E7DFBAC0ABDFE03077
:1007820009F4B6C094DF1E2F1B3C09F0B1C0A2DFF2
:10079200E03009F4ADC08BDF0E2F0A93BEDFE030EC
:1007A20069F1EDEEEA93EBD4EBECEA93E8D40A9329
:1007B200E6D4E1E3EA93E3D4E0E3EA93E0D4E4E6C7
:1007C200F0E0FA93EA9308D785DFE03009F490C0AD
:1007D2006EDF1E2F113309F08BC07CDFE03009F48D
:1007E20087C065DF1E2F103309F082C0E4E6F0E017
:1007F200FA93EA93F1D60A93C2D401C079C0E0E039
:10080200E09372020A930A9369DF949AE0E5EA930D
:1008120021DFE89420F8013131F0013B21F0023E62
:1008220011F00333B1F4A3E0B0E071D7A9D739F0E6
:10083200E0E0F0E060E070E0A3E0B0E07DD7A7E0A8
:10084200B0E06AD7309729F0E0E0F0E0A7E0B0E04E
:100852007ED7E0E0F0E0FDBDECBD88243BDFE03078
:1008620019F4E0E0E81509F001C0F8CF33DFE03019
:1008720059F01DDF1E2F0A931A9330DFE0E0F0E0FB
:10088200FDBDECBD8824EACFE0DE20FE0BC0E4E033
:10089200EA933DDCE4E4F0E0FA93EA9380E016D6D2
:1008A200229626C021FE0DC022FE0BC0E6E0EA938E
:1008B2002EDCEAE5F0E0FA93EA9380E007D622968E
:1008C20017C0013199F4E0917302F09174026091C2
:1008D200750270917602A3E0B0E02ED7949A12D7F7
:1008E200E0E0F8E0FA93EA9315DE02C0033301F484
:1008F2006DD70895249784E0A0E0B0E0E8E2F0E04C
:1009020068D75AD710E0EE811E1780F5AF81B885FF
:10091200EE27A10FBE1FEC91AA81BB818C819D8124
:10092200FF27662777277CD6EA83FB836C837D8348
:1009320000E00830C8F4EA81E17059F0EA81FB81F5
:100942006C817D8193D6A0E2B3E888EB9DEE68D6F8
:1009520005C0EA81FB816C817D8188D6EA83FB83B5
:100962006C837D830F5FE5CF1F5FCDCFEA81FB8173
:100972006C817D8185D627D729960895EF97EF97C9
:100982002A971A93E0917202E03029F5A3E0B0E0D1
:10099200BED6F6D639F0E0E0F0E060E070E0A3E029
:1009A200B0E0CAD6E0E0E0937302E0937402E09311
:1009B2007502E0937602E1E0E0937202E4EFF1E087
:1009C200FA93EA9309D610E0153020F47A92D7D33D
:1009D2001F5FFACFCDC0DE01A757BF4FAC917A1689
:1009E20069F0E8EEF3E0FA93EA93F6D5E1E2EA93EE
:1009F200C6D31881EF96EF962C960895689421F845
:100A0200EFE0E1BDA89510E0E72DEC5F1E1778F44A
:100A1200A895E12FF0E0DE011196EA0FFB1FFF938C
:100A2200EF9345DEAF91BF91EC931F5FEDCF65DB96
:100A3200EC81FF2766277727DE01AB57BF4FED9387
:100A4200FD936D937C93DE01AB57BF4F0D901D90CC
:100A52008D919C91D001E8E0ECD5DF01CB01EB81D7
:100A6200FF2766277727D7D5DE01AB57BF4FED9318
:100A7200FD936D937C93DE01AB57BF4F0D901D909C
:100A82008D919C91D001E8E0D4D5DF01CB01EA81C0
:100A9200FF2766277727BFD5DE01AB57BF4FED9300
:100AA200FD936D937C93DE01AB57BF4F0D901D906C
:100AB2008D919C91D001E8E0BCD5DF01CB01E981A9
:100AC200FF2766277727A7D5DE01AB57BF4FED93E8
:100AD200FD936D937C93FE013596FA93EA937A9295
:100AE20009DFDF01CB01FE01EB57FF4F01901190AF
:100AF20061917081F00152D6B9F520DBE03091F5B9
:100B02001FDBA0917302B0917402809175029091E3
:100B1200760249D628F5E0917302F0917402609151
:100B2200750270917602EED57A92FE013A96FA93A8
:100B3200EA93BADCE72DFF2766277727A091730295
:100B4200B0917402809175029091760255D5E0932E
:100B52007302F0937402609375027093760202C07E
:100B6200689422F8E0E402C0949AE1E2EA9307D39F
:100B72001881EF96EF962C960895249719D6E09156
:100B82007202E03021F4E1E0E09372024AC0A091E7
:100B92007202A13009F045C0E2E0E0937202949A39
:100BA200EA85E03079F400E012E020E030E020173E
:100BB200310738F4D901B4D5EA93E1D22F5F3F4F20
:100BC200F6CF2FC0EF3F69F5E8ECF0E0FA93EA9335
:100BD20003D580DDE03029F16ADD5E2F503001F46B
:100BE200E0E0EE83EF83E887E987AADAAE81BF818E
:100BF20088859985D8D5A8F4EE81FF8168857985A5
:100C020081D59CDBEA93BBD2EE81FF816885798531
:100C1200EF5FFF4F6F4F7F4FEE83FF8368877987C8
:100C2200E4CFCDD52B960895E0917202E13029F4FC
:100C3200E881A2E0B0E093D519C0E23021F4E88166
:100C4200E093770213C0E33089F4E0E0F881DF013A
:100C5200E0917702F0E0EA2BFB2BA0E0B0E077D541
:100C6200E4EFF1E0FA93EA93B7D44FDAA09172027B
:100C7200AF3F29F0E0917202EF5FE093720221969A
:100C82000895EF97EF9726971A93E0917202E0305A
:100C920021F4E1E0E093720254C0E13009F051C066
:100CA200E2E0E0937202DE01AB57BF4FAC91AF3F7F
:100CB20011F0188147C0949A10E0103850F4E12FD7
:100CC200F0E0DE011196AE0FBF1FE0E0EC931F5F74
:100CD200F4CFFE01EF57FF4F0024019201920192DF
:100CE20000822EDADE01AF57BF4F0D901D908D911D
:100CF2009C91D00158D520F5FE01EF57FF4F01908E
:100D0200119061917081F001FDD47A92FE013696C4
:100D1200FA93EA93C9DBE72DFF2766277727DE01DF
:100D2200AF57BF4F0D901D908D919C91D00164D40F
:100D3200DE01AF57BF4FED93FD936D937C93D1CFFF
:100D4200E4D91881EF96EF9628960895A79732D5A1
:100D5200E0917202E03021F4E1E0E093720276C0A9
:100D6200E13009F073C0E2E0E0937202ABA5AF3F5D
:100D720009F06CC0E1E3E887E0E3E987A2E0B0E0D4
:100D8200CFD4EA87A0E0B0E0C7D48F01DE011B9682
:100D92000C931C87EFEFED87E0E0EE87EF87E88B9F
:100DA200E98BEA8BEB8BEC8BED8BEE8BEF8BE88F89
:100DB200E98FEA8FEB8FEC8FED8FEE8FEF8FE8A349
:100DC200E9A3E0E8EAA3EAE0EBA3E0E0ECA3EDA309
:100DD200E0E8EEA3FE013896FA93EA93EFE1EA9394
:100DE20089DDEC83FD836E837F83EC81EFA3AC818D
:100DF200BD818E819F81E8E028D4E8A7EC81FD8146
:100E02006E817F8138D4E9A7E8E11FD4EAA7E2E343
:100E1200F0E0FA93EA93E0D330E0333258F4E32F70
:100E2200F0E0DE011896AE0FBF1FEC91EA93A7D156
:100E32003F5FF3CFE8ECF0E0FA93EA93CDD34ADCDC
:100E4200E03021F034DCE03409F0E1CFBAD4AC96E2
:100E52000895189518951A9340D929DC1E2F4DD95B
:100E6200EA81E11719F4E981E11709F003C0E1E031
:100E7200188102C0E0E0188123960895EF97EF975A
:100E8200629784E0A4E8B0E0ECE2F0E0A2D490D46F
:100E9200EDEEEA9374D1EBECEA9371D1E1E1EA93DE
:100EA2006ED1EDEEEA93EA93D6DFE03009F4D1C0D9
:100EB200EBECEA93EA93CFDFE03009F4CAC0E1E158
:100EC200EA93EA93C8DFE03009F4C3C006D9EFDB46
:100ED2000E2FEDDB3E2F11D9013311F0003309F44F
:100EE20001C0B7C0303311F0303309F401C0B1C0D2
:100EF2000A9345D13A9343D1F0D8D9DB1E2FFDD8BE
:100F0200113109F0A6C0E9D8D2DB1E2F50E05430CF
:100F120038F4CDDB1E1711F0F0D89BC05F5FF7CF1E
:100F2200ECD8212FFE01EE56FF4F002401920192D0
:100F320001920082DE01A657BF4FD5D37F936F93F4
:100F4200FF93EF93A3E0B0E0E2D3AF91BF918F9113
:100F52009F9129D408F07DC02A9311D1FE01EE564B
:100F6200FF4F0190119061917081F001CBD3E22F7C
:100F7200F0E0FA93EA93FE017096FA93EA93F5D9B8
:100F8200FE013A96FA93EA932A93B4DCDE01A25761
:100F9200BF4FED93FD936D937C93FE01E257FF4F9C
:100FA200E081EE83DE01A257BF4F0D901D908D911F
:100FB2009C91D001E8E049D3EF83FE01E257FF4F55
:100FC2000190119061917081F00155D3E887E8E1B9
:100FD2003CD3E98750E0E22FEC5F5E1758F4E52F2F
:100FE200F0E0DE011696AE0FBF1FEC91EA93C7D078
:100FF2005F5FF1CF72D85BDB1E2F7FD8103441F5D3
:10100200E22FFF2766277727DE01A657BF4F0D90F5
:101012001D908D919C91D001EFD2DE01A657BF4F5A
:10102200ED93FD936D937C93E22FFF27662777273D
:10103200DE01AE56BF4F0D901D908D919C91D00157
:10104200DBD2DE01AE56BF4FED93FD936D937C93E1
:1010520071CFB5D3EF96EF9668960895E0E0E8BBBE
:10106200E7BBE5BBE4BBE0EFE1BBE0E0E2BBE5E010
:10107200E3BFE0E0E2BFEFBDEDE0EEBDE0E0EDBDDD
:10108200ECBDE7BDE6BDEDE2EBBDE7ECEABDE0E0BD
:10109200E9BDE8BDE2BDEFE0E5BDE0E0E4BDEBE3C4
:1010A200E3BDE0E0E5BFE0E1E9BFE2E0EBB9E8E99A
:1010B200EAB9E6E8E0BDE0E0E0BDE6E2E9B9E0E891
:1010C200E8B9E0E0E0BF36D278940895A3E0B0E05A
:1010D2001ED3DF01CB015CD330F0A7E0B0E01CD31C
:1010E200DF01109711F0949A01C094980895B6DF29
:1010F200949AE4EFF1E0FA93EA936ED29498E4EFD3
:10110200F1E0FA93EA9368D228D899DADFDFE2DADB
:10111200E03011F01FDB99DA829907C0A3E0B0E05A
:10112200F6D2DF01CB0134D308F005C0E0E5EA9343
:1011320091DAA4DE8ADA839920C0A3E0B0E0E7D294
:10114200DF01CB0125D338F4E0E0F0E060E070E0AD
:10115200A3E0B0E0F1D2BADFE0E9F1E0FA93EA937A
:101162003BD2949AE0E9F1E0FA93EA9335D294986B
:10117200E0E9F1E0FA93EA932FD2C8CFFFCF5D9B6B
:10118200FECFE881ECB92196089516D3AC81BD81DA
:10119200A6D23097D1F0AA81BB81A1D28F0130971C
:1011A20049F00230E0E01E0778F0F80131978F0134
:1011B200ED93FC93AC81BD81ED91FD913196FE934F
:1011C200EE933197AE81A08303C0EE81EA93D7DF1D
:1011D200FAD2279608952697EBD210E0EA89FB8986
:1011E2003196EA8BFB8B3197E4912E2FE03009F494
:1011F2006AC1E12FE03079F4253211F411E00AC01E
:101202002A93EF85F889FA93EA93FE013F96FA93BF
:10121200EA93BBDF57C1E130E9F4253259F42A934E
:10122200EF85F889FA93EA93FE013F96FA93EA93DF
:10123200ACDF47C112E040E000E02D3211F401E0E2
:1012420041C12B3211F44BE23DC1203211F440E294
:1012520039C102C0E23039F450E013E0203311F416
:10126200006830C103C0E33009F02CC1203310F014
:101272002A3308F009C0A52FEAE0EA9FF0015E2FA9
:10128200E22FE0535E0F1EC1E22FE33691F4A889EC
:10129200B9891497A88BB98B1496EC91EA93EF85D0
:1012A200F889FA93EA93FE013F96FA93EA936DDF87
:1012B20008C1E33771F4A889B9891497A88BB98B4F
:1012C20014960DD2EE83FF83FA93EA931ED11E2F5A
:1012D20010C0E03791F4A889B9891497A88BB98B0B
:1012E2001496FDD1EE83FF83FA93EA9318D11E2F51
:1012F200086002600F7730E03CC0E43611F0E93656
:1013020011F4046002C0E53731F4E0E3F0E0EE836B
:10131200FF8315E00CC0E83511F4086003C0E8371C
:1013220009F0CFC0EAE3F0E0EE83FF8314E002FFAE
:1013320017C0A889B9891497A88BB98B1496CFD1F5
:10134200EA87FB87AA85BB85109724F46ED1EA87CA
:10135200FB874DE2403011F01F5F01C00B7F09C0D7
:10136200A889B9891497A88BB98B1496B8D1EA8742
:10137200FB8700FD19C01517B8F407FF08C002FF6C
:1013820004C00B7F242F115001C020E301C020E2D2
:101392002A93EF85F889FA93EA93FE013F96FA932E
:1013A200EA93F3DE5150E7CF312F01FF21C03030F5
:1013B200F1F003FF08C0EE81FF813196EE83FF83D7
:1013C2003197E49105C0AE81BF81ED91AE83BF83B9
:1013D200EA93EF85F889FA93EA93FE013F96FA932E
:1013E200EA93D3DE503009F051503150E0CF58C06B
:1013F20020E3EE81FF813296EE83FF8332977ED126
:10140200E887F987E885F985AA85BB85AE17BF0706
:1014120050F02F5FA885B985EA85FB85EA1BFB0B97
:10142200EA87FB87EFCF2A3328F003FF02C0295F48
:1014320001C0295D04FD21C0213320F4A885B985AE
:10144200119709F409C0531710F000FF01C022C020
:1014520020E207FF12C020E3006102FF0EC00B7FF3
:101462004A93EF85F889FA93EA93FE013F96FA933D
:10147200EA938BDE503009F051502A93EF85F889B8
:10148200FA93EA93FE013F96FA93EA937EDE503096
:1014920009F051503150A885B985129708F0A8CFAC
:1014A20000FF0FC0503069F05150E0E2EA93EF853F
:1014B200F889FA93EA93FE013F96FA93EA9365DE7E
:1014C200F1CF10E08BCE7BD164960895FF92F82E77
:1014D200229772D1DE018CD08D01E0E0EA83EB83AA
:1014E200DE01149685D0FBD0FA93EA931A930A93FD
:1014F200FE013696FA93EA93E0E0F0E0FA93EA937B
:101502006ADE61D12496FF900895A991B991EE27E0
:10151200FF276D91662311F03196FBCF0895AA271C
:10152200BB27E991F9910590002011F01196FBCFAC
:10153200FD010895AD98AC98A59AA49815C0A498F9
:10154200A598EE2700009C9B08959D9B089504D0CA
:10155200A49A02D0A59AE1E064E107C0A49AA59AF0
:1015620003D0A598F9DFA49868E26A95F1F7089587
:1015720078E0A598F1DF9D9BFECFEEDF88949C99E1
:101582000894A59AF1DFEE1F7A9599F7799177235E
:1015920011F4A49801C0A49ADFDFA598E5DFA59A0B
:1015A200DBDFA498D9CFE99178E0EE0F10F4A4988C
:1015B20001C0A49AD9DFA598CFDF9D9BFECFCCDFD7
:1015C200A59A7A9591F7A498C7DFA598CDDFE1E0B7
:1015D2009C99EE27A59A0895E991F991309639F0F0
:1015E20088EB9BE00197F1F7A8953197C9F7089529
:1015F2000024AF0DB01D0895EA0FFB1F681F791F6D
:101602000895EA1BFB0B680B790B0895AE1BBF0B09
:10161200860B970B0895EA2BFB2B682B792B0895E9
:10162200EA27FB27682779270895F195E195F0408D
:101632000895EE230E2EFD01BC0131F0EE0FFF1FC7
:10164200661F771F0A94D1F70895EE230E2EFD012F
:10165200BC0131F076956795F795E7950A94D1F735
:101662000895EE0FFF1FEE0FFF1F08957695679501
:10167200F795E7950895E62FF72F60E070E008955B
:10168200E095F095609570950895EA17E1E009F00C
:10169200EE270895EA17E1E008F0EE2708957A9F11
:1016A200702D6B9F700DF89F700DE99F700D6A9FF2
:1016B200602D710DFB9F600D711DE89F600D711D06
:1016C2008827FA9FF02D610D781FEB9FF00D611DA9
:1016D200781FEA9FE02DF10D681F781F0895ED91A4
:1016E200FC9111970895ED91FD916D917C91139765
:1016F2000895ED93FD936D937C9308950590F49175
:10170200E02D08957A936A93FA93EA9308951296D4
:1017120003D07F2F6E2F1297119602D0FE2F1197B2
:10172200E199FECFFF93FFB7F894AEBBBFBBE09A3F
:10173200EDB3FFBFFF9108950AD012960E2E1F2E11
:10174200E62FF72F04D0E02DF12D1297089507D040
:101752001196EF93EF2F03D0EF9111970895E19B2C
:1017620002C0A895FCCF9FB7F894AEBBBFBBE09A6E
:101772008DB3E81719F0EDBBE29AE19A9FBF089585
:10178200309760407040089500240A160B060895B1
:1017920000240A160B06080609060895EA17FB0735
:1017A200680779070895AE17BF0786079707089558
:1017B2005A934A933A932A931A930A9308955D810E
:1017C2004C813B812A8119810881089509911991DF
:1017D2000895AC0FBD1F05900D928A95E1F708950B
:00000001FF
