:020000000C945E
:1000020006010C9400000C9400000C9400000C9467
:100012005A270C9400000C9400000C9423260C9494
:1000220000000C9400000C9405270C9400000C9422
:1000320000000C94EE270C9400000C9400000C9429
:1000420000000C9400000C9400000C9400000C942E
:10005200000000001F003C005B0079009800B60021
:10006200D500F400120131014F0100001F003B00D6
:100072005A0078009700B500D400F3001101300156
:100082004E0100000000FF00010204081020408021
:10009200000001BC0B0A0000000A2064002340C2D9
:1000A2000146607E040181200C0A8088040AA0ECCB
:1000B2000423C04A0646E0060901903A100909B035
:1000C2003A190915D03A2E092BF03A590901902F05
:1000D2005A090DB02F67091DD02F840931F02FB5B1
:1000E2000901902DB6090BB02DC10919D02DDA09DD
:1000F2002BF02D050A01902B060A0BB02B110A19C1
:10010200D02B2A0A2BF02B550A019043560A15B020
:10011200436B0A33D0439E0A6AF043080B019046B0
:10012200090B15B0461E0B33D046510B6AF046BB85
:100132000B0100000000FFFFFFFFFFFFFFFF0100B8
:100142000000000000000000FF00000000000000AE
:10015200FFFFFFFF00001027E80364000A00010010
:100162000010000110000100252D690025303264C5
:100172003A253032643A2530326400253034642F17
:10018200253032642F2530326400253032642F2529
:100192003032642F2530326400253034642D25300E
:1001A20032642D2530326400253032642D25303200
:1001B200642D253032640025303464005553415299
:1001C2005420427566666572206F766572666C6F42
:1001D20077004D656D6F72792044617461204F76AE
:1001E2006572666C6F770000010002000200EA018E
:1001F200010087068800080089068A000100690755
:100202004A010200020856010000F894EE27ECBBF6
:10021200F1E0FBBFEBBFE5BFF8E1F1BDE1BD8DE071
:10022200A2E0BB27ED938A95E9F780E098E0A0E68B
:10023200ED930197E9F7ECEEF1E085919591009746
:1002420061F0A591B59105901590BF01F00105905F
:100252000D920197E1F7FB01F0CFEFE5EDBFE8E08A
:10026200EEBFC0EAD1E00C94AB2DA881B9810E9407
:10027200AA30DF01309719F0E881E37061F0FD01E7
:10028200309741F4A881B981E0E9F1E00E946E3D26
:10029200309709F002C0E1E001C0E0E02296089543
:1002A200E69780E3A0E0B0E0E4E5F0E00E949A3F48
:1002B2000E948C3FEFE4F0E0E8AFF9AF0E94AF306C
:1002C200FA93EA930E943601E03029F00E94B63098
:1002D200DE01169604C00E94B630DE015E96EE0F75
:1002E200FF1FAE0FBF1F0E94A03DDF010E94BD3065
:1002F2000E94C230EAAFFBAF0E94AF303197FA934F
:10030200EA930E943601E03019F0EBE0F0E002C01F
:10031200EAE0F0E0EEABFFABE8ADF9ADAAADBBAD04
:10032200EA17FB0714F00C94E001A8ADB9ADEAADF1
:10033200FBADEA1BFB0B0E94C630AB3BE0E0BE0705
:10034200D4F40E94CB300E94713D309741F40E9458
:10035200CB300E94693D9F010FE110E00BC00E946B
:10036200CB300E94693D31969F010E94CB300E94A2
:10037200713D8F011AC0EAADFBADEA5BF0400E940D
:10038200C6300E94D030309739F40E94D53036966C
:100392009F010EE110E009C00E94D53037969F01FF
:1003A200AAADBBAD0E94D0308F01FE01EC5BFF4FC6
:1003B2000190F081E02DED56F240AF0121C0EEA98F
:1003C200FFA9AAADBBADEA0FFB1F0E94C6300E9477
:1003D200D030309739F40E94D53039969F010EE122
:1003E20010E009C00E94D5303A969F01AAADBBAD7C
:1003F2000E94D0308F010E94AF30EE56F240AF0122
:10040200DE01A05CBF4F0D90BC91A02D4D935C937B
:10041200F901AEADBFADEC93F801ACADBDADEC935F
:100422000E94933FEF9627960895F894E1B5E8610C
:10043200E1BDE0E0E1BD789408950C9400000895D8
:10044200E8E0E1BDFFCF1A9311E0E981E11740F046
:10045200DF980E94DC30DF9A0E94DC301F5FF5CF0C
:10046200DF981881229608950E94E230FF276627BE
:1004720077277F936F93FF93EF930E94E73066276E
:100482007727AF91BF918F919F910E94313D08953F
:100492001A9310E0173040F40E94EC300E94F230C0
:1004A2000E94F7301F5FF6CF199108950E948E3F88
:1004B2000E94E7302F01E0E0F8E0E415F50510F0C6
:1004C200E0E10FC0E0E0F0E2E415F50510F0E0E253
:1004D20008C0E0E0F0E8E415F50510F0E0E401C042
:1004E200E0E87E2E0E94E2300E2F0E944902013087
:1004F20010F0920102C020E030E0F901A0EAB1E080
:10050200662777270E94AA3D11E01530F8F41017EC
:1005120010F4920102C020E030E0E4E0E19FF0013B
:10052200E056FE4F0F01E12FE1500E94FC30E056F1
:10053200FE4FDF010E94A43DDF01CB01F9010E94C1
:100542000031D0010E94AA3D1F5FDFCF0E94953F7C
:10055200249608951A930E9405310E9413310E9435
:100562001A311E2F0E94213CE12F188107C00E94E0
:100572000531E8810E941E310E942331239608959D
:1005820024971A93E091A001F091A1016091A20138
:100592007091A3010E94293118F410E0E0EA2CC006
:1005A200E091A401F091A5016091A6017091A701CB
:1005B2000E94303118F411E0E2EA1EC0E091A80175
:1005C200F091A9016091AA017091AB010E943031B2
:1005D20018F412E0E4EA10C0E091AC01F091AD0130
:1005E2006091AE017091AF010E94303118F413E0B6
:1005F200E6EA02C014E0E8EA6E2EAD81BE814D92B9
:100602005C92E4E0E19FF001E056FE4FDF010E94C0
:10061200A43DDF01CB01F201662777270E94B13C9E
:10062200A983BA838B839C830E943531EF81F8853D
:1006320069857A850E94AC3C18812B9608950E94A8
:100642008E3F0E943A310E94B33DEDB7FEB731971B
:10065200FA93EA933F932F930E94C1022F913F9105
:100662008F011A930A930E94AB020E94953F28962B
:1006720008950E948E3F0E943F310E94B33DEDB724
:10068200FEB73197FA93EA933F932F930E94C102E8
:100692002F913F918F011A930A93EE81EA930E9460
:1006A200B8020E94953F2996089524970E948C3F94
:1006B200EE85FF85688979890E944431EE81FF8148
:1006C200E01BF10BAF01EC85FD854E175F0730F0A3
:1006D2004C855D85E0E0E887E98706C0EC85FD850D
:1006E200E41BF50BE887F9870E944E3120E030E0E9
:1006F200FA0131972E173F0760F40E945C31FF9395
:10070200EF930E946231AF91BF91EC932F5F3F4F05
:10071200EFCF0E945C31FF93EF930E941A31AF91A9
:10072200BF91EC93A885B9850E947E3F40F5FA01FE
:10073200AE85BF85888999890E9400310E94443123
:100742000E944E312F5F3F4FEC85FD8531972E176A
:100752003F0760F40E945C31FF93EF930E94623185
:10076200AF91BF91EC932F5F3F4FEECF0E945C3170
:10077200FF93EF930E941A31AF91BF91EC930E94C5
:10078200933F629608950E948C3F0E9466310E94B8
:10079200B33DEDB7FEB73197FA93EA935F934F9368
:1007A2000E94C1024F915F919F010E94123C6A9286
:1007B2000E94463CE32FF070EA930E94463C2A9343
:1007C2000E94463C00E010E0E8850E946B3150F444
:1007D200F801AE81BF810E9470310E94463C0F5FDA
:1007E2001F4FF2CF0E94213C0E9423310E94933F6F
:1007F2002D9608959394E7E09E1608F09924E92D2A
:1008020008951A93182D1730F8F40E94EC300E94C4
:1008120075310E94873F18F00E94793108F012C0AA
:100822000E948131FF93EF93FD01EC54FE4F0E9431
:1008320075310E948931AF91BF91AE0FBF1FEC910C
:100842001881CAC21F5FDFCF10E01815F8F40E94AA
:10085200EC300E9475310E94873F18F00E94793176
:1008620008F012C00E948131FF93EF93FD01EC5416
:10087200FE4F0E9475310E948931AF91BF91AE0F38
:10088200BF1FEC911881A8C21F5FDFCF0E94FB033C
:100892001E2F0E948E310E94B33DE2E1F0E0FA93F6
:1008A200EA93E6E1E19FF001E854FE4F0E949331A2
:1008B2000E94EC300E9435310E94F730812EE6E131
:1008C200E19FF001E854FE4FE081188185C2EF9765
:1008D200EF9722970E948E3F20E030E010E0103820
:1008E20040F40E949731DE0114960E949A311F5FF4
:1008F200F6CF0E9435020E949F310E94873F48F442
:10090200FE01EC57FF4F0190F081E02D2E173F07BB
:1009120008F014C00E94A8310E94B33D7A92FE01F1
:1009220039960E94B1310E949F310E94A73C0E94D9
:10093200BA31E72DF0E02E0F3F1FDBCF0E94953F2B
:10094200EF96EF962C9608950E948E3FEDB7FEB774
:10095200FA93EA931F93EDB7FEB7FA93EA930F93D4
:10096200EDB7FEB7FA93EA933F930E944B303F9163
:100972000F911F91AC81BD811C93E02FAC81BD8191
:100982001196EC93E32FAC81BD811296EC930E94F9
:10099200953F26960895E0914E02A881B981EC9385
:1009A200EC2DA881B9811196EC93ED2DA881B98126
:1009B2001296EC93229608952B971A930A93ED853B
:1009C200E03039F0FE013A96FA93EA930E94A504C8
:1009D20004C0FE013A960E94C231EF85ACE3EA9F61
:1009E200F001DF01E8890E94C2308F01EE850E948A
:1009F200C6310E94D331EB85ACE3EA9FF001DF01FF
:100A0200EC850E94C2308F01EA850E94C6310E94A5
:100A1200D8310E94DD310E94E2310E94873F68F4A2
:100A22000E94E731E0E8F1E561E070E00E94AC3C51
:100A32000E94E2310E94A73C06C00E94E7310E9458
:100A4200EC310E94AC3C19810881619608950E94A4
:100A52008E3FEDB7FEB7FA93EA933F93EDB7FEB739
:100A6200FA93EA930F93EDB7FEB7FA93EA931F93C3
:100A72000E946F301F910F913F91EC81E03079F429
:100A82000E949731E053F84FA985BA85ED93FC9304
:100A9200AF81B8850C93AD81BE813C9310C00E949A
:100AA2009731E053F84FFA93EA930A933A930E94EC
:100AB200F1310E94F1310E94F1310E9451010E94F4
:100AC200953F07C3E881E06CE7B985E38A95F1F7C2
:100AD200369A57C3349BFECF349AE4B1F5B10895E8
:100AE20024971A930A93EE81E030B1F00E94F63116
:100AF2000E94E731A030E4E0BE07E0E08E07E0E0CC
:100B02009E0748F40E94FB31E0E0EA930E943A0318
:100B12000E94FF31EDCF1FC000E010E00E94F631CD
:100B22000E94E731AE37E0E1BE07E0E08E07E0E089
:100B32009E0780F40E94FB31A6E0B0E0A00FB11F37
:100B42000E94D13DEA930E943A030F5F1F4F0E9419
:100B5200FF31E6CF04D01981088127960895E0E09D
:100B62000895E0E008951A930A930E94FB310E94CF
:100B72009A3C0E942F3E8F010F5F1F4FF80119818F
:100B8200088126960895FF9229970E948C3F23FCA4
:100B920008C0E2E1EA930E946305689423F8E0E06A
:100BA2007DC0E89423F80E946B05ED87FE87EE85F1
:100BB200E27051F0ED85FE853197E095F095F37086
:100BC200EB87FC87689405C0ED85FE85EB87FC8783
:100BD200E894F0F8EB85FC85662777270E94663E4D
:100BE200AAE0B7ED83EA9BE30E94E73EEF83F88732
:100BF20069877A87AF81B88589859A85E0E0F0E0D8
:100C020068EC72E40E94E73E0E94B33D0E94B40584
:100C1200EE83AE81AF3F10F0E0E0EE83F0FE06C05F
:100C2200EE81F0E00E94C53C9F0102C02E81332775
:100C32000E9405322E0F3F1FA989A130E1F4F9016C
:100C42000E94063D0E94663EA0E0B0E080E191E491
:100C52000E940A32E0E0F0E060EA70E40E94353F70
:100C6200A0E0B0E080E092E40E94993E0E942F3E14
:100C7200AF018A0101C08901EA89FB89FA93EA93EB
:100C8200EAE6F1E0FA93EA93F8010E94063D0E9437
:100C92000F32AF85B8890D931C93E1E00E94933F18
:100CA2006496FF9008952497ABE7B3E00E94163252
:100CB2000E941C327F936F93FF93EF93A9E1B3E0FD
:100CC2000E941632AF91BF918F919F910E942B3259
:100CD2007F936F93FF93EF93A7EBB2E00E941632DC
:100CE200AF91BF918F919F910E942B320E943C3213
:100CF200EB5AFD4F0E9441326FC02497A3E0B5E04A
:100D02000E9416320E941C327F936F93FF93EF93DF
:100D1200A1EAB4E00E941632AF91BF918F919F91E8
:100D22000E942B327F936F93FF93EF93AFE3B4E074
:100D32000E941632AF91BF918F919F910E942B32E8
:100D42000E943C32E352FC4F0E94413245C0A881CE
:100D5200B0E0AB5ABD4FE981EC93A7EBB2E0E8817A
:100D62000E94C230FF93EF930E944C32AF91BF9129
:100D7200EC93A9E1B3E00E945132ABE7B3E0E88122
:100D82000E94C230FF93EF930E945A32AF91BF91FB
:100D9200EC9322C0A881B0E0A352BC4FE981EC934E
:100DA200AFE3B4E0E8810E94C230FF93EF930E9468
:100DB2004C32AF91BF91EC93A1EAB4E00E94513260
:100DC200A3E0B5E0E8810E94C230FF93EF930E9456
:100DD2005A32AF91BF91EC93259608950E945F32EB
:100DE2000E94D93C0E94A7320E94AC3208C00E94E5
:100DF2005F320E94E53C0E94A7320E94AC326796A5
:100E020008956097ED890E94C8320E94CC32AC8965
:100E12000E94D3320E94D6320E94DD320E94E83212
:100E22000E94EF32E889F9896A897B890E94F4324B
:100E32000E94F9320E940B3D0E94E8320E94FD326C
:100E42006A9608956097E989A889AE1718F40E94F6
:100E5200063320C0E9890E94C8320E94CC32A88998
:100E62000E94D3320E94D6320E9406330E940B3D6A
:100E72007F936F93FF93EF930E94DD32AF91BF9107
:100E82008F919F910E94F9320E940B3D0E940B3379
:100E92000E94FD326696089560970E948C3FE88D0D
:100EA200E03029F4A98DBA8D0C9131E002C0088D91
:100EB20030E0E02FE30FE1502E2FEC8D0E94C8327C
:100EC2000E941233AB8D0E94D3320E94E53CEE8722
:100ED200FF87688B798B0E940B330E940B3D0E9427
:100EE2001933A32FBB27EF89F0E0AE1BBF0BAD0177
:100EF2000F3F08F00EEF11E0011710F40C940108F7
:100F0200EE89AD8DEA1708F47BC0EF890E941E338B
:100F1200FA010E942233FF27662777270E94D831E1
:100F2200AF89A23080F00E9428337F936F93FF93A2
:100F3200EF93FA0131960E942233AF91BF918F91C4
:100F42009F910E942D33AF89A33080F00E942833F5
:100F52007F936F93FF93EF93FA0132960E942233AD
:100F6200AF91BF918F919F910E942D33AF89A43091
:100F720080F00E9428337F936F93FF93EF93FA01DF
:100F820033960E942233AF91BF918F919F910E941D
:100F92002D33EC8D0E94E2310E9433330E94D8310E
:100FA200AC8DA13038F00E943933E0E0EA93E9A138
:100FB2000E943D33E0915302E150AB8DAE1738F4FD
:100FC2000E943933EF8D0E9448330E943D33ED8DEC
:100FD200EA930E944D330E9406330E9454330E94CA
:100FE200B63C0E9459330E945D330E946233E9A1EC
:100FF200EA930E94A806ED8DEF5FED8F1F5F7CCF15
:101002000E94933F6E960895E981E83021F40E9490
:101012006633E1E011C0E03121F40E946633E2E080
:101022000BC0E83121F40E946633E3E005C0E032F0
:1010320041F40E946633E4E0EA93EF81EA930E946E
:101042004D0722C3E2971A9310E0123390F40E94E4
:101052009731DE011196EA0FFB1F0F01AEA9BFA95E
:10106200EE27A10FBE1F0E94D13DD001EC931F5F5E
:10107200ECCF0E947333FE013496FA93EA930E94F6
:1010820073330E9405081881EB9608950E947A3303
:10109200E4E8F0E00E949A3F1A9311E0EF81E11731
:1010A200B8F0EA85EA93EA85EA93EA85EA93FE01D3
:1010B2003496FA93EA93E1E0EA93EC85EA93EC85BD
:1010C200EA930E940508EA85EF5FEA871F5FE6CF91
:1010D20018812B960895A4EBB0E00E94D13DE093D5
:1010E2008606A5EBB0E00E94D13DE0938706E03092
:1010F20019F0E4E4F6E002C0E4E6F6E0E0938406E8
:10110200F093850608951A931981A0918406B091EF
:101112008506EE27A10FBE1FEC91E8BB183018F42C
:10112200939A93980CC0103118F4949A949807C02B
:10113200183118F4959A959802C0969A9698188143
:10114200F9C11A931981E0918706E8BB183018F4A7
:10115200939A93980CC0103118F4949A949807C0FB
:10116200183118F4959A959802C0969A9698188113
:10117200E1C1E881EA930E948408E881EA930E942F
:10118200A20821960895229781E0A0E0B0E0E2E96A
:10119200F0E00E949A3F0E948C3F3885383010F46C
:1011A200032F0FC0303118F4E32FE85009C0383153
:1011B20018F4E32FE05104C0303218F4E32FE85161
:1011C2000E2FE02FF0E0E757F94F1081E32FE6955D
:1011D200E695E6955E2F40E0E09154024E17A8F5A1
:1011E200E42FE95FEF8320E03F81431798F4220F59
:1011F200A2E65A9FF001EB5AFD4FDF01EE27A30F43
:10120200BE1FEC91E123AE2FE02F0E94D13C2E2B8A
:101212003150EBCF220FA2E65A9FF001EB5AFD4F5D
:10122200DF01EE27A40FBE1FEC91E123AE2FE02FCA
:101232000E94D13C2E2BEE81F0E0EF56F94F208335
:10124200EE81EF5FEE83485FC7CF0E94933FB7C145
:101252001A9310E0103630F40E947F330E94A806E1
:101262001F5FF8CF188166C11A9310E0E091540213
:101272001E1730F40E947F330E94CB061F5FF6CF09
:10128200B6C12C971A93EF850E94C8320E94D93CAE
:101292000E948733AD850E94D3320E94E53C0E94B2
:1012A2008C330E9491330E9497330E949C33188999
:1012B200EE85E11778F01A930E9454060E94A1333A
:1012C2000E9435310E94B63C0E94A1330E94A33392
:1012D2001F5FEECF1881619608950E94A8330E9485
:1012E20042093BC060971A93EB890E94C8320E9460
:1012F200B133A9890E94D3320E94E53C0E94A133F6
:101302000E94B8330E9497330E948C330E94BD33EF
:10131200EF89EA93EE890E94C4331C89EA89E117B6
:10132200A8F01A930E94C8330E94CF330E94D4338C
:101332000E94B63C0E94D9330E948E310E94B8337B
:101342000E94DE330E94A3331F5FE8CF18816596A7
:1013520008950E94A8330E947309699608950E9415
:101362008E3FE885E83039F4EF81E03011F021E07A
:1013720001C020E00BC0E03111F420E207C0E831E7
:1013820011F420E403C0E03209F420E6E985E79590
:10139200E0E0E795E22B3E2FAE81A03310F0AA33B6
:1013A20008F02FC020E02A3058F5E4E0E29FF00177
:1013B200EC56FF4FE4913E1709F5A22FBB2765E9D2
:1013C20070E00E94E2330E94AF3DFF93EF93EE8103
:1013D200E0538E2F99270E94E933E491F0E0DC017B
:1013E2000E94293DAF91BF91EA0FFB1F8F010E941E
:1013F200E933E491AC81BD81EC9302C02F5FD3CF7E
:1014020031C0E32FE069EE7F3E2F20E0283150F516
:10141200A22FBB276DEB70E00E94EE33E491AE2F5A
:10142200EE81EA1741F4E5E0E29FF001E454FF4F58
:10143200E4913E1709F014C0A22FBB276EEB70E0B7
:101442000E94EE330E94AF3D8F01A22FBB2760ECBA
:1014520070E00E94EE33E491AC81BD81EC9302C056
:101462002F5FD4CFF8010E94953F2A9608950E94DB
:101472008E3F30E0E985EA93E985EA93E985EA93CC
:10148200E985EA93EDB7FEB7FA93EA933F930E9498
:10149200B0093F918F01353608F034E6313098F0CB
:1014A20020E0231778F4E22FF0E0EF55F94FFF9395
:1014B200EF930E94F533AF91BF91EC930F5F1F4FF3
:1014C2002F5FEFCF03C0E0E0E093A106EC85EA9343
:1014D200EC85EA93EC85EA93E1EAF6E00E94FC33BC
:1014E200EE85EA93EB85EA930E9405080E94953FF8
:1014F2002D9608950E948E3FEF81EA93EF81EA9341
:10150200EF81EA93EF81EA93EDB7FEB7FA93EA939C
:101512003F930E94B0093F918F010E94F5330E94D0
:10152200953FB2C00E9401340E94B33DE3E0F0E077
:101532000E940634229608952497EE810E940B346D
:101542000E9417340E94B33DE3E7F0E0FA93EA9376
:10155200EA85FB850E949331279608950E947A338B
:10156200E4E3F1E00E949A3F1A930E941D3410E0D6
:101572001430A0F4A9E11A9FF001AD81BE81AE0F33
:10158200BF1F5396EC91E03039F0A9E11A9FF001A8
:101592000E9425340E942F341F5FEACF0E948E31B1
:1015A200188172C0E8850E9433340E9436340E944A
:1015B200F4320E943B34EE81FF810E940634299668
:1015C20008951A9310E0143090F41A930E94BD33D8
:1015D200ECE0F0E0FA93EA93ACE01A9FF001EB5EE4
:1015E200F84FFA93EA930E94D30A1F5FECCF199146
:1015F200089524971A93E09174050E940B340E9477
:101602009C3310E0EF811E1748F41A930E94403475
:101612000E94AF0A0E942F341F5FF4CF0E948E31C6
:10162200E0930507F0930607609307077093080796
:101632000E941D3411E0143020F5E12F0E94333452
:10164200EA0FFB1FFF93EF93E12FE1500E94333427
:101652000E9436347F936F93FF93EF93E12FE15013
:10166200A9E1EA9FF0010E942534AF91BF918F91C9
:101672009F910E94A73CAF91BF910E94AA3D1F5F1C
:10168200DACF0E94E20A188128960895E881F9814A
:10169200FA93EA93ED81ACE0EA9FF001EB5EF84F3A
:1016A200FA93EA93EE810E9445340E944B2EEBC0DE
:1016B200EC810E9433340E9436340E9449340E94E5
:1016C200020409C0EC810E9433340E9436340E9425
:1016D20049340E940204259608951A930A93E091D0
:1016E20061070E94243DE0936107EA81E13021F421
:1016F2000E945234F7D069C0E23021F40E94523481
:101702001BD163C0E33021F40E94523435D15DC055
:10171200E43021F40E9452346DD157C0E53021F4F7
:101722000E945234B7D151C0E63021F40E945234A3
:10173200DAD14BC0E73021F40E9452340ED245C0B8
:10174200E83021F40E94523434D23FC0E93021F40F
:101752000E94523479D239C0EA3021F40E945234C4
:10176200AFD233C0EB3091F401E010E00C30E0E096
:101772001E0754F40E94523402D3E03011F0E1E02B
:1017820024C00F5F1F4FF2CFE0E01FC0EC3021F406
:101792000E94523467D319C0ED3051F4E0916107D1
:1017A200E03021F00E945234DED30FC0E0E00DC0E1
:1017B200EE3021F40E94523420D407C0EF3021F4DD
:1017C2000E945234D5D401C0E1E0198108812696E5
:1017D2000895E881E13021F40E945A3480D053C048
:1017E200E23021F40E945A34A4D04DC0E33021F4F7
:1017F2000E945A34BED047C0E43021F40E945A34C9
:10180200EED041C0E53021F40E945A3440D13BC0B1
:10181200E63021F40E945A3462D135C0E73021F417
:101822000E945A3484D12FC0E83021F40E945A34E5
:10183200B9D129C0E93021F40E945A34FED123C023
:10184200EA3021F40E945A3434D21DC0EB3021F424
:101852000E945A348BD217C0EC3021F40E945A34C1
:10186200FED211C0ED3021F40E945A3479D30BC05C
:10187200EE3021F40E945A34B5D305C0EF3019F48A
:101882000E945A3405D4249608950E9462340E941C
:1018920065340E946D340E947C341FC00E94623401
:1018A2000E9465340E946D340E940B3D0E947C347C
:1018B20014C00E9462340E9465340E94E53C0E947A
:1018C20087340E9489340E9497330E94A732EE85A2
:1018D200EA930E9454060E947C342F9608950E9437
:1018E2008E34FFC00E949934DF01E8850E94C23025
:1018F2000E94A4340E94AA34DF01E8850E94C2300B
:101902000E94A4340E94B7340E94C234DF01EC85E5
:101912000E94C2300E94CE34DF01E885F0E0AE0FB3
:10192200BF1FEA850E94E73414F4E1E020C0E0E042
:101932001EC00E948E34D5C00E9499340E94EB349E
:101942000E94AA340E94EB340E94B7340E94C2342F
:101952000E94F2340E94CE340E94F934AE1BBF0BB7
:10196200E8850E94E73414F0E1E001C0E0E0A296CD
:1019720008950E94FC34B5C00E941E353A9718F4AF
:10198200E0E01881AAC01985EB85E117F8F00E9402
:101992002D350E943335E12FE370E23028F40E94A6
:1019A20036350E94EF0608C0E12FE370E43040F4C0
:1019B2000E9436350E94F806E983FA836B837C83A2
:1019C2000E942D350E9446351F5FDECF0E945035A2
:1019D2001CF4E1E0188181C0E0E018817EC00E9421
:1019E2008E340E9477350E947C350E9477350E94A2
:1019F200813577C00E948C35329718F4E0E0188167
:101A020056C10E949B350E94A03511F41D8503C06A
:101A1200ED85EF5F1E2F0E94A5350E94AD350E9415
:101A2200B235EF85E11770F00E94BA350E94C035D9
:101A32000E94CC350E94BB3C0E94A1330E94A3337A
:101A42001E5FEFCF0E949B350E9481350E94A53513
:101A52000E94D0350E94D6350E94DD350E94E734BF
:101A62009CF40E949B350E94A03559F40E949B353C
:101A7200E95BF84FA1E0A0830E94D6350E94E535CC
:101A820003C0E1E0188113C1E0E0188110C10E9497
:101A9200FC3427C00E941E35359718F4E0E0188107
:101AA2001CC01985EB85E11780F00E942D350E943C
:101AB20033350E9436350E94F8060E949C330E94FC
:101AC2002D350E9446351F5FEDCF0E9450351CF424
:101AD200E1E0188102C0E0E01881A39608950E9417
:101AE200FC346A9608950E941E35359718F4E0E09A
:101AF2001881CCC21985EB85E11780F00E942D3543
:101B02000E9433350E9436350E94EF060E949C33B4
:101B12000E942D350E9446351F5FEDCF0E94503541
:101B22001CF4E1E01881B2C2E0E01881AFC20E9469
:101B32008E34B4C21A93A981A93010F418E009C0F6
:101B4200A981A13110F415E004C0A981A93100F4E2
:101B520014E0E12F1881229608950E94EA350E942E
:101B62007A3F99F00E940F362050304074F00E9464
:101B72001A360E9424360E942936E02F0E944534EC
:101B82000E945F3C21503040EFCF0E9443360E94BA
:101B9200D0350E9443360E944B3614F0E1E049C032
:101BA200E0E047C00E948E340E9477350E947C3567
:101BB20075C20E94EA350E947A3F21F10E940F36D7
:101BC20020503040FCF00E94533619F40E941A361D
:101BD2000BC00E943A310E94B33DED89EA93E88D31
:101BE200EA932A930E94F806E887F9876A877B8737
:101BF2000E942936E02F0E9445340E945F3C21500A
:101C02003040DECF0E9443360E94D0350E945336C8
:101C120021F40E945836A1E003C00E945836A0E089
:101C2200A0830E9443360E944B3614F0E1E001C0CB
:101C3200E0E00E94953FAA9608950E948E340E9489
:101C420077350E9481352AC20E948C35359718F467
:101C5200E0E018812CC01D850E94A5350E94AD359B
:101C62000E94B235EF85E11770F00E94BA350E94EA
:101C7200C0350E94CC350E94BB3C0E94A1330E9419
:101C8200A3331F5FEFCF0E949B350E9481350E94D4
:101C9200A5350E94D0350E94D6350E94DD350E94BE
:101CA2005F361CF0E1E0188102C0E0E01881A796DF
:101CB20008950E948E340E9477350E947C35EEC1D1
:101CC20028971A930A930E9463360E94A035A9F5B9
:101CD2000E946836A62F0E947936EA1B0E2F1A85BB
:101CE2000E947D360E94F9340E94873654F00E9489
:101CF2008E360E94A0361A930E94A8060F5F1F5FBD
:101D0200EFCF0E946836E60F0E2F1C850E947D36AB
:101D1200AC850E9479360E94A23654F00E948E361B
:101D22000E94A0361A930E94A80601501150EECFCD
:101D32000E94A936DF010E94D0350E94A9360E9476
:101D4200B036E695D0010E94E73474F40E946336FF
:101D52000E94B636AC91A33028F40E9463360E94EA
:101D6200BB3602C0E1E03AC1E0E038C10E948E34E5
:101D72000E947735E95BF84FA881A0838FC128972D
:101D82001A930A930E947D36AC850E947936EA1B2B
:101D92000E2F0A930E94C2360E94460C0E94D33133
:101DA2000E94DD310E947A3F29F40E946336E95B8A
:101DB200F84F00830E946336E95BF84FA081EA8501
:101DC200EA17A8F40E946336E95BF84FE081E1501C
:101DD2001E2F1A930E94C2360E945A0C0E94D831BA
:101DE200011729F00E9439331A930E94A8060E9413
:101DF2006336E95BF84F10811A930E94C2360E9443
:101E02005A0C0E94D8310E94DD310E9459330E943F
:101E1200A0361A930E94A8060E9463360E94BB361F
:101E22000E9463360E94B636AC910A1758F40E949B
:101E32006336E95BF84FAA85A0830E94A936DF01C9
:101E42000E94D0350E94A9360E94B036EF5FD001C1
:101E52000E945F3614F0E1E0C1C0E0E0BFC00E9422
:101E62008E341CC12C971A930A930E94C736AE85F2
:101E7200EA0F1E2F0E94C736A8890E947936EA1BF4
:101E82000E2F1A930E94D1360E94D8310A930E94D3
:101E9200D1360E94D3310E943933EB89EA93AC895F
:101EA200EE89EA1BE695AE89AE1BAA930E94BD336A
:101EB2000E9402070E94E2310E94B63C0E94D83181
:101EC2000E94FB31AB89ED89EA1BE695AD890E9440
:101ED200C93DEA1BEF5FEA93EE89EA930E94BD33A4
:101EE2000E9402070E94E7310E94B63C0E94D33151
:101EF2001A930E94DD360E94EC310E94E4360E9461
:101F020019331A930E9454060E94E4360E94A333A6
:101F12000A930E94DD360E94DD310E94E4360E945F
:101F220019330A930E9454060E94E4360E94B33D7C
:101F32000A930E94A806EFA10E94E8360E94C736C3
:101F4200DF01EE85F0E0AE0FBF1FE8890E94E734A3
:101F520014F4E1E001C0E0E019810881A896089537
:101F62000E948E349BC028971A930A930A851A8579
:101F72000E947D360E94F9340E94873654F00E94F6
:101F82008E360E94A0361A930E94A8060F5F1F5F2A
:101F9200EFCF0C851C850E947D36AC850E94793678
:101FA2000E94A23654F00E948E360E94A0361A93E6
:101FB2000E94A80601501150EECF0E94A936DF01FF
:101FC2000E94D0350E94A9360E94B036E695D00113
:101FD2000E945F3614F0E1E001C0E0E0198108815F
:101FE200A49608950E948E340E9477350E947C3513
:101FF2000E9477350E94813551C00E941E35EC380F
:10200200A0E0FA0718F4E0E0188140C01985EB85DA
:10201200E117D0F00E94EF360E94B636AC91A130A3
:1020220029F40E942D350E944F0C04C00E942D35C8
:102032000E94460CE983FA836B837C830E942D35D0
:102042000E9446351F5FE3CF0E94EF360E94A03503
:1020520031F40E94EF36E95BF84FA1E005C00E941F
:10206200EF36E95BF84FA0E0A0830E94EF360E94B2
:102072008135EAA10E94E836EAA10E94F4367197FE
:1020820019F4E1E0188102C0E0E01881A3960895F6
:102092000E948E340E9477350E947C356A9608959C
:1020A20028970E948E3F2FA133270EA11127EC857E
:1020B2000E946B3174F1EDA1E03029F00E94FD36EF
:1020C2000E944F0C04C00E94FD360E94460CEC8315
:1020D200FD836E837F830E9403370E940B37EC855A
:1020E200D9010E945F36ACF00E940337E885F9857A
:1020F2006A857B850E94B33D2A930E94A8062150DF
:102102003040EC85D9010E945F361CF0015010402E
:10211200CECF0E94953FA896089528970E948E3FA1
:1021220028A533270EA11127EC850E946B31E4F01C
:10213200EDA1E03029F00E94FD360E944F0C04C050
:102142000E94FD360E94460CEC83FD836E837F83E2
:102152000E9403370E940B37EFA1D9010E94E73496
:102162001CF401501040E0CF0E94953FA9960895BB
:102172002C97EDA1EA93ECE00E941C370E942337D2
:1021820051F4EDA10E94F436AC85B0E0EA0FFB1FDA
:10219200EA93EF8528C0EE85EA930E94A5350E9456
:1021A200A03DAF850E947936EA1BFB0BEA93E889D2
:1021B200EA93EA850E94243DEA93FE017096A9E122
:1021C2000E94B83D0E948E10EDA10E94F4360E943A
:1021D200F234EA930E94A5350E94A03DAF850E9489
:1021E2007936EA1BFB0BEA93E9850E94243DEA93C8
:1021F200FE013F96A9E10E94B83D0E945110EDA157
:102202000E94E8360E94233789F4EDA10E94F43639
:102212000E94283754F40E942F37E95BF84FA1E05F
:10222200A0830E9434370E94E53527C00E942F37D1
:102232000E94B636AC91A13079F4EDA10E94F43639
:102242000E94283744F40E942F370E94BB360E9416
:1022520034370E943B3711C00E942F370E94BB3691
:102262000E942F370E94B636AC91A53011F4E1E0FE
:1022720005C00E9434370E943B37E0E0A6960895DD
:10228200E881E13011F444D053C2E23011F463D05A
:102292004FC2E33011F4C0D04BC2E43011F4C8D0C5
:1022A20047C2E53011F4D0D043C2E63011F415D163
:1022B2003FC2E73011F437D13BC2E83011F45FD1AD
:1022C20037C2E1E035C2E881E13011F41DD01BC014
:1022D200E23011F43CD017C0E33011F46DD013C0DA
:1022E200E43011F4A1D00FC0E53011F4A9D00BC035
:1022F200E63011F4EED007C0E73011F410D103C07C
:10230200E83009F438D114C2E0E0E093620708959E
:102312001A9310E0E09162071E1730F40E947F3397
:102322000E94A8061F5FF6CF10916207E091540247
:102332001E1730F40E9442370E94A3331F5FF6CF6C
:102342000E94473710F4E1E0EDC1E0E0EBC1E0E0CC
:10235200E093620708951A930A93E0915402E150C0
:102362000E2F11270E945237D8010E94E73444F4FD
:102372000E94BD330A930E94A80601501040F2CF7A
:1023820000E010E00E9452370E946B3144F40E9438
:1023920058370A930E94A8060F5F1F4FF3CF0E947F
:1023A200473740F40E94BD33E0E0EA930E94A8065A
:1023B200E1E08CC0E0E08AC0E0E0E09362070895CB
:1023C2000E947A33E8E3F1E00E949A3F1A93EE8189
:1023D200E03069F0ED81E05EA0915302EA1B0E94B9
:1023E2003531FF27662777270E94E53C05C0ED813E
:1023F2000E9435310E943333E983FA836B837C83F5
:1024020010E0E09154021E1720F40E945C371F5F17
:10241200F8CF188127960895E0E00E945E3710F405
:10242200E1E00895E0E00895E0E0E09362070895B6
:10243200E1E00E945E3710F4E1E00895E0E00895E3
:10244200E0E0E093620708951A930A93E091540240
:10245200E6951E2F00E0E09162070E17A0F40E949D
:10246200BD33A12FBB27E02FF0E00E9475370E94F9
:102472007B37A12FBB27E02F0E94C230EA930E9434
:10248200A8060F5FE8CF10E00E947E37EA1B1E17F6
:1024920050F40E9442370E94A3330E9458370E9490
:1024A20084371F5FF1CF0E948B37EA1770F40E94C6
:1024B200BD33E0915402E150EA930E947B37E0E0A1
:1024C200EA930E94A806E1E001C0E0E009911991B7
:1024D2000895E0E0E093620708951A9310E0E09116
:1024E20062071E1740F40E947F330E947B370E94CE
:1024F20084371F5FF4CF109162070E9452371E1774
:1025020030F40E9442370E94A3331F5FF6CF0E942D
:102512008B37EA1710F4E1E005C1E0E003C1E0E027
:10252200E0936207089524971A930E945837E09126
:102532005302E695AE2FE0916207AE1BAA930E946A
:102542009137AE0FA150AA930E9423070E949C3399
:1025520010E0E09154021E1720F40E945C371F5FC6
:10256200F8CF0E949737EA1718F4E1E01881A7C064
:10257200E0E01881A4C0E0E0E093620708950E94C1
:102582007A33ECE3F1E00E949A3F1A93A09162073A
:10259200A130D0F00E948E310E94B33DE0E0EA9378
:1025A200E0916207E1500E94C4330E948E310E9482
:1025B200B33DA0916207E0915302EA1BEA93E091D6
:1025C2005302E1500E94C43310E0E09154021E17FE
:1025D20020F40E945C371F5FF8CF0E949737EA17FA
:1025E20018F4E1E018816BC0E0E0188168C0E5E60C
:1025F200F5E00E94C2310895E5E6F5E00E94A337B6
:1026020008950E94AA370E94C23192C0A881A134C3
:1026120010F4E4E08DC0A881A13610F4EAE088C08D
:10262200A881A13810F4E4E183C0EEE181C02497CF
:102632001A93ED810E94B137A0E0B0E08CE892E4F9
:102642000E940A320E94B7370E949C330E948E3148
:102652000E942D3E1E2F103009F41AE0E12F18813E
:1026620026960895A881A13210F4EAE061C0A881FB
:10267200A13410F4EEE15CC0A881A13810F4ECE3BF
:1026820057C0EAE555C02497EC810E94B137A0E01B
:10269200B0E088E492E40E940A320E94B7370E94B6
:1026A20017340E942D3EE03031F4E0E0F0E060E2C9
:1026B20071E40E94A7320E94BE370E942D3E2596E9
:1026C20008950E94C3370E94823F19F4E0E0F0E0CF
:1026D20012C00E94C3370E948931A0916407B09151
:1026E200650780916607909167070E94643E0E9489
:1026F200E73E0E942F3E249608951A93E8E6F5E0FD
:102702000E94C23111E0143068F4E3E0E19FF0016D
:10271200E859FA4FDF01E8E6F5E083E00E94F63D72
:102722001F5FF1CF199108950E94AA370E94A33723
:10273200219608952C970E948E3FE989EA93E6E755
:10274200F5E0FA93EA930E94FA0AE989E0937505A3
:10275200EA93E6E7F5E0FA93EA930E949D0A0E9463
:1027620035090E94CD37E1E0E0932606E0E0E093F0
:10277200F905E0E0F0E060E070E00E94D137A0915E
:102782007D05E0917F05EA1741F4A0917E05E09175
:102792008005EA1711F4E0E001C0E1E0E0933C06B5
:1027A200E4E0E0933D0601E0E0E0E0933E0610E065
:1027B200143010F00C94BD14E9E1E19FF001CF0157
:1027C200EB57FA4FBF01A081E0915402AE1790F58A
:1027D200F001E957FA4FA081E0915402AE1750F58B
:1027E200FB016081FC01E957FA4FE081E61710F125
:1027F200E9E1E19FF001EA57FA4FA081E09153022B
:10280200AE17C0F4E9E1E19FF001E857FA4FA08169
:10281200E0915302AE1770F4E9E1E19FF001EA574B
:10282200FA4F6081E9E1E19FF001E857FA4FE08158
:10283200E61720F40E94DA37A0E0A0830E949731C5
:10284200E751FA4FA0E0A083A7E2B6E0E12F0E9491
:10285200FC30AE0FBF1FE0E0F0E060E070E00E94ED
:10286200AA3DADEEB5E00E94E037A1EFB5E00E94CF
:10287200E037A5EFB5E00E94E037A0E4B6E00E94A1
:10288200E0370E94E53719F0E0E0E0933F060E944E
:10289200DA37E081E13049F40E94EF37EAEFEC9356
:1028A200AEE1B6E00E94E03765C0E23081F40E94FA
:1028B200EF37EFEFEC93AEE1B6E00E94E037A2E231
:1028C200B6E0EE27A10FBE1FEFEFEC9353C0E3304B
:1028D20059F4E3E0E19FF0010E94F637E3E0E19F63
:1028E200F0010E94F93746C0E430C9F400E0E5E0A7
:1028F200E19FF001E85FF94F0E94E535E5E0E19FD5
:10290200F001E65FF94FA0E0A083E5E0E19FF0016E
:10291200EA5FF94FAFEFBFEFA083B1832BC0E53081
:1029220049F1E630A9F40E94EF37EFEFEC93AEE104
:10293200B6E0EE27A10FBE1FEFEFEC93A2E2B6E0E6
:10294200EE27A10FBE1FE1E0EC93E89423F812C03A
:10295200E73031F400E0AAE1B6E00E94E0370AC0B5
:102962000E9497310E94FE37E0913D06E150E093CC
:102972003D06EF5F1F5F1CCF00933F06E0913F06CD
:10298200E03019F12FEF3FEF10E01430F0F40E9425
:10299200E537C9F41A93ECE0EA930E9403380E94E7
:1029A200470BEFEFFFEFE217F30719F42F813327FD
:1029B2000AC0F901AF81B0E0EA17FB0721F0E0E0BD
:1029C200E0933F0602C01F5FE0CFA0917A05A130DD
:1029D20030F0E0917A05EA930E94641105C0E1E0CB
:1029E200E093F9050E9412260E94F8120E947E13BB
:1029F2000E94953F629608950E948E3FAC81BD81F0
:102A020052960C9130E002FD3F5F03FD3F5FE8E12B
:102A1200E31BAE81AE1710F018E108C0E0E1E31B42
:102A2200AE81AE1710F010E101C018E0E12F0E9454
:102A3200953F279608956A9781E0A2E0B0E0E0E42E
:102A4200F1E00E949A3F0E94083831F0EDA5E03093
:102A520019F40E941138A3C3E8A1EA93E8E0EA93CB
:102A6200FE0171960E941838DF01CB01EA89FB89C9
:102A72000E94203820F00E9425380E94FE37EDB7D0
:102A8200FEB7FA93EA930F93EDB7FEB7FA93EA9380
:102A92003F93EDB7FEB7FA93EA932F930E944B3020
:102AA2002F913F910F91A989A13039F40D3010F087
:102AB2000C5003C0003009F40CE0E889E03061F406
:102AC2000E942838EEE6F1E00E942D38E22F0E94A3
:102AD2003C380E9442380AC00E942838E3E7F1E0FD
:102AE2000E942D3888E00E94DC2F2C96A9A1EBA130
:102AF200EA1BEF5FEA870E944738E9870E944C3859
:102B0200EE87AA85A33238F0A23318F4A889A03040
:102B120011F0E0E001C0E1E0EE83AAE1B6E00E943C
:102B22002538AE0FBF1FAC912A1739F0E1E0EB87D1
:102B32000E9453380E94573802C0E0E0EB87AE890A
:102B4200A13011F00C94E415EB85E03019F0E1E0CE
:102B5200E88738C00E9453380E9436340E94623897
:102B62000E9489317F936F93FF93EF930E946B389A
:102B7200F0E0A0EABFE00E94693DAF91BF918F9162
:102B82009F910E94063D0E94873F10F0E0E001C045
:102B9200E1E0E887E03039F00E947038AE0FBF1FE5
:102BA200AC91A03009F001C00BC0E885E03039F4E7
:102BB2000E947038AE0FBF1FAC91A13009F002C065
:102BC200E1E0EB8702C0E1E0E887E1E0EB87E0309B
:102BD20011F40C94C31640E050E010E00E94283833
:102BE2000E947338E8F40E9497310E947A38AA331F
:102BF20049F00E947A38A03320F00E947A38AA3332
:102C020008F00CC00E9480380E949731DE015A966B
:102C12000E9470310E947B0A0E941E331F5FDECF2A
:102C2200E9A1ED87EAA1EC87EC89E03029F0EA8599
:102C3200DA010E945F3608F006C0FA010E94F934F8
:102C42000E948738ED87ED89E03021F0EE85A98575
:102C5200EA1708F007C0AE85E985EA1BE695AAA146
:102C6200EA0FEC87E9A1AD85EA1738F40E948F38A4
:102C7200ACA1E889EA1B0E94953810E00E9428382E
:102C82000E94733810F00C94B7160E9497310E947C
:102C92007A38AA33D9F50E948038EAE3EA930E948F
:102CA2007B0AEF83E885E03031F00E947038AE0F86
:102CB200BF1FE1E005C00E947038AE0FBF1FE0E009
:102CC200EC930E9428380E945B2E33970E949C3816
:102CD200EA17FB0791F4E885E03041F0ED850E94A8
:102CE2008F380E949F380E94380A06C0ED850E94E4
:102CF2008F38EA850E94953807C0ED850E948F388B
:102D02000E949F380E94380AEF8127C00E949731A3
:102D12000E947A38A03320F00E947A38AA3308F051
:102D220025C0ED850E948F38EA89EA93EA89EA9301
:102D32000E94A938DE015D960E947031EAA50E94C8
:102D420045340E94380A0E9480380E949731DE0181
:102D52005A960E9470310E947B0AAD85EA0FED8778
:102D6200EBA1AD85EA1710F01F5F88CFED85ABA10F
:102D7200AE1740F00E948F38A889EEA1EA1BEF5FE0
:102D82000E949538AAE1B6E0EAAD0E94C2302083E3
:102D920006C26A970E94083831F0EDA5E03019F4B6
:102DA2000E941138FCC1E8A1EA93E7E0EA93FE0130
:102DB2007B960E941838DF01CB01EC8DFD8D0E94BD
:102DC200203820F00E9425380E94FE37EB8DE0303B
:102DD200D1F4EDB7FEB73197FA93EA933F932F936D
:102DE200EDB7FEB7FA93EA930F93EDB7FEB7FA93F6
:102DF200EA935F93E1E0EA930E9428055F910F91C5
:102E02002F913F9119C0EDB7FEB73197FA93EA932C
:102E12003F932F93EDB7FEB7FA93EA930F93EDB773
:102E2200FEB7FA93EA935F93E0E0EA930E942805E3
:102E32005F910F912F913F91AAE1B6E00E94253850
:102E4200AE0FBF1FAC915A1749F4A2E2B6E00E943E
:102E52002538AE0FBF1FAC910A1711F0E1E001C097
:102E6200E0E0E987EA8DE03061F40E94AC38EDE7FA
:102E7200F1E00E94B138E52F0E943C380E944238AE
:102E8200A7C0E13089F40E94AC38ECE8F1E0FA9393
:102E9200EA93D9010E94AA300E94BA38E52F0E9413
:102EA2003C380E94423894C0E23061F40E94AC384F
:102EB200EBE9F1E00E94B138E52F0E943C380E9414
:102EC200423886C0E33089F40E94AC38EAEAF1E085
:102ED200FA93EA93D9010E94AA300E94BA38E52FE8
:102EE2000E943C380E94423873C0E43021F0E53041
:102EF20011F00C94E917E1E0E9870E9470380E9412
:102F0200C038D1F50E94C5387F936F93FF93EF933A
:102F12000E9453380E943634AF91BF918F919F9196
:102F22000E94C93880F00E945338EA0FFB1FFF93BA
:102F3200EF930E94C538AF91BF910E94AA3D0E94B3
:102F420070380E94D338AA8DA43029F40E94AC387C
:102F5200E2E8F1E004C00E94AC38E0EAF1E0FA9362
:102F6200EA93E02F0E943C38E52F0E943C3888E02B
:102F72000E94DC2F2C962CC00E94C5387F936F9341
:102F8200FF93EF930E9453380E943634AF91BF9162
:102F92008F919F910E94C93880F00E945338EA0FA6
:102FA200FB1FFF93EF930E94C538AF91BF910E9420
:102FB200AA3D0E9470380E949A310E94AC38E9EB17
:102FC200F1E0FA93EA93F901662777270E940F321C
:102FD200A9A1EBA1EA1BEF5FE8870E944738EF83C4
:102FE2000E944C384E2FA885A33328F4AA8DA43012
:102FF20011F0A53019F5A885A03430F4AA8DA030BF
:1030020011F0A23009F41AC0A885A33330F4AA8DB6
:10301200A13011F0A23009F411C0A885E0E20E94AB
:10302200153D0E2EAA8DA43021F0A53011F0E0E05E
:1030320001C0E1E0E02111F4E0E001C0E1E0EE8353
:10304200E985E03011F40C94C418E0E0EC87ED87D8
:1030520010E00E94AC380E94733808F50E94973144
:103062000E94D838AF3269F00E94D838AD3249F0A8
:103072000E94D838A03320F00E94D838AA3308F032
:103082000CC00E94DE380E94E4380E947B0AAC85A4
:10309200BD850E94C230EC87FD871F5FDACFE9A1B0
:1030A200EB87EAA1EA87EE8DE03031F0E885AC8566
:1030B200BD850E945F3608F007C0EC85FD85A885B6
:1030C200B0E00E948738EB87EF8DE03019F0AF81D6
:1030D2004A1708F006C0EF81E41BE695AAA1EA0FA1
:1030E200EA87E9A1AB85EA1738F40E94E738ACA178
:1030F200EE85EA1B0E94ED3810E00E94AC380E9477
:103102007338A8F50E9497310E94D838AF3269F01F
:103112000E94D838AD3249F00E94D838A03320F04E
:103122000E94D838AA3308F001C001C020C0EB8544
:103132000E94E738EC8DEA934A930E94A938DE0197
:1031420054960E947031EAA50E9445340E94380AC2
:103152000E94DE380E94E4380E947B0AAB85EA0FA7
:10316200EB87EBA1AB85EA1710F01F5FC6CFEB85AB
:10317200ABA1AE1740F00E94E738AE85EEA1EA1B84
:10318200EF5F0E94ED38AAE1B6E0EAAD0E94C230DC
:103192005083A2E2B6E0EAAD0E94C23000830E94F0
:1031A200933FEB9608951A9311E0A981A13029F477
:1031B200A0E9B0E00E94D13D17C0A981A23029F454
:1031C200A1E9B0E00E94D13D0FC0A981A33029F44A
:1031D200A2E9B0E00E94D13D07C0A981A43029F440
:1031E200A3E9B0E00E94D13D1E2FE12F1881229663
:1031F20008952497FE01FF93EF93E985EA930E94D5
:103202003933EF85F8890995AF91BF91FF2766277A
:1032120077270E94AA3DAC81A230D0F0FE01FF9335
:10322200EF930E94F3387F936F93FF93EF930E9483
:10323200FB380E94FE38EF85F8890995AF91BF915E
:103242008F919F910E940539AF91BF910E94AA3D33
:10325200AC81A330E0F0FE01FF93EF930E94F338BC
:103262007F936F93FF93EF930E94FB380E940B3979
:103272000E94B33DEF85F8890995AF91BF918F9177
:103282009F910E940539AF91BF910E94AA3DAC81E6
:10329200A430F0F0FE01FF93EF930E94F3387F9386
:1032A2006F93FF93EF930E94FB38ED5FFF4F6F4FD9
:1032B2007F4F0E94B33DEF85F8890995AF91BF9189
:1032C2008F919F910E940539AF91BF910E94AA3DB3
:1032D2000E94BE372C960895AA9787E0A0E0B0E03E
:1032E200E2E4F1E00E949A3F0E948C3F0E94103972
:1032F2000E94163941F0EDADE03029F4FE01F1965D
:103302000E941B390CC3E8A9EA93ECE0EA93FE01A0
:10331200B6960E942039EFA5EA930E94D418EF8353
:103322000E9424390E94C03811F00C94E019EEADCD
:10333200E03029F40E9424390E94D33840C00E9410
:1033420027390E94C03881F10E942A390E9418133D
:103352000E9430390E9436340E94393908F4DFC2A3
:10336200ADEEB5E00E9440390E94C230FF93EF9368
:103372000E9445390E946E0BAF91BF91EC930E945F
:1033820024390E94C03821F00E944C390E949A319F
:103392000E9424390E94C03811F00E944F390E94C5
:1033A20053390E945738BBC20E9427390E94D33832
:1033B2000E9445390E94EA0BE1E0EE83EEA3E09120
:1033C2002606E03029F40E9424390E94C03809F40C
:1033D2000CC0EFA1EA930E9407130E9430390E94A9
:1033E20036340E94393908F49AC20E945839408111
:1033F2005181042E052A19F441E050E003C0EF8107
:103402000E941E330E94583940835183A9A9EBA917
:10341200EA1BEF5FEF87AAA9ECA9EA1BEF5FEE8731
:10342200EDA1E030B1F5ECA1E03099F0EF85A8A56F
:10343200B9A50E945F3650F40E9462390E946C392D
:103442009D012417350708F4A90102C02F853327EF
:1034520002C02F853327AEA1A03041F40E947139FA
:10346200E081E03019F44217530708F011C00E94BE
:103472007B39E217F30748F00E9471390E948039C4
:1034820011F40E944F390E9485399A0141E050E0BF
:1034920079C0ADA1A13011F00C94C31AECA1E030B7
:1034A20011F40C949D1AEF85A8A5B9A50E945F3668
:1034B200D0F40E9462399F010E946239AF850E9456
:1034C2007936EA1BFB0BE417F50728F40E946239F0
:1034D2000E946C39AD010E946239AF850E94793633
:1034E200EA1BED8704C0EF85ED8721E030E0AEA155
:1034F200A03051F40E947139E081E03029F4ED8569
:10350200DA010E945F3608F016C00E947B39DF01A3
:10351200ED850E945F3648F00E9471390E94803921
:1035220011F40E944F390E948539FA010E946C39C8
:103532009D0141E050E026C021E030E0AEA1A03084
:1035420051F40E947139E081E03029F4EF85DA010B
:103552000E945F3608F016C00E947B39DF01EF85BA
:103562000E945F3648F00E9471390E94803911F43E
:103572000E944F390E948539FA010E946C399D01DF
:1035820041E050E0AE85A93010F4E1E00BC0AE8519
:10359200A13110F4E2E006C0AE85A93110F4E3E0F7
:1035A20001C0E4E0ED87ACA1A13021F44AA35BA302
:1035B20041E050E0EAA90E94C8320E94D93CEE8F55
:1035C200FF8F68A379A3ACA90E94D3320E94E53C85
:1035D200EA8FFB8F6C8F7D8FAE8DBF8D88A199A1F5
:1035E2000E949733EE8BFF8B688F798F0E948D3903
:1035F200DF01CB010E9495390E94513DDF01CB01D1
:103602000E9495390E94B13CA887B9878A879B8717
:10361200FA0131978F01E8A5F9A50E171F0710F0DF
:103622000C94CF1B0E9495390E9489340E94A73CBA
:103632000E9424360E949A391197A88BB98BAF81C8
:10364200A130C1F4ADA1A03031F4E9A9A889B989AA
:103652000E94E73450F0ADA1A13031F4EBA9A88962
:10366200B9890E945F3608F005C00E944C390E9459
:10367200C03809F434C0ECA1E03029F0AAA1BBA102
:103682004A175B0709F402C0E8890AC0EDA1E030DD
:1036920021F4E889F989319703C0E889F9893196DB
:1036A200EA930E944D33AAA9A13048F00E946233E6
:1036B200E0E0EA93EFA90E94A0390E94A339E091C9
:1036C2005302E150ACA9AE1748F40E946233E8AD50
:1036D2000E9448330E94A0390E94A3391AC0E3E62F
:1036E200FBE0FA93EA93EAA9EA93EB85FC856D8500
:1036F2007E850E94A6390E94FA180E945D33EAA9CB
:10370200AA89BB898C899D89FF27662777270E9412
:103712001233EE81E03029F0E889EA930E947E06B6
:1037220004C0E889EA930E945406EE8FFF8F68A3D3
:1037320079A30E94AB390E94E832AA89BB898C899D
:103742009D890E94BB3CEE8FFF8F68A379A3EE8117
:10375200E03039F00E94AB390E94A6390E94CB06B4
:1037620006C00E94AB390E94A6390E94A806EDA1AC
:10377200E03039F4022E032A89F00E94B03971F048
:103782000AC0ADA1A13039F4EF85D9010E945F369C
:1037920028F42F5F3F4F0F5F1F4F3DCF0E944C39E0
:1037A2000E94D33800240216030618F4ADA1A030FB
:1037B20049F0EF85D9010E945F3618F4ADA1A1301E
:1037C20009F035C00E945837EEA9EA93E9ADEA93B1
:1037D2000E94BD330E94A339EE81E03069F00E945D
:1037E2009A390E94B5390E947E060E940B330E94CC
:1037F200B8390E94CB060CC00E949A390E94B53992
:103802000E9454060E940B330E94B8390E94A806F7
:10381200EDA1E03021F40E94B03949F007C02F5FDA
:103822003F4FEF85D9010E94E73408F0D5CFECA1D4
:10383200E030F9F0ADA5BEA50E947E3FA8F40E943B
:10384200C03988F0EEA1E03051F40E947139E08174
:10385200E03021F00E9410390E94FE3704C00E941D
:1038620010390E94FE3704C00E9410390E94FE37B0
:1038720038C0ACA5A130D0F00E94C93940F4E1E0D3
:10388200EC87A5EFB5E00E9410390E94CE39A5EF72
:10389200B5E00E941039AE0FBF1FAC91ECA5AE1778
:1038A20020F00E9410390E94FE371BC0ADA5BEA5B4
:1038B2000E947E3F68F40E94C93910F4E1E0EC876F
:1038C2000E94C03920F00E9410390E94FE3709C0C0
:1038D2000E94C93930F40E9410390E94FE37E1E09B
:1038E200EC87EC85E030B9F00E948539DE01A65BF9
:1038F200BF4FAC91E3E0EA9FF0010E94F9370E94CA
:1039020024390E949A310E9427390E949A310E94DA
:103912004C390E949A310E9453390E9457380E94B2
:10392200933FEF962C960895A0971A930E94D4394C
:103932000E94163949F0EEA5E03031F4FE01B2964C
:103942000E941B3918815AC1E9A1EA93ECE0EA937B
:103952000E9428380E94470BE0912606E03051F57C
:10396200E8A1E030A1F00E94D739DF01109774F08E
:103972000E94E1390E9436340E94E639BF010E945A
:10398200D7396E177F0710F4188138C113C0ED893B
:10399200EA930E9433131E2F0E94E1390E943634AB
:1039A2000E94E639DF010E949731AE17BF0710F47B
:1039B200188124C10E94EA390E94D0350E94EA3956
:1039C2000E94A03D66277727E150F040604070409A
:1039D2007F936F93FF93EF93EF89FF2766277727F4
:1039E200DF01CB010E94F2390E940B39AF91BF91E6
:1039F2008F919F910E94313DE98BFA8B6B8B7C8B6F
:103A0200E8A1E03059F10E94F9390E94FE38E1E064
:103A1200EA930E94FA180E949C330E943531E8E032
:103A22000E94D93C7F936F93FF93EF930E94F939E1
:103A32000E94B33DE1E0EA930E94FA18AF91BF9170
:103A42008F919F910E94BB3C0E949C330E94043A3A
:103A5200EA5FF94FA981BA81A083B183AE8DA1300B
:103A620061F40E944738E695AE2FEF89E6950E94F1
:103A7200C93DEA1BAAA1EA0FEAA30E94043AE65F43
:103A8200F94FE081E03029F0A88DB98D129708F442
:103A92006AC0EBA10E94C8320E94B133ADA10E945C
:103AA200D3320E94E53C0E94A1330E94B8330E94A7
:103AB20097330E948C3310E0EF891E1710F00C949C
:103AC200AE1DE989FA896B897C890E940B397F9343
:103AD2006F93FF93EF93E12FFF2766277727DF018D
:103AE200CB010E94F239AF91BF918F919F910E94B9
:103AF200A73C0E94D933E9E5FBE0FA93EA93EBA1F4
:103B0200EA93E889F9896A897B890E94B33DED8D40
:103B1200EA930E94FA180E949C33EAA1EA930E9457
:103B2200C833EBA10E9435310E9433330E949C338B
:103B32000E94CF330E94D4330E94B63C0E9435319A
:103B42000E94DE330E94B33DEEA1EA930E94A806D2
:103B5200EAA1EF5FEAA31F5FAFCF0E94043AE65FDC
:103B6200F94FA1E0A083AA8DA130D0F00E94EA39DA
:103B72000E94093A30F0A5EFB5E00E94D4390E94C4
:103B8200CE39A5EFB5E00E94D439AE0FBF1FAC917C
:103B9200EA8DAE1720F00E94D4390E94FE371EC073
:103BA200AB8DBC8D0E947E3F80F4EBADEA930E9408
:103BB2009513DF01CB01EB8DFC8D0E94203820F0A4
:103BC2000E94D4390E94FE3709C00E94EA390E943D
:103BD200093A20F00E94D4390E94FE370E94EA3945
:103BE2000E94093A30F00E94043AE85FF94F0E94BD
:103BF200E5350E94E1390E9457381881EC96089504
:103C020068970E948C3F0E94113A0E94163941F037
:103C1200EBA5E03029F4FE017F960E941B396FC1AB
:103C2200EE8DEA93E6E0EA93FE017A960E9420394D
:103C32000E94143ADF01CB01EA8DFB8D0E942038ED
:103C420020F00E94113A0E94FE37A2E2B6E00E94E2
:103C5200113A0E94C038E1F40E94143A7F936F93A4
:103C6200FF93EF93A7E2B6E0E8AD0E94FC300E941A
:103C72003634AF91BF918F919F910E94B13CAA308F
:103C8200E0E0BE07E0E08E07E0E09E0708F437C1FF
:103C92000E94AC38EB8DEA930E94183A0E94C40548
:103CA200E03009F42CC1A2E2B6E00E94113A0E946F
:103CB2009A31A7E2B6E0E8AD0E94FC30EA0FFB1FA2
:103CC200FF93EF930E94143AAF91BF910E94AA3DD5
:103CD200AEE1B6E00E94113AAE0FBF1FEC91FE2F8B
:103CE200E0E00F01AAE1B6E00E94113AAE0FBF1F59
:103CF200EC91F0E0E029F129EA87FB87AA85BB85F0
:103D0200EC85FD85EA1BFB0BFA93EA930E94432E96
:103D1200319708F4F4C0E1E0E9870E94AC380E94D0
:103D22005B2E1E2FE98DE03041F40E949731DE01B7
:103D32001E96AE0FBF1FE3E407C00E949731DE015B
:103D42001E96AE0FBF1FE6E4EC93E12FEF5FF0E0AB
:103D5200DE011E960E949A31AF8DE9A1EA1BEF5F48
:103D6200E887A8A1EAA1EA1BEF5FEF83EA93FE01CD
:103D7200B096FA93EA930E94FD144E2FA885E4E2CE
:103D82000E941A3DEE83E985E03011F40C946F1F16
:103D920020E030E010E00E94AC380E94733830F529
:103DA2000E9497310E94D838AB32A9F00E94D838CD
:103DB200AD3289F00E94D838A33469F00E94D83815
:103DC200A63449F00E94D838A03320F00E94D83897
:103DD200AA3308F009C00E941D3A0E94E4380E94EA
:103DE2007B0AF0E02E0F3F1F1F5FD5CF0F8D58A12A
:103DF200EC8DE03029F0E885D9010E945F3608F0A9
:103E020007C0F901A8850E94243AAF8DEA0F0E2F50
:103E1200ED8DE03019F0AF814A1708F006C0EF814E
:103E2200E41BE695A8A1EA0F5E2FEF8DE01748F498
:103E3200EA935A93ECA1EA93AAA1E02FEA1B0E940B
:103E42002B3A10E00E94AC380E947338D8F50E94D9
:103E520097310E94D838AB32A9F00E94D838AD32DF
:103E620089F00E94D838A33469F00E94D838A63469
:103E720049F00E94D838A03320F00E94D838AA33E3
:103E820008F001C001C01EC00A935A93ECA1EA9344
:103E9200EB8DEA934A930E94A938DE0154960E9460
:103EA2007031E8A50E9445340E94380A0E941D3AEA
:103EB2000E94E4380E947B0A0E0FE9A1E01710F07D
:103EC2001F5FC0CFA9A1A01748F00A935A93ECA193
:103ED200EA93ECA1E01BEF5F0E942B3AAAE1B6E065
:103EE2000E94113AAE0FBF1FEC85EC93AEE1B6E033
:103EF2000E94113AAE0FBF1FED85F070EC930E9445
:103F0200933FE996089523970E94313A0E94163909
:103F120041F0E889E03029F4FE0134960E941B3911
:103F220036C0EB81EA93E3E00E941C37ED8DEA9301
:103F32000E949513DF01CB01E981FA810E942038AA
:103F420020F00E94313A0E94FE37AAE1B6E00E94B8
:103F5200313A0E94C038D9F4AAE1B6E00E94313A5F
:103F62000E94D338A881A13041F4FE013496A9E120
:103F72000E94B83D0E94AA090AC0EC81EA93EE8130
:103F8200EA93E885EA93EA85EA930E9442096E96EB
:103F92000895EA81AB81EA1750F0EB81AD81AE174B
:103FA20018F0EA81EA1710F4E0E020C00AC0EB81C1
:103FB200AD81AE1718F4EA81EA1708F002C0E0E01A
:103FC20015C0ED81AB81EA1731F4EC81A981EA17C2
:103FD20010F4E0E00BC0ED81AA81EA1731F4EC8124
:103FE200A881EA1710F0E0E001C0E1E0269608950A
:103FF2000E948E3FA0918105B09182050E947E3F72
:1040020050F5EDB7FEB73197FA93EA931F930F93EA
:10401200EDB7FEB7FA93EA933F93EDB7FEB7FA9383
:10402200EA932F93E1E0EA930E9428052F913F91B2
:104032000F911F91E0918105F0918205E017F10740
:1040420041F4E0918305E31721F4E0918405E2173E
:1040520011F0E0E012C0ED81EA93ED81EA93E09184
:104062007D05EA93E0917F05EA93E0917E05EA936C
:10407200E0918005EA930E94CA1F0E94953F26960E
:104082000895ABE8B0E00E94D13DE03011F4E0E0E9
:104092001CC0E981EA93DE011196EC91EA93ACE847
:1040A200B0E00E94D13DEA93ADE8B0E00E94D13D7C
:1040B200EA93AEE8B0E00E94D13DEA93AFE8B0E007
:1040C2000E94D13DEA930E94CA1F229608950E943F
:1040D2008C3F41E0EDB7FEB7FA93EA931F93EDB739
:1040E200FEB7FA93EA930F93EDB7FEB7FA93EA930A
:1040F2003F930E944B303F910F911F911A930A9365
:104102000E944220E03031F0E0E0EA930E94290967
:10411200E0E065C0E0913C06E030B9F0A0916907AB
:10412200DA1699F01A930A930E94F91FE03059F4B3
:1041320050E0543028F4E52F0E94343A5F5FF9CF03
:10414200EFEFE0936807D092690750E0543040F4F3
:10415200E52FF0E0E751FA4FE0814E235F5FF6CFA3
:10416200403031F0E0916807EF5FE093680702C0EA
:10417200E1E035C020917505E0917705A0916807CF
:10418200AE1750F0222F2395E09174052E1708F0F8
:1041920020E0E0E0E0936807403001F1203061F474
:1041A200E0E0EA930E942909AAE8B0E00E94D13D2A
:1041B200E03011F00E941E022A93E0E0EA930E948E
:1041C2009B131A930A930E94F91FE03029F4EFEF30
:1041D200E0936907E0E003C0E1E001C0E1E00E9492
:1041E200933F26960895EF97289781E0A2E0B0E0EA
:1041F200ECE4F1E00E949A3F0E948C3F0E94A42DC1
:10420200E1E0EE8300E010E00430E0E01E0758F445
:10421200A9EEB5E0A00FB11FEC91AE81EA23EE83C7
:104222000F5F1F4FF1CFEE81E03009F0E3C2E88566
:104232000E9445340E945F3CE0E0E987A985A430F2
:1042420010F00C94FA23E9E1EA9FF001A9E8B5E045
:10425200AE0FBF1FAC91A33009F0C7C2E0E0E9A7DF
:10426200E985EA87A985E9E1EA9FF001EB57FA4F70
:10427200DE011B9689E10E94F63DE1E0EF830E9498
:10428200363A0E94163929F0EF89E03011F4E0E065
:10429200EF83EA85EA93ECE0EA93FE01ED5BFF4FE0
:1042A2000E942039FE01EC5BFF4FE081EA930E94FD
:1042B2000713E887FE01E45BFF4FE081EA930E9467
:1042C200D418ECA30E94393A40815181042E052A68
:1042D20019F441E050E003C0ECA10E941E330E9499
:1042E200393A40835183AB85ED85EA1BEF5FECA73A
:1042F200AC85EE85EA1BEF5FEBA70E94BD30E03094
:1043020099F50E94403A81F00E94463A50F40E9488
:104312004E3A0E94563A9D012417350708F4A90126
:1043220002C02CA5332702C02CA533270E945B3A7A
:1043320041F40E94613AE081E03019F442175307D8
:1043420008F011C00E94683AE217F30748F00E9491
:10435200613A0E946D3A11F40E94753A0E94793ACC
:104362009A0141E050E077C00E947E3AA13011F0FC
:104372000C942C220E94403A11F40C9406220E94C2
:10438200463AD0F40E944E3A9F010E944E3AACA5A2
:104392000E947936EA1BFB0BE417F50728F40E940A
:1043A2004E3A0E94563AAD010E944E3AACA50E9486
:1043B2007936EA1BEAA704C0ECA5EAA721E030E0BF
:1043C2000E945B3A51F40E94613AE081E03029F4A4
:1043D200EAA5DA010E945F3608F016C00E94683A28
:1043E200DF01EAA50E945F3648F00E94613A0E940E
:1043F2006D3A11F40E94753A0E94793AFA010E94CC
:10440200563A9D0141E050E026C021E030E00E9492
:104412005B3A51F40E94613AE081E03029F4ECA564
:10442200DA010E945F3608F016C00E94683ADF0186
:10443200ECA50E945F3648F00E94613A0E946D3AF4
:1044420011F40E94753A0E94793AFA010E94563A92
:104452009D0141E050E0ABA5A93010F4E1E00BC0B2
:10446200ABA5A13110F4E2E006C0ABA5A93110F46E
:10447200E3E001C0E4E0EAA7DE01AF5BBF4FAC912D
:10448200A13039F4FE01E15CFF4F4193508341E0DA
:1044920050E0EC850E94C8320E94D93C0E94833AC7
:1044A200AE850E94D3320E94E53CEFABF8AF69AF14
:1044B2007AAFABADBCAD8DAD9EAD0E949733EBAB89
:1044C200FCAB6DAB7EAB0E948D39DF01CB010E944C
:1044D200883A0E94513DDF01CB010E94883A0E9436
:1044E200B13CADA3BEA38FA398A7FA0131978F0168
:1044F2000E948D3A0E171F0710F00C943F230E9462
:10450200883AADA1BEA18FA198A50E94A73CEDA3B8
:10451200FEA36FA378A70E94943A1197ADA7BEA7F6
:10452200ACA1A130D1F40E947E3AA03031F4EB85E7
:10453200ADA5BEA50E94E73458F00E947E3AA13094
:1045420031F4ED85ADA5BEA50E945F3608F005C029
:104552000E949A3A0E94C03809F43BC00E94403A35
:1045620049F0DE01A15CBF4F0D90BC91A02D4A170E
:104572005B0709F402C0EDA50BC00E94BD30E0301C
:1045820021F4EDA5FEA5319703C0EDA5FEA5319658
:10459200EA930E9454060E949D3AAC85A13048F0ED
:1045A2000E94A23AE0E0EA93E9890E94A0390E94BF
:1045B200A93AE0915302E150AE85AE1748F40E9449
:1045C200A23AEA890E9448330E94A0390E94A93A7D
:1045D20019C0E3E6FBE0FA93EA93EC85EA93E8A5D7
:1045E200F9A56AA57BA50E94B33DE9A9EA930E94B9
:1045F200FA180E949D3AEC850E94AC3A0E9433332D
:104602000E949D3AEDA5EA930E9454060E94833AC5
:10461200EBADFCAD6DAD7EADABA9BCA98DA99EA9DC
:104622000E94B63C0E94AC3A0E94BB3C0E94833A74
:10463200EF81E03051F0EBADFCAD6DAD7EAD0E948F
:10464200B33DE9A9EA930E94A8060E94BD30E0307A
:1046520039F4022E032A91F00E94B03979F00BC08E
:104662000E947E3AA13039F4ECA5D9010E945F364E
:1046720028F42F5F3F4F0F5F1F4F3ACF0E949A3AA5
:104682000E94D33800240216030620F40E947E3AC8
:10469200A03051F0ECA5D9010E945F3620F40E94AF
:1046A2007E3AA13009F032C00E945837E889EA9375
:1046B200EB89EA930E94BD330E94A93AEF81E03070
:1046C200A9F00E94943A0E94B5390E9454060E94B1
:1046D200AC3A0E94B63C0E94B33DF901AF85B0E00E
:1046E200AE0FBF1F0E94B5390E94A8060E94BD30BE
:1046F200E03021F40E94B03949F007C02F5F3F4FEC
:10470200ECA5D9010E94E73408F0D8CF0E94403AC4
:10471200E9F00E94B13AB0F40E94BA3A90F0FE0178
:10472200ED5BFF4FE081E03049F40E94613AE081A5
:10473200E03019F0E9850E94343A03C0E9850E940D
:10474200343A03C0E9850E94343A39C0DE01A75BDE
:10475200BF4FAC91A130E0F00E94C73A40F4E1E0D3
:10476200E9A7A5EFB5E00E94363A0E94CE39A5EF3F
:10477200B5E00E94363AAE0FBF1FAC91FE01E75B77
:10478200FF4FE081AE1718F0E9850E94343A17C056
:104792000E94B13A60F40E94C73A10F4E1E0E9A73E
:1047A2000E94BA3A18F0E9850E94343A08C00E9481
:1047B200C73A28F4E9850E94343AE1E0E9A7E9A57D
:1047C200E03061F00E94793AA985E3E0EA9FF001C6
:1047D2000E94F9370E949A3A0E949A31A7E2B6E003
:1047E200E9850E94FC300E945738E985EF5FE9872E
:1047F20025CD04CD0E94933FEF962E9608951A93ED
:104802000A930E946820E03009F4D7C0E091F905CC
:10481200E03061F5E0913706F09138066091390693
:1048220070913A060E94E639FF93EF93E0917C057E
:10483200EA930E944413AF91BF910E945F3608F43D
:10484200BCC0E0917A05EA930E944111E093F90518
:104852000E94CB3A0E94D137E091F905E03029F06D
:10486200E0D10E94F8120E947E13A7C00E94623813
:10487200AC30EEEFBE07EFEF8E07EFEF9E0728F0AA
:104882000E94D43AE1E0E0932606E0913F06E03050
:10489200D1F001E010E0143088F40E94E53761F4B1
:1048A200003041F0ADEEB5E00E94DE3AE03011F0AA
:1048B200E1E001C0E0E00E2F1F5FEDCF003019F004
:1048C200E1E0E0933E06A0913E06A13031F40E9461
:1048D200F420E0E0E0933E0670C0E0913E06E03056
:1048E20011F00C94DE24E0916A07EF5FE0936A070F
:1048F200A0916A07A73018F0E0E0E0936A0710E0A1
:10490200143010F00C94DB240E94FD127F936F93FD
:10491200FF93EF93E9E1E19FF001E657FA4FE0815F
:10492200AF91BF918F919F91FF27662777270E94B2
:10493200873F20F41A930E9402133AC00E94DA378A
:10494200E081E13049F4E0916A07E03021F40E940D
:10495200E33A0E941C152CC0E23049F4E0916A0748
:10496200E03021F40E94E33A0E94CA1621C0E330EB
:1049720029F40E94E33A0E946D191AC0E43029F426
:104982000E94E33A0E94951C13C0E53089F0E6309C
:1049920049F4E0916A07E03021F40E94E33A0E9470
:1049A200011E06C0E73021F40E94E33A0E94841FF0
:1049B2001F5FA6CFE0E0E0932606099119910895C2
:1049C200F894E0918706E8BBA0915302A93110F454
:1049D200969A9698A0915302A13110F4959A9598BF
:1049E200A0915302A93010F4949A9498E091530242
:1049F200E03011F4939A9398789408950E94EE3AD5
:104A0200E881E0935302E981E0935402EA81E09362
:104A12007405E0E0EA93E1E0EA930E949B130E94AE
:104A2200E12439C00E94FF240E94D43A08950E94D2
:104A3200F43AEFEFE093880624FC04C00E94CD37DD
:104A4200689424F80E94FB3AE0915302E150EA9301
:104A5200E6EBF0E00E94FC33E8E0EA93E0E6EA935A
:104A62000E94230808950E94EE3AA881A13278F4A8
:104A7200A981A13660F4A881A03049F0A981A030B3
:104A820031F0E981E77019F4AA81A03011F4E894B9
:104A920001C0689420F8239608952C970E948C3FB9
:104AA200AB89BC891496EC91E03011F40C940E267B
:104AB200AB89BC8953961C91AB89BC8954960C91E5
:104AC200AB89BC8952963C91AB89BC892C91AB894C
:104AD200BC8911965C91AB89BC8912964C91AB89C9
:104AE200BC891396EC91E98BAB89BC895196EC9108
:104AF200EE87E32FE170A0E00E94103DED87E32FE7
:104B0200E2700E94103DEC87E32FE4700E94103D9A
:104B1200EB87E32FE8700E94103DEA87E32FE071F4
:104B22000E94103DE987E32FE0720E94103DE88762
:104B3200E32FE0740E94103DEF83E32FE0780E94A0
:104B4200103DEE831130F0F1588BE989EF87013087
:104B520080F0EB85E03011F0511708F403C0E52F27
:104B6200E01BE88BEA85E03021F0E02FA989EA0F0B
:104B7200EF87ED85E03011F0211708F410C0E985C8
:104B8200E03019F0EA89E03009F005C00E94FF3AEE
:104B92000E94730904C00E94FF3A0E944209EC85F8
:104BA200E03081F0E885E03019F0EA89E03009F080
:104BB20005C00E940A3B0E94730904C00E940A3B7E
:104BC2000E944209013048F1EB85E03011F05017A4
:104BD20008F410C0EF81E03019F0EA89E03009F002
:104BE20005C00E94153B0E94730904C00E94153B38
:104BF2000E944209EA85E03081F0EE81E03019F04E
:104C0200EA89E03009F005C00E941E3B0E94730948
:104C120004C00E941E3B0E9442090E94933F659677
:104C220008951A9310E0143058F4E9E1E19FF0017D
:104C3200EB57FA4F0E94FC330E944E251F5FF3CFC1
:104C420019910895AA93EA93EFB7EA93D394ECE308
:104C5200DE1688F0DD24C394CE1668F0CC24E091F1
:104C62004E02EF5FE0934E02A0914E02A83118F07F
:104C7200E0E0E0934E02E991EFBFE991A991189526
:104C8200AFEBB0E00E94D13DECBFEDE0E3BFE0E06E
:104C9200E2BFE2E9E9BF0895E0E0E3BFE2BF0895C1
:104CA2000E948C3F21FE0CC07FD0E0E9E9BF9BD07F
:104CB200AA980E94412689D092D06BD062D066D049
:104CC2000E940D3CE0E0EA93EBE4EA93E0E5EA932C
:104CD200E0E0EA930E9412300E94FB3AE1E0EA939C
:104CE2000E943430EDB7FEB7FA93EA931F93EDB703
:104CF200FEB7FA93EA930F93EDB7FEB7FA93EA93EE
:104D02003F930E944B303F910F911F91EDB7FEB739
:104D1200FA93EA934F93EDB7FEB7FA93EA935F9350
:104D2200EDB7FEB7FA93EA932F930E946F302F915B
:104D32005F914F91183170F40C3360F43C3350F4AE
:104D4200213040F0513030F05D3020F4413010F02D
:104D5200403270F00E94FB3AE0E0EA930E945B303E
:104D6200E5E1EA93E3E0EA93E9E0EA930E94803026
:104D7200E8E1E1BDE0E0E1BD78940E94933F269630
:104D82000895E0E8E8B9E0E0E0BF0895E7E8E6B9B1
:104D92000895E0E0EBB9E8E9EAB9E6E8E0BDE0E071
:104DA200E0BDE9E1E9B90895E0E0EFBDEDE0EEBD77
:104DB200E0E0EDBDECBDE7BDE6BDEDE3EBBDE9E056
:104DC200EABDE0E0E9BDE8BD0895E0E0E2BDEFE163
:104DD200E5BDE0E0E4BD0E946B38E3BD0895E0E08C
:104DE200E5BFE4BF0895E0E0EBBBE1E8EABBE0E049
:104DF200E8BBEFEFE7BBE0E0E5BBECEFE4BBE0E0F4
:104E0200E2BBE8E7E1BB08950A921A92FA926A932A
:104E12007A938A939A93AA93BA93EA93FA93EFB7FF
:104E2200EA930E948E3F0E944D26E0915402E6953D
:104E3200E695E6950E2FE3B3E470E0682E2FBA9262
:104E42000E94C40810E01017C0F4E12FF0E0EF5602
:104E5200F94F3081E0918606E03021F0E32FE095B2
:104E6200E8BB01C038BBE12FEE0FEE0FEE0FE22BD5
:104E7200E5BBAF98AF9A1F5FE6CFBA920E94BA081D
:104E8200B394E0915302EB1509F4BB240E9441262E
:104E92000E94953F2496E991EFBFF991E991B9916A
:104EA200A9919991899179916991F99019900990B3
:104EB20018956A937A93EA93FA93EFB7EA930E946A
:104EC200CB3AEF5FFF4F6F4F7F4FE0934F02F0936C
:104ED20050026093510270935202E991EFBFF9912F
:104EE200E991799169911895E981E13021F4E8819C
:104EF200EA9302D270C0E23021F4E881EA931ED232
:104F02006AC0E13121F4E881EA9377D264C0E232E7
:104F120021F4E881EA93D4D45EC0E23A21F4E88134
:104F2200EA9306D358C0E13B21F4E881EA9358D3CF
:104F320052C0E23B21F4E881EA93CAD34CC0E43B7D
:104F420021F4E881EA934ED446C0E83B21F4E8819B
:104F5200EA9335D440C0E13C21F4E881EA9345D498
:104F62003AC0E43C21F4E881EA935DD434C0E83CE1
:104F720021F4E881EA936BD42EC0E13D21F4E8816B
:104F8200EA9379D428C0E23D21F4E881EA9385D4FA
:104F920022C0E23E21F4E881EA93C4D41CC0E13F7E
:104FA20019F40E94210217C0E43F21F4E881EA9338
:104FB20012D511C0E83F21F4E881EA933ED50BC037
:104FC200E93F21F4E881EA936DD505C0EA3F19F47F
:104FD200E881EA938DD522960895AA93EA93FA93EB
:104FE200EFB7EA931A930A931BB10CB1E091FA0757
:104FF200F0E0ED58F84F0083A091FA07AF5FA0935D
:10500200FA07A73819F4E0E0E093FA07A091FC0749
:10501200AF5FA093FC07A73829F4E0E0E093FC0718
:10502200689425F809911991E991EFBFF991E991F5
:10503200A99118951A93E091FC07E030E1F3E09111
:10504200FB07F0E0ED58F84F1081A091FB07AF5F2E
:10505200A093FB07A73819F4E0E0E093FB07F8946C
:10506200E091FC07E150E093FC077894E12F19915D
:105072000895A091FC07E0E00E941F3D08950E9460
:105082003A28E03019F00E941B28F9CF08952C9796
:1050920084E0A4E0B0E0EEE4F1E00E949A3F1A93CB
:1050A2000A93DF9AECE2F1E00E94283BDF980E942B
:1050B2001B281E2F1D3E19F00E94402814C10E9479
:1050C2003A28E03009F40FC10E941B281E2F1B3C16
:1050D20009F009C10E943A28E03009F404C10E9493
:1050E2001B280E2FEDEEEA930E94702EEBECEA9352
:1050F2000E94702E0A930E94702EE3E3EA930E94AC
:10510200702EE0E3EA930E94702EE4E6F0E00E9443
:10511200283B0E943A28E03009F4E5C00E941B288F
:105122001E2F133309F0DFC00E943A28E03009F441
:10513200DAC00E941B281E2F103309F0D4C0E4E607
:10514200F0E00E94283B0A930E94702EAA240A9340
:105152000A930E947527013111F0023229F4E3E02B
:10516200F0E060E070E004C0E2E0F0E060E070E0F7
:10517200EA87FB876C877D87013111F40E942C3B03
:10518200E89426F827F8DF9A25F80E94363BEDEFDF
:10519200F7E00E94C2310E94CB3A0E94D3310E94B2
:1051A2003A28E03069F4EDEFF7E00E94A337DF011F
:1051B200CB01EA85FB856C857D850E94873F08F0DF
:1051C20019C00E94393B38F0CF9B02C0DF9801C062
:1051D200DF9A0E94363B0E94DD310E9462380E94B3
:1051E200B13CA839EAE3BE07E0E08E07E0E09E07A3
:1051F20008F4D5CF0E943A28E030D1F00E941B2853
:105202001E2F0A931A930E9475270E94393B38F089
:10521200CF9B02C0DF9801C0DF9A0E94363BEDEFC0
:10522200F7E00E94C2310E94CB3A0E94D331B7CF3D
:10523200023211F40E944902013141F4A0ECB0E0C3
:105242000E94D13DE03011F026FC01C009C0DF9A76
:105252000E94463BE0E0F8E0FA93EA930E94680479
:10526200013111F00333F1F4A4E8B0E00E94CD3D26
:10527200DF010E947E3FA0F4A6E8B0E00E94CD3D8F
:105282000F01A4E8B0E00E94CD3DE015F10540F029
:10529200A6E8B0E00E94CD3D31960E94DD3D3197F7
:1052A2000E94B005DF980E94412625FE0BC00E9495
:1052B200513BE4E0EA930E942402EEEBF1E00E940B
:1052C200553B11C026FE0FC027FE0BC00E94513B6A
:1052D200E6E0EA930E942402E4EDF1E00E94553BED
:1052E20002C00E941E02198108812E960895EFEFD6
:1052F200EA1509F0A3940895EA2DE030E1F0E130D7
:1053020021F4E881E093700716C0E23021F4E881CD
:10531200E093710710C0E33071F4E881E093720703
:10532200E0917007EA93E0917107EA93E0917207C6
:10533200EA930E945B300E9478291FC0EA2DE03078
:10534200D1F0E13021F4E881E093700714C0E2303B
:1053520021F4E881E09371070EC0E33061F4E88143
:10536200E0937207EA93E0917107EA93E091700784
:10537200EA930E9480300E947829219608950E9423
:105382007A33E2E5F1E00E949A3F1A930A9310E021
:10539200EE811E1750F5AF81B8850E94DE3A0E9459
:1053A200E731FF27662777270E94C03C0E94D3314E
:1053B20000E00830C0F4EA81E17059F00E94DD316A
:1053C2000E94F63CA0E2B3E888EB9DEE0E94C03C4E
:1053D20004C00E94DD310E94F63CEA83FB836C83A9
:1053E2007D830F5FE6CF1F5FD3CF0E94DD310E9426
:1053F2000B3D1981088129960895EF97EF972A9717
:105402001A930A93AA20A1F40E942C3BE1E0AE2E4B
:105412000E94CD370E94DC3010E0153028F47A92D9
:105422000E94702E1F5FF9CF0E944D260C94932A82
:10543200DE01A657BF4FAC917A1611F000E001C011
:1054420001E0003011F0689426F8EFE0E1BDA89584
:1054520010E0E72DEC5F1E1788F4A8950E949731A3
:10546200DE011296EA0FFB1FFF93EF930E941B28A7
:10547200AF91BF91EC931F5F0C942A2A0E941602EF
:10548200ED81FF27662777270E945C3BDF01CB0176
:10549200EC810E9405390E945C3BDF01CB01EB816C
:1054A2000E9405390E945C3BDF01CB01EA810E9428
:1054B20005390E94BA31003061F00E9403387A92B5
:1054C2000E94C029DF01CB010E94A8310E94823FC5
:1054D20009F023C00E94B205E030E9F40E943502CF
:1054E2000E94643B0E94873FA0F40E94463B7A924E
:1054F200FE013B960E94B1310E94643B0E94A73C90
:10550200E0936C07F0936D0760936E0770936F07DB
:1055120002C0689427F8E0E402C0DF9AE1E2EA936D
:105522000E94702E19810881EF96EF962D960895AC
:1055320024970E948C3FAA2019F4E1E0AE2E4CC0C1
:10554200E1E0EA1511F00C94ED2AE2E0AE2EDF9ACA
:10555200EA85E03089F400E014E020E030E0201732
:10556200310748F4D9010E94D13DEA930E94702E7E
:105572002F5F3F4FF4CF30C0EF3F71F5E8ECF0E022
:105582000E94283B0E943A28E03031F10E941B28F9
:105592005E2F503031F4E0E0EE83EF83E887E98755
:1055A20004C00E9401340E94D8310E9435020E9438
:1055B200E2310E94873F80F40E9439330E94200327
:1055C200EA930E94702E0E94EC31EF5FFF4F6F4F03
:1055D2007F4F0E94D831E9CF0E94933F2B960895C6
:1055E200EA2DE13031F4E881A4E0B0E00E94E53D2B
:1055F20014C0E23021F4E881E09370070EC0E3307A
:1056020061F4E0E0F8810E946D3BA2E0B0E00E940C
:10561200DD3D0E94DC300E9421020E94782966C290
:1056220024971A930E944034EF81EA930E94C02982
:105632000E949C33ED81AE81BF81F0E0AE0FBF1FAF
:10564200E981EC93ED81EF5FAE81BF810E94C230B0
:10565200FF93EF930E944C32AF91BF91EC93ED8197
:10566200EE5FAE81BF81F0E0AE0FBF1F0E948E31B0
:105672000E94FB3CEC93ED81ED5FAE81BF810E9405
:10568200C230FF93EF930E945A32AF91BF91EC93D5
:105692000E94743B10E0ED81EC5F1E1748F4AE816E
:1056A200BF810E94DE3AEA930E94702E1F5FF3CF01
:1056B200E8ECF0E00E94283B0E943A28E03029F012
:1056C2000E941B28E03409F0E3CF18812896089540
:1056D200A3971A930A93EA2DE03019F4E1E0AE2E73
:1056E2006AC0E13011F00C94DC2BE2E0AE2EADA1E9
:1056F200AF3F09F060C0E3E3EA83E0E3EB830E949B
:10570200E230EC830E94E7308F01DE0115960C93A4
:105712001E83A0ECB0E00E94D13DEF83E0E2E88777
:10572200E0E6E987FE013A96A0915302A083FE01CA
:105732003B96A0915402A083AFEBB0E00E94D13D12
:10574200EC87FE013D96A0918606A083FE013E965F
:10575200A0918706A083E0E0EF87E88BE98BEA8BD4
:105762000E940532EB8B0E940532EF2FF0E0EC8BAA
:105772000E946B38ED8BE0E0EE8BEF8BAEEBB0E08E
:105782000E94D13DE88FE0E2E98FE0E6EA8FE5E0B2
:10579200EB8FE0E8EC8FEAE0ED8FECE0EE8FEFEFDD
:1057A200EF8FE1E3E8A3FE013296FA93EA93EFE189
:1057B200EA930E94112B19810881A6960895EA2D79
:1057C200E03011F4E1E00CC0E13059F4E881AFEBD4
:1057D200B0E00E94E53D0E944D260E944126E2E093
:1057E200AE2E84C10E94782981C11A930A93E1E006
:1057F200EA1521F4EA81E09370070FC0E2E0EA15AE
:1058020061F40A811127F02FE0E00E946D3B8F01C5
:10581200F801A8E8B0E00E94DD3D0E9478291981D4
:10582200088123960895E1E0EA1571F4A881A03079
:1058320011F0AF3F11F4E88101C0EFEFA5EBB0E04A
:105842000E94E53D0E946C080E9478294FC1E1E068
:10585200EA1571F4A881A03011F0AF3F11F4E8818C
:1058620001C0E0E0A4EBB0E00E94E53D0E946C08BC
:105872000E9478293BC1E1E0EA1561F4A881A030D9
:1058820011F0AF3F11F4E88101C0EFEFA0ECB0E0FE
:105892000E94E53D0E94782929C1E1E0EA1569F4F8
:1058A200A881A73950F4E881A5E0B0E00E94E53D67
:1058B200E3BD0E94773B0E94803B0E94782916C17B
:1058C200EA2DE03019F4E1E0AE2E2BC0E13039F4DC
:1058D200E881F0E00E948F3BE2E0AE2E22C0E2308F
:1058E20069F4E0E0F881A0910008B0910108EA2B88
:1058F200FB2B0E948F3BE3E0AE2E13C0E091000829
:10590200F0910108662777270E94B33DEC81EA9364
:105912000E943A03E0910008F091010831960E943A
:105922008F3BE4C0EF97EF9726971A93EA2DE0306A
:1059320019F4E1E0AE2E4AC0E13011F00C94E72CEC
:10594200E2E0AE2EDE01AB57BF4FAC91AF3F11F09C
:1059520018813DC0DF9A10E0103840F40E94973160
:10596200DE0111960E949A311F5FF6CFFE01EF57BA
:10597200FF4F002401920192019200820E9435029F
:105982000E94943B0E94873FF8F4FE01EF57FF4FBD
:105992000190119061917081F0010E94B33D7A9261
:1059A2000E9403380E94C403E72DFF27662777274A
:1059B2000E94943B0E94A73CDE01AF57BF4FED937C
:1059C200FD936D937C93DACF0E9421021881EF96AA
:1059D200EF9628960895EA2DE03061F1E13059F40E
:1059E200A881AF3F11F4E1E001C0E0E0ABE8B0E034
:1059F2000E94E53D1FC0E23031F4E881ACE8B0E03E
:105A02000E94E53D17C0E33031F4E881ADE8B0E033
:105A12000E94E53D0FC0E43031F4E881AEE8B0E029
:105A22000E94E53D07C0E53029F4E881AFE8B0E027
:105A32000E94E53D0E94782959C02997EA2DE0305D
:105A420019F4E1E0AE2E2CC0E13051F5E2E0AE2EC9
:105A5200A985AF3F29F5ABE8B0E00E94D13DE03027
:105A620011F0EFEF01C0E0E0E883ACE8B0E00E94A3
:105A7200D13DE983ADE8B0E00E94D13DEA83AEE8D2
:105A8200B0E00E94D13DEB83AFE8B0E00E94D13D8F
:105A9200EC83FE01FA93EA93E5E0EA930E94112B6C
:105AA2002A960895EA2DE030F9F0E13031F4E881E8
:105AB200A0E9B0E00E94E53D17C0E23031F4E88190
:105AC200A1E9B0E00E94E53D0FC0E33031F4E88186
:105AD200A2E9B0E00E94E53D07C0E43029F4E88184
