:100000000C9427010C9400000C9400000C94000048
:100010000C9400000C9400000C9400000C94000060
:100020000C9400000C9423390C9400000C940000F4
:100030000C9481370C9400000C9400000C948E38C2
:100040000C9400000C9400000C94BA390C9400003D
:100050000C9400000C9400000C9400000C94000020
:100060000C9400000C9400000C9400000C94000010
:100070000C9400000C9400000C9400000C94000000
:100080000C9400000C9400000C94000000001F0071
:100090003C005B0079009800B600D500F400120126
:1000A00031014F0100001F003B005A00780097000B
:1000B000B500D400F300110130014E011E1F1E1FB8
:1000C0001F1E1F1E1F1F1C1F00000000010204082E
:1000D000102040800000FF0001BC0B0A0000000A55
:1000E0002064002340C20146607E040181200C0A86
:1000F0008088040AA0EC0423C04A0646E0060901F1
:10010000903A100909B03A190915D03A2E092BF086
:100110003A590901902F5A090DB02F67091DD02FA8
:10012000840931F02FB50901902DB6090BB02DC10E
:100130000919D02DDA092BF02D050A01902B060A9A
:100140000BB02B110A19D02B2A0A2BF02B550A01C0
:100150009043560A15B0436B0A33D0439E0A6AF0A7
:1001600043080B019046090B15B0461E0B33D046D1
:10017000510B6AF046BB0B0100000000FFFFFFFFC0
:10018000FFFFFFFF01000000000000000000FF0073
:1001900000000000FFFFFFFF00001027E8036400DD
:1001A0000A0001000010000110000100252D690067
:1001B000253032643A253032643A253032640025E5
:1001C0003034642F253032642F25303264002530DE
:1001D00032642F253032642F2530326400253034CC
:1001E000642D253032642D25303264002530326490
:1001F0002D253032642D25303264002530346400E2
:10020000555341525420427566666572206F76657B
:1002100072666C6F77004D656D6F72792044617402
:1002200061204F766572666C6F77000001000200F6
:1002300002002C0208000C0FCC000100240FD60095
:100240000100EB0F8E010200931098010000F8945A
:10025000EE27ECBBF1E0F5BFE5BFE0936C00F8E101
:10026000F1BDE1BD8DE0A2E0BB27ED938A95E9F7F2
:1002700080E090E1A0E0B1E0ED930197E9F78BBF5A
:10028000EEE2F2E085919591009761F0A591B5912C
:1002900005901590BF01F00105900D920197E1F7CF
:1002A000FB01F0CFEFEFEDBFE0E1EEBFCAEFD1E031
:1002B0000C947745A881B981E4E6F0E00E94EE4A0B
:1002C000DF01309719F0E881E37061F0FD013097AC
:1002D00041F4A881B981E0E9F1E00E94EE4A30974B
:1002E00009F002C0E1E001C0E0E022960895E6973F
:1002F00080E3A0E0B0E0ECE8F0E00E94214D0E9435
:10030000134DEFE4F0E0E8AFF9AFFE01EC5BFF4F17
:100310000190F081E02DFA93EA930E945A01E030B7
:1003200049F0FE01ED5BFF4FE081E150F0E0DE01BE
:10033000169608C0FE01ED5BFF4FE081E150F0E052
:10034000DE015E96EE0FFF1FAE0FBF1F0E94204B17
:10035000DF01FE01EE5BFF4FE081F0E0EA0FFB1FE3
:10036000EAAFFBAFFE01EC5BFF4F0190F081E02DA7
:100370003197FA93EA930E945A01E03019F0EBE0CA
:10038000F0E002C0EAE0F0E0EEABFFABE8ADF9ADC3
:10039000AAADBBADEA17FB0714F00C942F02A8AD71
:1003A000B9ADEAADFBADEA1BFB0BEAAFFBAFAAAD03
:1003B000BBADAB3BE0E0BE0704F5EFE1F0E00E942F
:1003C000F14A309751F4AAADBBADEFE1F0E00E94E5
:1003D000E94A9F010FE110E00FC0AAADBBADEFE10C
:1003E000F0E00E94E94A31969F01AAADBBADEFE172
:1003F000F0E00E94F14A8F0128C0EAADFBADEA5B54
:10040000F040EAAFFBAFAAADBBADEEE1F0E00E9479
:10041000F14A309759F4AAADBBADEEE1F0E00E948D
:10042000E94A36969F010EE110E00FC0AAADBBADC0
:10043000EEE1F0E00E94E94A37969F01AAADBBAD1C
:10044000EEE1F0E00E94F14A8F01FE01EC5BFF4F0C
:100450000190F081E02DED56F240AF0133C0EEA9DE
:10046000FFA9AAADBBADEA0FFB1FEAAFFBAFAAAD78
:10047000BBADEEE1F0E00E94F14A309759F4AAAD2D
:10048000BBADEEE1F0E00E94E94A39969F010EE132
:1004900010E00FC0AAADBBADEEE1F0E00E94E94A6A
:1004A0003A969F01AAADBBADEEE1F0E00E94F14AA1
:1004B0008F01FE01EC5BFF4F0190F081E02DEE56C5
:1004C000F240AF01DE01A05CBF4F0D90BC91A02DAA
:1004D0004D935C93F901AEADBFADEC93F801ACADBB
:1004E000BDADEC930E941A4DEF962796089566973E
:1004F0008CE0A0E0B0E0ECEBF0E00E94214D0E9427
:10050000134DECA1FDA1E359FD4FEC8BFD8BFA934C
:10051000EA930E945A01E03019F0ECE0F0E002C0EA
:10052000EBE0F0E0EA8FFB8FEC89FD893196FA93DE
:10053000EA930E945A01E03019F0E889EF5FE88BF6
:10054000ABA1A13010F0A73008F008C0EBA1F0E09B
:100550003197AFE1B0E00E94CC4A09C0EBA1F0E0D6
:100560003797AEE1B0E00E94CC4AE654FF4FDF017E
:10057000EAA1F0E0EA0FFB1FEE8BFF8BEA8DFB8D0B
:10058000AE89BF89EA17FB0774F0AA8DBB8DEFE136
:10059000F0E0EA1BFB0BAE89BF89EA0FFB1FAF013E
:1005A00023E030E03FC0AA8DBB8DEE89FF89EA1BB6
:1005B000FB0BE88FF98FE0E0EA8BEB8BEA89FB8994
:1005C000DE011696AE0FBF1FEC91A88DB98DF0E03D
:1005D000EA17FB07A4F4EA89FB89DE011696AE0F41
:1005E000BF1FEC91F0E0A88DB98DAE1BBF0BA88F9B
:1005F000B98FEA89FB893196EA8BFB8BDFCF488D77
:10060000598DAA89BB8919974CF0EA89FB893897DB
:100610009F01EC89FD8931968F0106C0EA89FB892B
:1006200034969F010C891D89A8A1B9A10D931C9333
:10063000F901AE8DBF8DEC93FA01AC8DBD8DEC93BD
:100640000E941A4DA6960895F894EFE1E1BDEFE0FF
:10065000E1BDA89578940895F894E8E1E1BDE8E05B
:10066000E1BDA89578940895F894E1B5E861E1BDFD
:10067000E0E0E1BD789408950C94000008950E9494
:100680002C03FFCF1A9311E0E981E11780F0DF9886
:10069000E4EFF1E0FA93EA930E94DA49DF9AE4EF9B
:1006A000F1E0FA93EA930E94DA491F5FEDCFDF98F9
:1006B000188122960895A4E0B0E00E94514BFF27D4
:1006C00066277727DF01CB01F201662777270E9493
:1006D000AC4A08951A9310E0163478F4E4E2E19FEE
:1006E000F001E25FFD4FAFEFBFEF8FEF9FEFA08311
:1006F000B183828393831F5FEFCF199108950E9486
:10070000154DA2E0B0E00E944D4B2F01E0E0F8E073
:10071000E415F50510F0E0E10FC0E0E0F0E2E415CB
:10072000F50510F0E0E208C0E0E0F0E8E415F505BA
:1007300010F0E0E401C0E0E87E2EA4E0B0E00E940A
:10074000514B0E2F0E946A03013010F0920102C03B
:1007500020E030E0F901AAEFB1E0662777270E9498
:100760002A4B11E0153010F5101710F4920102C059
:1007700020E030E0E4E0E19FF001E650FE4F0F01A1
:10078000E12FE150F0E00E946C4AE650FE4FDF019D
:100790000E94244BDF01CB01F901662777270E94D5
:1007A000224AD0010E942A4B1F5FDCCF0E941C4DC1
:1007B000249608951A930E948D496A920E94C14915
:1007C000EA81F070EA930E94C149E981EA930E94AC
:1007D000C1490E948D49E62DE160EA930E94C1491A
:1007E000E0E0EA930E94A6491E2F0E949C49E12F57
:1007F000188111C30E948D496A920E94C149EA8101
:10080000F070EA930E94C149E981EA930E94C149CC
:10081000E881EA930E94C1490E949C49EAE0F0E025
:10082000FA93EA930E94DA49F6C224971A93E09168
:10083000FA01F091FB016091FC017091FD01AF8123
:10084000B88589859A850E940E4D18F410E0E0EA7B
:1008500044C0E091FE01F091FF01609100027091AF
:100860000102E150F04060407040AF81B885898559
:100870009A850E940E4D18F411E0E2EA2EC0E09134
:100880000202F09103026091040270910502E150AE
:10089000F04060407040AF81B88589859A850E949C
:1008A0000E4D18F412E0E4EA18C0E0910602F0914F
:1008B00007026091080270910902E150F040604027
:1008C0007040AF81B88589859A850E940E4D18F4D5
:1008D00013E0E6EA02C014E0E8EA6E2EAD81BE81C4
:1008E0004D925C92E4E0E19FF001E650FE4FDF01A3
:1008F0000E94244BDF01CB01F201662777270E947B
:100900002C4AA983BA838B839C83A981BA818B816A
:100910009C81EF81F88569857A850E94274A188134
:100920002B9608950E94154DEC81FD816E817F818B
:100930000E94334BEDB7FEB73197FA93EA933F939A
:100940002F930E9415042F913F918F011A930A93C0
:100950000E94DA030E941C4D289608950E94154DAE
:10096000ED81FE816F8178850E94334BEDB7FEB734
:100970003197FA93EA933F932F930E9415042F9196
:100980003F918F011A930A93EE81EA930E94FA0332
:1009900034C324970E94134DEE85FF8568897989B9
:1009A0000E94334BFE013A96FA93EA930E94150493
:1009B0008F01EE81FF81E01BF10BAF01EC85FD851E
:1009C0004E175F0730F04C855D85E0E0E887E987EA
:1009D00006C0EC85FD85E41BF50BE887F9870E94CE
:1009E0008D496A920E94C149E12FF070EA930E94FA
:1009F000C1490A930E94C1490E948D49E62DE160D8
:100A0000EA930E94C14920E030E0FA0131972E17A5
:100A10003F0788F4F901AA85BB85EA0FFB1FFF9306
:100A2000EF93E1E0EA930E94A649AF91BF91EC9366
:100A30002F5F3F4FEACFF901AA85BB85EA0FFB1F65
:100A4000FF93EF93E0E0EA930E94A649AF91BF9134
:100A5000EC93A885B9850E94054D10F00C947D0596
:100A6000FA01AE85BF8588899989662777270E9414
:100A7000224A0E94334BFE013A96FA93EA930E946F
:100A800015048F010E948D496A920E94C149E12F8D
:100A9000F070EA930E94C1490A930E94C1490E94E2
:100AA0008D49E62DE160EA930E94C1492F5F3F4FD7
:100AB000EC85FD8531972E173F0788F4F901AA854B
:100AC000BB85EA0FFB1FFF93EF93E1E0EA930E94DF
:100AD000A649AF91BF91EC932F5F3F4FE9CFF9014A
:100AE000AA85BB85EA0FFB1FFF93EF93E0E0EA9333
:100AF0000E94A649AF91BF91EC930E941A4D629655
:100B000008950E94134DE985FA856B857C850E94C6
:100B1000334BEDB7FEB73197FA93EA935F934F9358
:100B20000E9415044F915F919F010E948D496A9226
:100B30000E94C149E32FF070EA930E94C1492A93B1
:100B40000E94C14900E010E0E885D801F0E0AE174E
:100B5000BF0760F4F801AE81BF81AE0FBF1FEC91FB
:100B6000EA930E94C1490F5F1F4FEECF0E949C493C
:100B7000EAE0F0E0FA93EA930E94DA490E941A4D03
:100B80002D9608959394E6E49E1608F09924E92D95
:100B900008951A93182D1634B8F5E4E2E19FF00198
:100BA000E25FFD4FDF010E94244BA981BA818B8156
:100BB0009C810E940E4D38F0E05EFF4F6F4F7F4FDB
:100BC0000E940E4D08F01EC0812EE4E2E19FF0016C
:100BD000DF01EE5EFD4FFF93EF93FD01E25FFD4FFE
:100BE000DF010E94244BA981BA818B819C810E94E4
:100BF000404B0E94274AAF91BF91AE0FBF1FEC91AF
:100C00001881AFC31F5FC7CF10E01815B8F5E4E235
:100C1000E19FF001E25FFD4FDF010E94244BA981BB
:100C2000BA818B819C810E940E4D38F0E05EFF4FAF
:100C30006F4F7F4F0E940E4D08F01EC0812EE4E2E0
:100C4000E19FF001DF01EE5EFD4FFF93EF93FD01A9
:100C5000E25FFD4FDF010E94244BA981BA818B81A5
:100C60009C810E94404B0E94274AAF91BF91AE0FDA
:100C7000BF1FEC91188175C31F5FC7CF0E94C205CB
:100C80001E2FE981FA816B817C810E94334BE0E267
:100C9000F0E0FA93EA93E4E2E19FF001EE5EFD4FAB
:100CA000FA93EA930E94C904E4E2E19FF001E25F53
:100CB000FD4FA981BA818B819C81A083B1838283FE
:100CC0009383812EE4E2E19FF001EE5EFD4FE0812F
:100CD000188147C3EF97EF9722970E94154D20E0A8
:100CE00030E010E0103850F4E12FF0E0DE0114960F
:100CF000AE0FBF1FE0E0EC931F5FF4CF0E945B03D9
:100D0000DE01AA57BF4F0D901D908D919C91D0018F
:100D10000E940E4D48F4FE01EC57FF4F0190F08108
:100D2000E02D2E173F0708F02BC0FE01EA57FF4FBA
:100D30000190119061917081F0010E94334B7A9281
:100D4000FE013996FA93EA930E948105E72DFF2769
:100D500066277727DE01AA57BF4F0D901D908D9112
:100D60009C91D0010E94224ADE01AA57BF4FED9309
:100D7000FD936D937C93E72DF0E02E0F3F1FBECFC8
:100D80000E941C4DEF96EF962C9608950E94154DEB
:100D9000EDB7FEB7FA93EA931F93EDB7FEB7FA9358
:100DA000EA930F93EDB7FEB7FA93EA933F930E944D
:100DB000CB483F910F911F91AC81BD811C93E02FD7
:100DC000AC81BD811196EC93E32FAC81BD8112966D
:100DD000EC930E941C4D26960895E091E60BA881A5
:100DE000B981EC93EC2DA881B9811196EC93ED2D8E
:100DF000A881B9811296EC9322960895E881EA932E
:100E0000EA81EA93EC81EA930E94FC48E881E0934E
:100E1000E60BC980DA80239608952B971A930A93DC
:100E2000ED85E03039F0FE013A96FA93EA930E949C
:100E3000C60606C0FE013A96FA93EA930E94ED06B2
:100E4000EF85ACE3EA9FF001DF01E889F0E0EA0F0B
:100E5000FB1F8F01EE85FF2766277727A0E1BEE005
:100E600080E090E00E94AC4ADF01CB01F8016627E8
:100E700077270E94224AEA83FB836C837D83EB857C
:100E8000ACE3EA9FF001DF01EC85F0E0EA0FFB1F25
:100E90008F01EA85FF2766277727A0E1BEE080E083
:100EA00090E00E94AC4ADF01CB01F801662777276A
:100EB0000E94224AEE83FF8368877987EA81FB815B
:100EC0006C817D81AE81BF81888599850E940E4DA0
:100ED00098F4AA81BB818C819D81E0E8F1E561E015
:100EE00070E00E94274AAE81BF81888599850E9463
:100EF000224A198108816DC6AA81BB818C819D819E
:100F0000EE81FF81688579850E94274A19810881D1
:100F100060C60E94154DEDB7FEB7FA93EA933F9372
:100F2000EDB7FEB7FA93EA930F93EDB7FEB7FA93D6
:100F3000EA931F930E941E491F910F913F91EC81EC
:100F4000E03079F4E12FF0E0E053F84FA985BA855D
:100F5000ED93FC93AF81B8850C93AD81BE813C933A
:100F600016C0E12FF0E0E053F84FFA93EA930A93AA
:100F70003A93ED85FE85FA93EA93ED85FE85FA9323
:100F8000EA93ED85FE85FA93EA930E9477010E9429
:100F90001C4D1AC50E94154DEC81E03041F4EF81E3
:100FA000F885E05DF7408F013E812D8121C0EF8102
:100FB000F885FA93EA93E885EA93E885EA93EDB732
:100FC000FEB73197FA93EA931F930F93EDB7FEB7ED
:100FD000FA93EA933F93EDB7FEB7FA93EA932F9310
:100FE0000E9477022F913F910F911F91005D174052
:100FF0002A933A930A930E9450490E941C4D2996C5
:101000000895E881E06CE7B985E38A95F1F7369AAF
:1010100021960895349BFECF349AE4B1F5B108953A
:1010200024971A930A93EE81E03061F1E0E0F0E159
:1010300060E070E0EA83FB836C837D83AA81BB81DF
:101040008C819D81A030E4E0BE07E0E08E07E0E007
:101050009E07B8F4EA81FB816C817D810E94334B4D
:10106000E0E0EA930E94AE04EA81FB816C817D811D
:10107000EF5FFF4F6F4F7F4FEA83FB836C837D836E
:10108000DDCF35C000E010E0E0E0F0E160E070E0CE
:10109000EA83FB836C837D83AA81BB818C819D81E4
:1010A000AE37E0E1BE07E0E08E07E0E09E07F0F437
:1010B000EA81FB816C817D810E94334BA6E0B0E028
:1010C000A00FB11F0E94514BEA930E94AE040F5F24
:1010D0001F4FEA81FB816C817D81EF5FFF4F6F4F76
:1010E0007F4FEA83FB836C837D83D6CF04D0198145
:1010F000088127960895A4E8B0E00E944D4BDF01D7
:101100000E94054DD0F4A6E8B0E00E944D4B0F01BF
:10111000A4E8B0E00E944D4BE015F10540F0A4E8D2
:10112000B0E00E944D4BEF3FAFEFFA0731F4E1E042
:10113000EA930E941008E1E00895E0E00895A4E831
:10114000B0E00E944D4B309711F4E0E00895A6E81E
:10115000B0E00E944D4B0F01A4E8B0E00E944D4B5F
:10116000E015F10510F4E1E00895E0E00895089538
:101170001A930A93EA81FB816C817D810E94334B33
:101180000E94154A0E94AF4B8F010F5F1F4FF8015D
:101190001981088126960895FF9229970E94134D80
:1011A00023FC08C0E2E1EA930E940108689423F856
:1011B000E0E085C0E89423F80E940A08ED87FE87E6
:1011C000EE85E27051F0ED85FE853197E095F09562
:1011D000F370EB87FC87689405C0ED85FE85EB878F
:1011E000FC87E894F0F8EB85FC85662777270E945A
:1011F000E64BAAE0B7ED83EA9BE30E946E4CEF83D7
:10120000F88769877A87AF81B88589859A85E0E014
:10121000F0E068EC72E40E946E4C0E94334B0E9436
:10122000B808EE83AE81AF3F10F0E0E0EE83F0FE51
:1012300006C0EE81F0E00E94404A9F0102C02E816C
:101240003327A8E8B0E00E944D4B2E0F3F1FA9891D
:10125000A130F1F4F9010E94814A0E94E64BA0E01E
:10126000B0E080E191E40E946E4CDF01CB01E0E050
:10127000F0E060EA70E40E94BC4CA0E0B0E080E0E6
:1012800092E40E94204C0E94AF4BAF018A0101C042
:101290008901EA89FB89FA93EA93ECEAF1E0FA938F
:1012A000EA93F8010E94814A0E94334B84E00E9435
:1012B00020482896AF85B8890D931C93E1E00E94E1
:1012C0001A4D6496FF9008952497AFE6BCE0EC8138
:1012D000F0E0AE0FBF1FEC91FF2766277727E8836A
:1012E000F9836A837B83A881B9818A819B81E8E045
:1012F0000E94544ADF01CB01EC81F0E0E351F44F4E
:10130000E081FF27662777270E94364AE883F98322
:101310006A837B8326C02497A3E7BDE0EC81F0E0DD
:10132000AE0FBF1FEC91FF2766277727E883F9836D
:101330006A837B83A881B9818A819B81E8E00E94CE
:10134000544ADF01CB01EC81F0E0EF50F34FE08134
:10135000FF27662777270E94364AE883F9836A8346
:101360007B8325960895A881B0E0A351B44FE9810D
:10137000EC93AFE6BCE0E881F0E0EA0FFB1FFF93DF
:10138000EF93A981BA818B819C81E8E00E94604A39
:10139000AF91BF91EC9315C7A881B0E0AF50B34FA8
:1013A000E981EC93A3E7BDE0E881F0E0EA0FFB1FE1
:1013B000FF93EF93A981BA818B819C81E8E00E9421
:1013C000604AAF91BF91EC93FCC66097EA89FF2712
:1013D00066277727AFEFBFEF8FEF9FEF0E94544A4A
:1013E000EC87FD876E877F87A989EFE1EA1BFF27DE
:1013F00066277727AFEFBFEF8FEF9FEF0E94604A1E
:10140000E887F9876A877B87AC85BD858E859F8550
:101410000E94314A0E94864AAB89BC898D899E8987
:101420000E94314AEC83FD836E837F83E885F985D2
:101430006A857B85AC85BD858E859F850E94314AF6
:10144000AB89BC898D899E890E94314AE883F983E2
:101450006A837B83E889A881B9818A819B81FF2780
:10146000662777270E94544AE883F9836A837B833F
:10147000E885F9856A857B85AC85BD858E859F85E8
:101480000E94314AA881B9818A819B810E94314A98
:10149000E883F9836A837B83AC81BD818E819F81E0
:1014A0000E94364A6DC06097EA89FF276627772732
:1014B000AFEFBFEF8FEF9FEF0E94544AEC87FD879D
:1014C0006E877F87A989EFE1EA1BFF2766277727C9
:1014D000AFEFBFEF8FEF9FEF0E94604AE887F98779
:1014E0006A877B87AC85BD858E859F850E94314A42
:1014F0000E94864AAB89BC898D899E890E94314AA7
:10150000EC83FD836E837F83E885F9856A857B851F
:10151000AC85BD858E859F850E94314AAB89BC898B
:101520008D899E890E94314AE883F9836A837B838F
:10153000E889A881B9818A819B81FF27662777275F
:101540000E94604AE883F9836A837B83E885F98592
:101550006A857B85AC85BD858E859F850E94314AD5
:10156000A881B9818A819B810E94314AE883F983ED
:101570006A837B83AC81BD818E819F810E94364AC4
:10158000679608956097ED89FF2766277727AFEF65
:10159000BFEF8FEF9FEF0E94544AEC87FD876E8765
:1015A0007F87AC89EFE1EA1BFF2766277727AFEF3C
:1015B000BFEF8FEF9FEF0E94604AE887F9876A8745
:1015C0007B87AC85BD858E859F850E94314AAE891B
:1015D000BF89888D998D0E94314AEC83FD836E838B
:1015E0007F83E889F9896A897B89AC81BD818E8195
:1015F0009F810E94314AEC83FD836E837F83E8855F
:10160000F9856A857B85AC85BD858E859F850E9421
:10161000314A0E94864AAE89BF89888D998D0E9481
:10162000314AE883F9836A837B83AC81BD818E81F3
:101630009F810E94364A6A9608956097E989A88931
:10164000AE1728F4EA89FB896C897D8958C0E9893D
:10165000FF2766277727AFEFBFEF8FEF9FEF0E943F
:10166000544AEC87FD876E877F87A889EFE1EA1BE4
:10167000FF2766277727AFEFBFEF8FEF9FEF0E941F
:10168000604AE887F9876A877B87EA89FB896C89E2
:101690007D890E94864A7F936F93FF93EF93E8853D
:1016A000F9856A857B85AC85BD858E859F850E9481
:1016B000314AAF91BF918F919F910E94314AEC8343
:1016C000FD836E837F83E885F9856A857B85AC859C
:1016D000BD858E859F850E94314A0E94864AAA89CF
:1016E000BB898C899D890E94314AE883F9836A838A
:1016F0007B83AC81BD818E819F810E94364A669634
:10170000089560970E94134DE88DE03029F4A98D6B
:10171000BA8D0C9131E002C0088D30E0E02FE30F6C
:10172000E1502E2FEC8DFF2766277727AFEFBFEF15
:101730008FEF9FEF0E94544AEA8BFB8B6C8B7D8B63
:10174000AB8DEFE1EA1BFF2766277727AFEFBFEFEF
:101750008FEF9FEF0E94604AEE87FF87688B798B3F
:10176000AA89BB898C899D890E94314A0E94864A38
:10177000EA87FB876C877D87A32FBB27EF89F0E083
:10178000AE1BBF0BAD010F3F08F00EEF11E00117CC
:1017900010F40C94690CEE89AD8DEA1708F499C029
:1017A000EF89F0E04E0F5F1FFA01A98DBA8DAE0FE1
:1017B000BF1FEC91FF2766277727EE83FF8368879B
:1017C0007987AF89A230F8F0AE81BF81888599858D
:1017D000E8E00E94544A7F936F93FF93EF93FA01DE
:1017E0003196A98DBA8DAE0FBF1FEC91AF91BF910D
:1017F0008F919F91FF27662777270E94364AEE83B5
:10180000FF8368877987EC8DAE81BF818885998554
:10181000FF27662777270E94544AEE83FF83688755
:101820007987AC8DA13098F00E94334BE0E0EA93C9
:10183000E9A1E150EA93E0E0F0E060E070E00E94AE
:10184000334B0E94C20AEE83FF8368877987E09159
:10185000EB0BE150AB8DAE17C8F4EE81FF816885CC
:1018600079850E94334BEF8DEF5FEA93E091EB0BAC
:10187000E150EA93E0E0F0E060E070E00E94334B7A
:101880000E94C20AEE83FF8368877987ED8DEA9311
:101890000E946409EA8BFB8B6C8B7D8BAA85BB85D0
:1018A0008C859D850E94314AAE81BF81888599854E
:1018B0000E94364AEA8BFB8B6C8B7D8B0E94334BEC
:1018C000E9A1EA930E94B309ED8DEF5FED8F1F5FF1
:1018D0005ECF0E941A4D6E960895E981E83071F44A
:1018E000EF81EA93EF81EA93EF81EA93EE81FF8142
:1018F000FA93EA93EF81EA93E1E00FC0E03191F4CB
:10190000EF81EA93EF81EA93EF81EA93EE81FF8121
:10191000FA93EA93EF81EA93E2E0EA93EF81EA93A4
:101920000E94810B08C4E2971A9310E0123390F4DE
:10193000E12FF0E0DE011196EA0FFB1F0F01AEA9C7
:10194000BFA9EE27A10FBE1F0E94514BD001EC93FF
:101950001F5FECCFEAADEA93EAADEA93EAADEA9312
:10196000FE013496FA93EA93EAADEA93EAADEA937C
:10197000EAADEA930E946D0C1881EB9608952497C6
:1019800084E0A0E0B0E0E8ECF0E00E94214D1A9382
:1019900011E0EF81E117B8F0EA85EA93EA85EA936E
:1019A000EA85EA93FE013496FA93EA93E1E0EA933A
:1019B000EC85EA93EC85EA930E946D0CEA85EF5F73
:1019C000EA871F5FE6CF18812B9608951A93198135
:1019D000A0910A0FB0910B0FEE27A10FBE1FEC9143
:1019E000E8BB183018F4939A939804C0103110F49F
:1019F000949A9498188190C2229781E0A0E0B0E078
:101A0000E4EDF0E00E94214D0E94134D38853830FE
:101A100010F4032F0FC0303118F4E32FE85009C041
:101A2000383118F4E32FE05104C0303218F4E32FBA
:101A3000E8510E2FE02FF0E0E45FF04F1081E32F2C
:101A4000E695E695E6955E2F40E0E091EC0B4E17AB
:101A5000A8F5E42FE95FEF8320E03F81431798F476
:101A6000220FA2E85A9FF001E351F44FDF01EE2765
:101A7000A30FBE1FEC91E123AE2FE02F0E944C4A32
:101A80002E2B3150EBCF220FA2E85A9FF001E351E9
:101A9000F44FDF01EE27A40FBE1FEC91E123AE2F20
:101AA000E02F0E944C4A2E2BEE81F0E0EC5EF04FCE
:101AB0002083EE81EF5FEE83485FC7CF0E941A4D0F
:101AC000A5C2ABEAB0E00E94514BE093240FACEA10
:101AD000B0E00E94514BE093250FE03019F0EAECA2
:101AE000FEE002C0EAEEFEE0E0930A0FF0930B0F77
:101AF00008951A9310E0A1E0B0E00E94514B1E1728
:101B000058F4E0E0F0E060E070E00E94334B1A939C
:101B10000E94B3091F5FEFCF1881FEC11A9310E036
:101B2000E091EC0B1E1758F4E0E0F0E060E070E0AC
:101B30000E94334B1A930E94CC091F5FF1CF82C2DF
:101B40002C971A93EF85FF2766277727AFEFBFEF14
:101B50008FEF9FEF0E94544AE987FA876B877C8753
:101B6000AD85EFE1EA1BFF2766277727AFEFBFEFD1
:101B70008FEF9FEF0E94604AED83FE836F8378872B
:101B8000A985BA858B859C850E94314A0E94864A28
:101B9000E983FA836B837C831889EE85E117C0F0B3
:101BA0001A930E946409E987FA876B877C87A98169
:101BB000BA818B819C810E94314AE987FA876B87C1
:101BC0007C870E94334B1A930E94B3091F5FE5CFB5
:101BD000188161960895E881EA93EA81EA93EC819D
:101BE000EA93EE81EA930E94A00D73C060971A9366
:101BF000EB89FF2766277727AFEFBFEF8FEF9FEFC8
:101C00000E94544AED87FE876F87788BA989EFE1A0
:101C1000EA1BFF2766277727AFEFBFEF8FEF9FEF16
:101C20000E94604AE987FA876B877C87AD85BE850D
:101C30008F8598890E94314A0E94864AED83FE83EF
:101C40006F837887E0E0F0E060E070E00E94334B63
:101C5000EF89EA93EE89EA930E941D0BE983FA83E8
:101C60006B837C831C89EA89E11730F11A930E9407
:101C70006409ED87FE876F87788BAD81BE818F8188
:101C800098850E94314AED87FE876F87788BE981BE
:101C9000FA816B817C81AD85BE858F8598890E9494
:101CA000364AED87FE876F87788B0E94334B1A93F5
:101CB0000E94B3091F5FD7CF188165960895E88108
:101CC000EA93EA81EA93EC81EA93EE81EA930E9437
:101CD000F60D699608950E94154DE885E83039F4AF
:101CE000EF81E03011F021E001C020E00BC0E031D5
:101CF00011F420E207C0E83111F420E403C0E0321F
:101D000009F420E6E985E795E0E0E795E22B3E2F30
:101D1000AE81A03310F0AA3308F045C020E02A308D
:101D200010F00C94D20EE4E0E29FF001E852FF4F75
:101D3000E4913E17A9F5A22FBB2769ED70E0E4E01E
:101D4000F0E00E94A44AE60FF71F0E942F4BFF937A
:101D5000EF93EE81E0538E2F9927A22FBB276BEDD7
:101D600070E0E4E0F0E00E94A44AE60FF71FE4917F
:101D7000F0E0DC010E94A44AAF91BF91EA0FFB1F83
:101D80008F01A22FBB276BED70E0E4E0F0E00E9432
:101D9000A44AE60FF71FE491AC81BD81EC9302C029
:101DA0002F5FBDCF3DC0E32FE069EE7F3E2F20E0E7
:101DB0002831B0F5A22FBB2761E071E0E5E0F0E04B
:101DC0000E94A44AE60FF71FE491AE2FEE81EA17B6
:101DD00041F4E5E0E29FF001E050FF4FE4913E174F
:101DE00009F01CC0A22FBB2762E071E0E5E0F0E043
:101DF0000E94A44AE60FF71F0E942F4B8F01A22FCB
:101E0000BB2764E071E0E5E0F0E00E94A44AE60F41
:101E1000F71FE491AC81BD81EC9302C02F5FC8CF66
:101E2000F8010E941C4D2A9608950E94154D30E03D
:101E3000E985EA93E985EA93E985EA93E985EA93F6
:101E4000EDB7FEB7FA93EA933F930E946B0E3F9172
:101E50008F01353608F034E63130C0F020E023172A
:101E6000A0F4E22FF0E0E95DF04FFF93EF93F8016B
:101E7000662777270E94334B0E94C905AF91BF9117
:101E8000EC930F5F1F4F2F5FEACF03C0E0E0E093BA
:101E9000270FEC85EA93EC85EA93EC85EA93E7E279
:101EA000FFE0FA93EA93E0E0EA93EE85EA93EB85AC
:101EB000EA930E946D0C0E941C4D2D9608950E947D
:101EC000154DEF81EA93EF81EA93EF81EA93EF8179
:101ED000EA93EDB7FEB7FA93EA933F930E946B0E35
:101EE0003F918F01F801662777270E94334B0E94AC
:101EF000C9050E941C4D1FC1E0E0F0E160E070E008
:101F00000E94334BE3E0F0E0FA93EA93EE81FF8125
:101F1000FA93EA930E94C904229608952497EE81C9
:101F2000FF2766277727A3E7B0E00E94A44AED5F6A
:101F3000FF4E6F4F7F4FE883F9836A837B830E9454
:101F4000334BE3E7F0E0FA93EA93EA85FB85FA93F3
:101F5000EA930E94C90427960895249784E0A0E09C
:101F6000B0E0E8E7F1E00E94214D1A93EF81EA9397
:101F7000EE81FF81FA93EA930E948E0F10E01430F5
:101F800018F5A9E11A9FF001AD81BE81AE0FBF1F08
:101F90005396EC91E030B1F0A9E11A9FF001AD81C8
:101FA000BE81AE0FBF1F55960E94204B6627772734
:101FB000A981BA818B819C810E94224AE983FA839C
:101FC0006B837C831F5FDBCFE981FA816B817C812E
:101FD0001881B1C0E885ABE8BFE0F0E00E946C4A30
:101FE000AE0FBF1F0E94244BAC81BD818E819F81AB
:101FF0000E94224A0E94334BEE81FF81FA93EA93BA
:10200000EE81FF81FA93EA930E94C904299608950C
:102010001A9310E01430B0F41A93E0E0F0E060E0BE
:1020200070E00E94334BECE0F0E0FA93EA93ACE00E
:102030001A9FF001E556F04FFA93EA930E94EA0FD7
:102040001F5FE8CF1991089524971A93E091040E29
:10205000FF2766277727A3E7B0E00E94A44AED5F39
:10206000FF4E6F4F7F4FE983FA836B837C8310E0D1
:10207000EF811E1798F41A93EE81FF81FA93EA9389
:102080000E94AD0FA981BA818B819C810E94224A56
:10209000E983FA836B837C831F5FEACFE981FA814E
:1020A0006B817C81E0938B0FF0938C0F60938D0F8D
:1020B00070938E0FEF81EA93EE81FF81FA93EA939A
:1020C0000E948E0F11E0143098F5E12FABE8BFE0CD
:1020D000F0E00E946C4AEA0FFB1FFF93EF93E12FA1
:1020E000E150ABE8BFE0F0E00E946C4AAE0FBF1FCA
:1020F0000E94244B7F936F93FF93EF93E12FE15066
:10210000A9E1EA9FF001AD81BE81AE0FBF1F5596D8
:102110000E94204B66277727AF91BF918F919F91A7
:102120000E94224AAF91BF910E942A4B1F5FCBCFE2
:102130000E940810188128960895E881F981FA9381
:10214000EA93ED81ACE0EA9FF001E556F04FFA9397
:10215000EA93EE81F0E0FA93EA930E943A46ACC12A
:10216000EC81ABE8BFE0F0E00E946C4AAE0FBF1F0D
:102170000E94244BE55FFF4F6F4F7F4FA881B981CD
:102180008A819B810E94224A0E94334B0E94C9058A
:1021900018C0EC81ABE8BFE0F0E00E946C4AAE0FE3
:1021A000BF1F0E94244BE45FFF4F6F4F7F4FA881FA
:1021B000B9818A819B810E94224A0E94334B0E94EE
:1021C000C905259608951A930A93E091E70F0E9496
:1021D0009F4AE093E70FEA81E13049F4ED81EA9309
:1021E000EC81FD81A9E10E94384B2CD2B6C0E230CF
:1021F00049F4ED81EA93EC81FD81A9E10E94384B1D
:10220000A3D2ABC0E33049F4ED81EA93EC81FD81C8
:10221000A9E10E94384B38D3A0C0E43049F4ED81E5
:10222000EA93EC81FD81A9E10E94384B07D495C067
:10223000E53049F4ED81EA93EC81FD81A9E10E944A
:10224000384BF7D48AC0E63049F4ED81EA93EC814B
:10225000FD81A9E10E94384BA7D57FC0E73049F442
:10226000ED81EA93EC81FD81A9E10E94384B3CD6D7
:1022700074C0E83049F4ED81EA93EC81FD81A9E175
:102280000E94384B0AD769C0E93051F4ED81EA93D6
:10229000EC81FD81A9E10E94384B0E9464195DC068
:1022A000EA3051F4ED81EA93EC81FD81A9E10E94CD
:1022B000384B0E94251A51C0EB30C1F401E010E008
:1022C0000C30E0E01E0784F4ED81EA93EC81FD819F
:1022D000A9E10E94384B0E94251BE03011F0E1E09B
:1022E0003CC00F5F1F4FECCFE0E037C0EC3051F443
:1022F000ED81EA93EC81FD81A9E10E94384B0E94B7
:10230000DF1B2BC0ED3081F4E091E70FE03051F09E
:10231000ED81EA93EC81FD81A9E10E94384B0E9496
:10232000DF1C1BC0E0E019C0EE3051F4ED81EA93F0
:10233000EC81FD81A9E10E94384B0E94AD1D0DC0CA
:10234000EF3051F4ED81EA93EC81FD81A9E10E9427
:10235000384B0E94291F01C0E1E0198108812696AF
:102360000895E881E13049F4EB81EA93EA81FB8149
:10237000A9E10E94384B5BD19FC0E23049F4EB8168
:10238000EA93EA81FB81A9E10E94384BD2D194C043
:10239000E33049F4EB81EA93EA81FB81A9E10E94F1
:1023A000384B4CD289C0E43049F4EB81EA93EA819E
:1023B000FB81A9E10E94384B1CD37EC0E53049F473
:1023C000EB81EA93EA81FB81A9E10E94384B0BD4AF
:1023D00073C0E63049F4EB81EA93EA81FB81A9E11D
:1023E0000E94384BBAD468C0E73049F4EB81EA93D5
:1023F000EA81FB81A9E10E94384B6BD55DC0E830D2
:1024000049F4EB81EA93EA81FB81A9E10E94384B10
:1024100031D652C0E93049F4EB81EA93EA81FB817D
:10242000A9E10E94384B33D747C0EA3051F4EB8121
:10243000EA93EA81FB81A9E10E94384B0E94121ABB
:102440003BC0EB3051F4EB81EA93EA81FB81A9E1D7
:102450000E94384B0E94121B2FC0EC3051F4EB81CC
:10246000EA93EA81FB81A9E10E94384B0E94D41BC8
:1024700023C0ED3051F4EB81EA93EA81FB81A9E1BD
:102480000E94384B0E94D41C17C0EE3051F4EB81EF
:10249000EA93EA81FB81A9E10E94384B0E94881DE2
:1024A0000BC0EF3049F4EB81EA93EA81FB81A9E1AB
:1024B0000E94384B0E94591E249608952C97ED8552
:1024C000FF2766277727AFEFBFEF8FEF9FEF0E94C1
:1024D000544AE887F9876A877B87AC85EFE1EA1B76
:1024E000FF2766277727AFEFBFEF8FEF9FEF0E94A1
:1024F000604AEC83FD836E837F83A885B9858A85D6
:102500009B850E94314AE883F9836A837B83EE8549
:10251000EA930E948B09E887F9876A877B87A881FD
:10252000B9818A819B810E94314AE883F9836A8359
:102530007B837BC02C97ED85FF2766277727AFEF3E
:10254000BFEF8FEF9FEF0E94544AE887F9876A87B1
:102550007B87AC85EFE1EA1BFF2766277727AFEF84
:10256000BFEF8FEF9FEF0E94604AEC83FD836E8385
:102570007F83A885B9858A859B850E94314AE88337
:10258000F9836A837B83EE85EA930E948B090E941C
:10259000864AE887F9876A877B87A881B9818A811B
:1025A0009B810E94314AE883F9836A837B833DC023
:1025B0002C97ED85FF2766277727AFEFBFEF8FEFCB
:1025C0009FEF0E94544AE887F9876A877B87AC852A
:1025D000EFE1EA1BFF2766277727AFEFBFEF8FEF0B
:1025E0009FEF0E94604AEC83FD836E837F83A88502
:1025F000B9858A859B850E94314A0E94864AE88374
:10260000F9836A837B83EE85EA930E946409E887F5
:10261000F9876A877B87A881B9818A819B810E941B
:10262000314AE883F9836A837B832F960895E98D85
:10263000A7E0EA9FF001E553F04FA0E0B0E0A083EF
:10264000B183B0C32897E9A1A7E0EA9FF001E55361
:10265000F04FDF010E94204BDF01E885F0E0EA0F38
:10266000FB1FEA93EA85EA93ED85EA930E945E12E6
:10267000E883F9836A837B83E9A1A7E0EA9FF001FD
:10268000E553F04FDF010E94204BDF01E885F0E0C9
:10269000EA0FFB1FEA93EA85EA93ED85EA930E942D
:1026A000D812EC83FD836E837F83E881F9816A8190
:1026B0007B81AC81BD818E819F810E94364AEC83F3
:1026C000FD836E837F830E94334BEDA1A7E0EA9FD9
:1026D000F001E553F04FDF010E94204BDF01EC8554
:1026E000F0E0EA0FFB1FEA930E94B309E9A1A7E01B
:1026F000EA9FF001E553F04FDF01ED91FD91319636
:10270000FE93EE93E9A1A7E0EA9FF001E553F04FB5
:10271000DF010E94204BDF01E885F0E0AE0FBF1F14
:10272000EA85F0E0EA17FB0714F4E1E085C0E0E099
:1027300083C0E98DA7E0EA9FF001E553F04FA0E0E8
:10274000B0E0A083B1832EC32897E9A1A7E0EA9F58
:10275000F001E553F04FDF010E94204BAA85B0E065
:102760000E94464BEA1BFB0BEA93EA85EA93ED8550
:10277000EA930E945E12E883F9836A837B83E9A16E
:10278000A7E0EA9FF001E553F04FDF010E94204BE4
:10279000AA85B0E00E94464BEA1BFB0BEA93EA8550
:1027A000EA93ED85EA930E94D812EC83FD836E8351
:1027B0007F83E881F9816A817B81AC81BD818E81D3
:1027C0009F810E94364AEC83FD836E837F830E9443
:1027D000334BEDA1A7E0EA9FF001E553F04FDF0195
:1027E0000E94204BAE85B0E00E94464BEA1BFB0BDB
:1027F000EA930E94B309E9A1A7E0EA9FF001E5533B
:10280000F04FDF01ED91FD913196FE93EE93E9A13A
:10281000A7E0EA9FF001E553F04FDF010E94204B53
:10282000AA85B0E0AE1BBF0BE885F0E0EA17FB0716
:1028300014F0E1E001C0E0E0A2960895E98DA7E080
:10284000EA9FF001E553F04FBF01AB81BB27E9815F
:10285000F0E00E94464BEA1BFB0B3196DB01ED9347
:10286000FC93A98DE7E0EA9FF001E253F04FA091BD
:10287000E70BB091E80B8091E90B9091EA0BA083F4
:10288000B183828393838EC228971A93AAA1E7E02B
:10289000EA9FF001E253F04FDF010E94244BA09128
:1028A000E70BB091E80B8091E90B9091EA0B0E9445
:1028B0002C4AA639E0E0BE07E0E08E07E0E09E0784
:1028C00010F418818FC21985EB85E11710F40C9470
:1028D000C9141A93EB85EA93EE85EA930E945E127F
:1028E000E983FA836B837C83E12FE370E230A8F401
:1028F000E981FA816B817C810E94334BEE85EA93FA
:10290000E989EA93E8A5A7E0EA9FF001E553F04FD3
:10291000E081EA930E94E50918C0E12FE370E430FA
:10292000C0F4E981FA816B817C810E94334BEE8592
:10293000EA93E989EA93E8A5A7E0EA9FF001E55365
:10294000F04FE081EA930E94530AE983FA836B8394
:102950007C831A93EB85EA93EE85EA930E94D81262
:10296000ED83FE836F837887E981FA816B817C81B7
:10297000AD81BE818F8198850E94364AED83FE83AA
:102980006F8378870E94334B1A930E94B3091F5FAD
:102990009BCFAAA1E7E0EA9FF001E253F04FA0919C
:1029A000E70BB091E80B8091E90B9091EA0BA083C3
:1029B000B18382839383EAA1A7E0EA9FF001E55304
:1029C000F04FDF01ED91FD913197FE93EE93EAA177
:1029D000A7E0EA9FF001E553F04FDF010E94204B92
:1029E000DF0110971CF4E1E01881FCC1E0E01881E0
:1029F000F9C1E98DA7E0EA9FF001E553F04FA0E0AF
:102A0000B0E0A083B183A98DE7E0EA9FF001E35332
:102A1000F04FA0E0A083A98DE7E0EA9FF001E25328
:102A2000F04FA091E70BB091E80B8091E90B9091EA
:102A3000EA0BA083B18382839383B4C12C971A934A
:102A4000AEA1E7E0EA9FF001E253F04FDF010E9400
:102A5000244BA091E70BB091E80B8091E90B90918A
:102A6000EA0B0E942C4AA532E0E0BE07E0E08E07A8
:102A7000E0E09E0710F41881D3C4AEA1E7E0EA9F1E
:102A8000F001E353F04FE081E03011F41D8503C005
:102A9000ED85EF5F1E2FEEA1A7E0EA9FF001E55361
:102AA000F04FDF010E94204BDF01EE85F0E0EA0FDE
:102AB000FB1F0E94814AAFEFBFEF8FEF9FEF0E9495
:102AC000544A0E94864AE983FA836B837C83EF85AC
:102AD000E117C8F11A93EF85EA93EA89EA930E9415
:102AE0005E12E987FA876B877C87E981FA816B81BF
:102AF0007C81A985BA858B859C850E94314AED83AE
:102B0000FE836F8378871A93EF85EA93EA89EA93C5
:102B10000E94D812E987FA876B877C87ED81FE8156
:102B20006F817885A985BA858B859C850E94364AF8
:102B3000E987FA876B877C870E94334B1A930E9440
:102B4000B3091E5FC4CFAEA1E7E0EA9FF001E253F4
:102B5000F04FA091E70BB091E80B8091E90B9091B9
:102B6000EA0BA083B18382839383EEA1A7E0EA9F5F
:102B7000F001E553F04FDF01ED91FD913196FE93A9
:102B8000EE93EEA1A7E0EA9FF001E553F04F00803D
:102B90001180AE85E889EA1BEF5FD001F0E0EA170B
:102BA000FB07F4F4AEA1E7E0EA9FF001E353F04F36
:102BB000E081E03091F4E7E0EA9FF001E353F04F69
:102BC000A1E0A083EEA1A7E0EA9FF001E553F04F5A
:102BD000A0E0B0E0A083B18303C0E1E0188120C48D
:102BE000E0E018811DC4E98DA7E0EA9FF001E553FC
:102BF000F04FBF01AB81BB27E981F0E00E94464B5B
:102C0000EA1BFB0B3196DB01ED93FC93A98DE7E00A
:102C1000EA9FF001E253F04FA091E70BB091E80B6F
:102C20008091E90B9091EA0BA083B1838283938317
:102C3000B9C028971A93AAA1E7E0EA9FF001E253EE
:102C4000F04FDF010E94244BA091E70BB091E80BFD
:102C50008091E90B9091EA0B0E942C4AAB34E0E0A2
:102C6000BE07E0E08E07E0E09E0710F41881BAC0CE
:102C70001985EB85E11710F40C947D161A93EB85FA
:102C8000EA93EE85EA930E945E12E983FA836B83EE
:102C90007C830E94334BEE85EA93E989EA93E8A5A9
:102CA000A7E0EA9FF001E553F04FE081EA930E942C
:102CB000530AE983FA836B837C831A93EB85EA9347
:102CC000EE85EA930E94D812ED83FE836F837887A6
:102CD000E981FA816B817C81AD81BE818F8198858C
:102CE0000E94364AED83FE836F8378870E94334BC0
:102CF0001A930E94B3091F5FBCCFAAA1E7E0EA9F25
:102D0000F001E253F04FA091E70BB091E80B8091F6
:102D1000E90B9091EA0BA083B18382839383EAA1AC
:102D2000A7E0EA9FF001E553F04FDF01ED91FD913F
:102D30003197FE93EE93EAA1A7E0EA9FF001E553F5
:102D4000F04FDF010E94204BDF0110971CF4E1E0FF
:102D5000188148C0E0E0188145C0E98DA7E0EA9FEE
:102D6000F001E553F04FBF01AB81BB27E981F0E0F3
:102D70000E94464BEA1BFB0B3196DB01ED93FC9363
:102D8000A98DE7E0EA9FF001E253F04FA091E70B35
:102D9000B091E80B8091E90B9091EA0BA083B1838D
:102DA000828393836A96089528971A93AAA1E7E0ED
:102DB000EA9FF001E253F04FDF010E94244BA09103
:102DC000E70BB091E80B8091E90B9091EA0B0E9420
:102DD0002C4AAB34E0E0BE07E0E08E07E0E09E075F
:102DE00018F41881A39608951985EB85E11710F45E
:102DF0000C9439171A93EB85EA93EE85EA930E94B7
:102E00005E12E983FA836B837C830E94334BEE85E9
:102E1000EA93E989EA93E8A5A7E0EA9FF001E55380
:102E2000F04FE081EA930E94E509E983FA836B831E
:102E30007C831A93EB85EA93EE85EA930E94D8127D
:102E4000ED83FE836F837887E981FA816B817C81D2
:102E5000AD81BE818F8198850E94364AED83FE83C5
:102E60006F8378870E94334B1A930E94B3091F5FC8
:102E7000BCCFAAA1E7E0EA9FF001E253F04FA09196
:102E8000E70BB091E80B8091E90B9091EA0BA083DE
:102E9000B18382839383EAA1A7E0EA9FF001E5531F
:102EA000F04FDF01ED91FD913197FE93EE93EAA192
:102EB000A7E0EA9FF001E553F04FDF010E94204BAD
:102EC000DF0110971CF4E1E01881F1C6E0E0188101
:102ED000EEC6E98DA7E0EA9FF001E553F04FA0E0D0
:102EE000B0E0A083B183F7C62C970E94154DEB8903
:102EF000FF27662777270E94E64BDF01CB01E98990
:102F0000FF27662777270E94E64B0E94404B0E94CE
:102F1000194CA0E0B0E080E89FE30E94204CDF0164
:102F2000CB01E0E0F0E060E871E40E94404B0E94D9
:102F3000194CA0E0B0E080EA90EC0E946E4CDF01FA
:102F4000CB01E0E0F0E060E071E40E94BC4CA0E066
:102F5000B0E080EA90E40E94204C0E94AF4B0E2F1C
:102F6000E9A5A7E0EA9FF001E553F04FDF010E94D9
:102F7000204BAA89B0E00E94464BEA1B1E2F1A93F1
:102F8000EA89EA93ED89EA930E945E12EC87FD8755
:102F90006E877F87EC83FD836E837F830E94014D64
:102FA00011F40C941818AB89BB27E989F0E00E9452
:102FB000464BEA1BFB0B31969F0120503040C4F179
:102FC000EC81FD816E817F810E94334BED89EA9314
:102FD000E88DEA932A930E94E509E887F9876A87D2
:102FE0007B871A93EA89EA93ED89EA930E94D812C3
:102FF000EC87FD876E877F87E885F9856A857B8505
:10300000AC85BD858E859F850E94364AEC87FD87FD
:103010006E877F870E94334B1A930E94B309E02F7B
:10302000F0E0FA93EA930E94DA4921503040C5CF8C
:10303000E9A5A7E0EA9FF001E553F04FDF01ED912C
:10304000FD913196FE93EE93E9A5A7E0EA9FF0018A
:10305000E553F04FDF010E94204BAA89B0E0AE1B80
:10306000BF0BE889F0E0EA17FB0714F0E1E00BC1C1
:10307000E0E009C1E98DA7E0EA9FF001E553F04FD8
:10308000A0E0B0E0A083B183A98DE7E0EA9FF00162
:10309000E353F04FA0E0A0831EC62C970E94154D6D
:1030A000EB89FF27662777270E94E64BDF01CB01DC
:1030B000E989FF27662777270E94E64B0E94404B4D
:1030C0000E94194CA0E0B0E080E89FE30E94204CF1
:1030D000DF01CB01E0E0F0E060E871E40E94404BEA
:1030E0000E94194CA0E0B0E080EA90EC0E946E4C87
:1030F000DF01CB01E0E0F0E060E071E40E94BC4C55
:10310000A0E0B0E080EA90E40E94204C0E94AF4B27
:103110000E2FE9A5A7E0EA9FF001E553F04FDF018C
:103120000E94204BAA89B0E00E94464BEA1B1E2F4A
:103130001A93EA89EA93ED89EA930E945E12EC877A
:10314000FD876E877F87EC83FD836E837F830E947C
:10315000014D11F40C940A19AB89BB27E989F0E001
:103160000E94464BEA1BFB0B31969F0120503040DA
:1031700014F40C940A19A9A5E7E0EA9FF001E353BF
:10318000F04FE081E03071F4EC81FD816E817F8150
:103190000E94334BED89EA93E88DEA932A930E94CB
:1031A000E5090DC0EC81FD816E817F810E94334B6A
:1031B000ED89EA93E88DEA932A930E94530AE887FF
:1031C000F9876A877B871A93EA89EA93ED89EA93FC
:1031D0000E94D812EC87FD876E877F87E885F98586
:1031E0006A857B85AC85BD858E859F850E94364A24
:1031F000EC87FD876E877F870E94334B1A930E946E
:10320000B309E02FF0E0FA93EA930E94DA492150E3
:103210003040ACCFE9A5A7E0EA9FF001E553F04FBD
:10322000DF01ED91FD913196FE93EE93A9A5E7E0C4
:10323000EA9FF001E353F04FE081E03039F4E7E03A
:10324000EA9FF001E353F04FA1E007C0A9A5E7E032
:10325000EA9FF001E353F04FA0E0A083E9A5A7E0C7
:10326000EA9FF001E553F04FDF010E94204BAA894D
:10327000B0E0AE1BBF0BE889F0E0EA17FB0714F0E3
:10328000E1E001C0E0E00E941C4DAA960895E98D9E
:10329000A7E0EA9FF001E553F04FA0E0B0E0A08383
:1032A000B183A98DE7E0EA9FF001E253F04FA091CE
:1032B000E70BB091E80B8091E90B9091EA0BA083AA
:1032C000B1838283938307C52C971A93AEA1E7E05D
:1032D000EA9FF001E253F04FDF010E94244BA091DE
:1032E000E70BB091E80B8091E90B9091EA0B0E94FB
:1032F0002C4AAB34E0E0BE07E0E08E07E0E09E073A
:1033000010F418818DC01D85EEA1A7E0EA9FF001A1
:10331000E553F04FDF010E94204BDF01EE85F0E026
:10332000EA0FFB1F0E94814AAFEFBFEF8FEF9FEFC5
:103330000E94544A0E94864AE983FA836B837C8305
:10334000EF85E117C8F11A93EF85EA93EA89EA93CA
:103350000E945E12E987FA876B877C87E981FA8190
:103360006B817C81A985BA858B859C850E94314AB9
:10337000ED83FE836F8378871A93EF85EA93EA895A
:10338000EA930E94D812E987FA876B877C87ED81E0
:10339000FE816F817885A985BA858B859C850E9481
:1033A000364AE987FA876B877C870E94334B1A93EA
:1033B0000E94B3091F5FC4CFAEA1E7E0EA9FF0010E
:1033C000E253F04FA091E70BB091E80B8091E90B2D
:1033D0009091EA0BA083B18382839383EEA1A7E04F
:1033E000EA9FF001E553F04FDF01ED91FD91319639
:1033F000FE93EE93EEA1A7E0EA9FF001E553F04FB4
:1034000000801180AE85E889EA1BEF5FD001F0E013
:10341000AE17BF071CF0E1E0188102C0E0E01881A0
:10342000A7960895E98DA7E0EA9FF001E553F04FD4
:10343000A0E0B0E0A083B183A98DE7E0EA9FF001AE
:10344000E353F04FA0E0A08346C428971A930A9351
:10345000ABA1E7E0EA9FF001E353F04FE081E030F9
:1034600011F00C94E71AAA85EC85EA1BEF5FE6954C
:10347000EA0F6E2FEBA1A7E0EA9FF001E553F04FB2
:10348000DF010E94204BA62FB0E00E94464BEA1BB2
:103490000E2F1A85EBA1A7E0EA9FF001E553F04F4C
:1034A000DF010E94204BAA85B0E0EA0FFB1FA12F8D
:1034B000B0E0EA17FB0764F10A93EC85EA93EF8525
:1034C000EA930E945E12EA83FB836C837D831A93E6
:1034D000EC85EA93EF85EA930E94D812EE83FF838E
:1034E00068877987EA81FB816C817D81AE81BF81AC
:1034F000888599850E94364AEE83FF83688779879D
:103500000E94334B1A930E94B3090F5F1F5FC2CF13
:10351000AA85EC85EA1BEF5FE695EA0F6E2FEBA11B
:10352000A7E0EA9FF001E553F04FDF010E94204B36
:10353000E60F0E2F1C85EBA1A7E0EA9FF001E553F3
:10354000F04FDF010E94204BAC85B0E00E94464B5B
:10355000EA1BFB0BA12FB0E0AE17BF0764F10A9383
:10356000EC85EA93EF85EA930E945E12EA83FB837F
:103570006C837D831A93EC85EA93EF85EA930E942E
:10358000D812EE83FF8368877987EA81FB816C819B
:103590007D81AE81BF81888599850E94364AEE8300
:1035A000FF83688779870E94334B1A930E94B3097F
:1035B00001501150C0CFEBA1A7E0EA9FF001E55305
:1035C000F04FDF01ED91FD913196FE93EE93EBA16B
:1035D000A7E0EA9FF001E553F04F00801180AA8533
:1035E000EC85EA1BE695D001F0E0EA17FB07C4F48E
:1035F000ABA1E7E0EA9FF001ADECBFE0AE0FBF1F6B
:10360000AC91A33058F4ABA1E7E0EA9FF001E3539B
:10361000F04FDF01EC91EF5FEC9302C0E1E074C288
:10362000E0E072C2E98DA7E0EA9FF001E553F04FB8
:10363000A0E0B0E0A083B183A98DE7E0EA9FF001AC
:10364000E353F04FA881A08346C328971A930A93A7
:10365000EBA1A7E0EA9FF001E553F04FDF010E94E4
:10366000204BAC85B0E00E94464BEA1B0E2F0A931C
:10367000EC85EA93EF85EA930E945E12EA83FB836E
:103680006C837D830E94014D39F4ABA1E7E0EA9F92
:10369000F001E353F04F0083ABA1E7E0EA9FF001B4
:1036A000E353F04FA081EA85EA17D8F4ABA1E7E035
:1036B000EA9FF001E353F04FE081E1501E2F1A938F
:1036C000EC85EA93EF85EA930E94D812EE83FF839C
:1036D00068877987011729F00E94334B1A930E945B
:1036E000B309ABA1E7E0EA9FF001E353F04F10818B
:1036F0001A93EC85EA93EF85EA930E94D812EE8341
:10370000FF8368877987EA81FB816C817D81AE8147
:10371000BF81888599850E94364AEE83FF8368873A
:1037200079870E94334B1A930E94B309ABA1E7E05B
:10373000EA9FF001E353F04FDF01EC91EF5FEC9370
:10374000ABA1E7E0EA9FF001ADECBFE0AE0FBF1F19
:10375000AC910A17A0F4ABA1E7E0EA9FF001E353B4
:10376000F04FAA85A083EBA1A7E0EA9FF001E55303
:10377000F04FDF01ED91FD913196FE93EE93EBA1B9
:10378000A7E0EA9FF001E553F04F00801180AA8581
:10379000EC85EA1BEF5FD001F0E0AE17BF0714F035
:1037A000E1E0B2C1E0E0B0C1E98DA7E0EA9FF0013D
:1037B000E553F04FA0E0B0E0A083B1838CC22C971A
:1037C0001A930A93EFA1A7E0EA9FF001E553F04FA7
:1037D000DF010E94204BAE85EA0F1E2FEFA1A7E06C
:1037E000EA9FF001E553F04FDF010E94204BA889CA
:1037F000B0E00E94464BEA1B0E2F1A93E889EA9329
:10380000EB89EA930E945E12EA87FB876C877D87CB
:10381000EE83FF83688779870A93E889EA93EB89C7
:10382000EA930E945E12EA87FB876C877D87EA83B2
:10383000FB836C837D83EE81FF81688579850E949F
:10384000334BEB89EA93AC89EE89EA1BE695AE89A6
:10385000AE1BAA93E0E0F0E060E070E00E94334B22
:103860000E94C20AAE81BF81888599850E94314A33
:10387000EE83FF8368877987EA81FB816C817D8194
:103880000E94334BAB89ED89EA1BE695AD890E9416
:10389000494BEA1BEF5FEA93EE89EA93E0E0F0E040
:1038A00060E070E00E94334B0E94C20AAA81BB8193
:1038B0008C819D810E94314AEA83FB836C837D83E6
:1038C0001A93E889EA93EB89EA930E94D812EA876F
:1038D000FB876C877D87EE81FF8168857985AA8566
:1038E000BB858C859D850E94364AEA87FB876C875D
:1038F0007D871A930E946409AA85BB858C859D8566
:103900000E94364A0E94334B1A930E94B3090A93CD
:10391000E889EA93EB89EA930E94D812EA87FB8749
:103920006C877D87EA81FB816C817D81AA85BB855F
:103930008C859D850E94364AEA87FB876C877D8748
:103940000A930E946409AA85BB858C859D850E9487
:10395000364A0E94334B0A930E94B309EFA1A7E0B5
:10396000EA9FF001E553F04FDF01ED91FD913196B3
:10397000FE93EE93EFA1A7E0EA9FF001E553F04F2D
:10398000DF010E94204BDF01EE85F0E0AE0FBF1F8C
:10399000E889F0E0EA17FB0714F4E1E001C0E0E099
:1039A00019810881A8960895E98DA7E0EA9FF001A2
:1039B000E553F04FA0E0B0E0A083B1838CC128971D
:1039C0001A930A930A851A85EBA1A7E0EA9FF001F2
:1039D000E553F04FDF010E94204BAA85B0E0EA0FCB
:1039E000FB1FA12FB0E0EA17FB0764F10A93EC85F7
:1039F000EA93EF85EA930E945E12EA83FB836C836D
:103A00007D831A93EC85EA93EF85EA930E94D8129E
:103A1000EE83FF8368877987EA81FB816C817D81F2
:103A2000AE81BF81888599850E94364AEE83FF83E7
:103A3000688779870E94334B1A930E94B3090F5FFE
:103A40001F5FC2CF0C851C85EBA1A7E0EA9FF001A8
:103A5000E553F04FDF010E94204BAC85B0E00E949F
:103A6000464BEA1BFB0BA12FB0E0AE17BF0764F17A
:103A70000A93EC85EA93EF85EA930E945E12EA834B
:103A8000FB836C837D831A93EC85EA93EF85EA933D
:103A90000E94D812EE83FF8368877987EA81FB81D1
:103AA0006C817D81AE81BF81888599850E94364A6F
:103AB000EE83FF83688779870E94334B1A930E94B5
:103AC000B30901501150C0CFEBA1A7E0EA9FF0016C
:103AD000E553F04FDF01ED91FD913196FE93EE93AA
:103AE000EBA1A7E0EA9FF001E553F04F00801180C1
:103AF000AA85EC85EA1BE695D001F0E0AE17BF077A
:103B000014F0E1E001C0E0E019810881A496089575
:103B1000E98DA7E0EA9FF001E553F04FA0E0B0E0A7
:103B2000A083B183A98DE7E0EA9FF001E353F04F52
:103B3000A0E0A083A98DE7E0EA9FF001E253F04FF7
:103B4000A091E70BB091E80B8091E90B9091EA0B03
:103B5000A083B18382839383BEC028971A93AAA1BE
:103B6000E7E0EA9FF001E253F04FDF010E94244BAF
:103B7000A091E70BB091E80B8091E90B9091EA0BD3
:103B80000E942C4AA639E0E0BE07E0E08E07E0E0A4
:103B90009E0718F4E0E018818AC01985EB85E117CB
:103BA00010F40C94111EAAA1E7E0EA9FF001ADEC1D
:103BB000BFE0AE0FBF1FAC91A13041F41A93EB856B
:103BC000EA93EE85EA930E949A1207C01A93EB8556
:103BD000EA93EE85EA930E945E12E983FA836B838F
:103BE0007C831A93EB85EA93EE85EA930E94D812C0
:103BF000ED83FE836F837887E981FA816B817C8115
:103C0000AD81BE818F8198850E94364AED83FE8307
:103C10006F8378870E94334B1A930E94B3091F5F0A
:103C2000BDCFAAA1E7E0EA9FF001E353F04FE081A6
:103C3000E03039F4E7E0EA9FF001E353F04FA1E010
:103C400007C0AAA1E7E0EA9FF001E353F04FA0E02C
:103C5000A083AAA1E7E0EA9FF001E253F04FA09110
:103C6000E70BB091E80B8091E90B9091EA0BA083F0
:103C7000B18382839383EAA1A7E0EA9FF001E55331
:103C8000F04FDF01ED91FD913196FE93EE93EAA1A5
:103C9000A7E0EA9FF001E553F04FDF010E94204BBF
:103CA000719719F4E1E0188102C0E0E01881A39651
:103CB0000895E98DA7E0EA9FF001E553F04FA0E0F9
:103CC000B0E0A083B183A98DE7E0EA9FF001E35360
:103CD000F04FA0E0A0836A96089528970E94154DA2
:103CE0002FA133270EA11127EC85D801F0E0AE17E4
:103CF000BF0714F40C94D31EEDA1E03041F00A93F9
:103D0000EE85EA93E989EA930E949A1207C00A9322
:103D1000EE85EA93E989EA930E945E12EC83FD83C3
:103D20006E837F832A93EE85EA93E989EA930E9462
:103D3000D812E887F9876A877B87EC81FD816E81DD
:103D40007F81A885B9858A859B850E94364AE88748
:103D5000F9876A877B870E94334B2A930E94B309B5
:103D600021503040EC85D901F0E0AE17BF07DCF000
:103D70002A93EE85EA93E989EA930E94D812E887AC
:103D8000F9876A877B870E94334B2A930E94B30985
:103D900021503040EC85D901F0E0AE17BF071CF090
:103DA00001501040A1CF0E941C4DA896089528975D
:103DB0000E94154D28A533270EA11127EC85D801A7
:103DC000F0E0AE17BF0714F40C94251FEDA1E0300E
:103DD00041F00A93EE85EA93E989EA930E949A12E8
:103DE00007C00A93EE85EA93E989EA930E945E127E
:103DF000EC83FD836E837F832A93EE85EA93E989C2
:103E0000EA930E94D812E887F9876A877B87EC815A
:103E1000FD816E817F81A885B9858A859B850E94F9
:103E2000364AE887F9876A877B870E94334B2A9353
:103E30000E94B30921503040EFA1D901F0E0EA1708
:103E4000FB071CF401501040B9CF0E941C4DA996ED
:103E500008952C97EDA1EA93ECE0EA93FE013296E7
:103E6000FA93EA930E949D10ADA1E7E0EA9FF0016A
:103E7000E353F04FE081E03081F4EDA1A7E0EA9F49
:103E8000F001E553F04FDF010E94204BAC85B0E01C
:103E9000EA0FFB1FEA93EF853EC0EE85EA93EEA1A1
:103EA000A7E0EA9FF001E553F04FDF010E94204BAD
:103EB000AF85B0E00E94464BEA1BFB0BEA93E88912
:103EC000EA93EA850E949F4AEA93FE017096A9E16F
:103ED0000E94384B0E94D71EEDA1A7E0EA9FF00197
:103EE000E553F04FDF010E94204BAE85B0E00E9409
:103EF000464BEA1BFB0BEA93EEA1A7E0EA9FF00119
:103F0000E553F04FDF010E94204BAF85B0E00E94E7
:103F1000464BEA1BFB0BEA93E9850E949F4AEA9312
:103F2000FE013F96A9E10E94384B0E946D1EEDA153
:103F3000A7E0EA9FF001E553F04FDF01ED91FD911D
:103F40003196FE93EE93ADA1E7E0EA9FF001E353D3
:103F5000F04FE081E03031F5EDA1A7E0EA9FF001FC
:103F6000E553F04FDF010E94204BDF01EC85F0E0CC
:103F7000AE0FBF1FEE85F0E0EA17FB0794F4ADA18A
:103F8000E7E0EA9FF001E353F04FA1E0A083EDA149
:103F9000A7E0EA9FF001E553F04FA0E0B0E0A08376
:103FA000B18358C0ADA1E7E0EA9FF001ADECBFE0FE
:103FB000AE0FBF1FAC91A13051F5EDA1A7E0EA9F74
:103FC000F001E553F04FDF010E94204BDF01EC854B
:103FD000F0E0AE0FBF1FEE85F0E0EA17FB07B4F488
:103FE000ADA1E7E0EA9FF001E353F04FDF01EC9170
:103FF000EF5FEC93EDA1A7E0EA9FF001E553F04FEE
:10400000DF01ED91FD913197FE93EE9323C0ADA1B9
:10401000E7E0EA9FF001E353F04FDF01EC91EF5F3F
:10402000EC93ADA1E7E0EA9FF001ADECBFE0AE0F8D
:10403000BF1FAC91A53011F4E1E00DC0EDA1A7E0E8
:10404000EA9FF001E553F04FDF01ED91FD913197CB
:10405000FE93EE93E0E0A6960895E881E13011F436
:1040600044D0F6C2E23011F475D0F2C2E33011F45C
:10407000FED0EEC2E43011F41AD1EAC2E53011F4F8
:1040800036D1E6C2E63011F4ABD1E2C2E73011F42A
:10409000EDD1DEC2E83011F433D2DAC2E1E0D8C2A9
:1040A000E881E13011F41DD01BC0E23011F44ED094
:1040B00017C0E33011F49BD013C0E43011F4F3D0F7
:1040C0000FC0E53011F40FD10BC0E63011F484D1EC
:1040D00007C0E73011F4C6D103C0E83009F40CD2B0
:1040E000B7C2E0E0E093E80F08951A9310E0E09182
:1040F000E80F1E1758F4E0E0F0E060E070E00E9486
:10410000334B1A930E94B3091F5FF1CF1091E80F50
:10411000E091EC0B1E1758F4EFEFFFEF6FEF7FEF1E
:104120000E94334B1A930E94B3091F5FF1CFE091B5
:10413000E80FEF5FE093E80FE091EC0BA091E80F40
:10414000EA1710F4E1E069C2E0E067C2E0E0E09362
:10415000E80F08951A930A93E091EC0BE1500E2FAB
:104160001127A091E80FE091EC0BEA1BD801F0E0D9
:10417000EA17FB0764F4E0E0F0E060E070E00E9422
:10418000334B0A930E94B30901501040EACF00E07C
:1041900010E0A091E80FE091EC0BEA1BD801F0E0F1
:1041A000AE17BF0764F4EFEFFFEF6FEF7FEF0E94F2
:1041B000334B0A930E94B3090F5F1F4FEACFE09180
:1041C000E80FEF5FE093E80FE091EC0BA091E80FB0
:1041D000EA1758F4E0E0F0E060E070E00E94334B52
:1041E000EA930E94B309E1E0F4C0E0E0F2C0E0E04D
:1041F000E093E80F0895249784E0A0E0B0E0ECE7B6
:10420000F1E00E94214D1A93EE81E03079F0ED81CA
:10421000E05EA091EB0BEA1BA981BA818B819C81A6
:10422000FF27662777270E94604A0AC0ED81A9818F
:10423000BA818B819C81FF27662777270E94544A89
:10424000E983FA836B837C8310E0E091EC0B1E170B
:1042500058F4E981FA816B817C810E94334B1A9377
:104260000E94B3091F5FF1CF188127960895E0E0FF
:10427000EA93E091E80FEA930E94FB20E2E3F0E08A
:10428000FA93EA930E94DA49E091E80FEF5FE09336
:10429000E80FE091EB0BA091E80FEA1710F4E1E0D2
:1042A0000895E0E00895E0E0E093E80F0895E1E08C
:1042B000EA93E091E80FEA930E94FB20E2E3F0E04A
:1042C000FA93EA930E94DA49E091E80FEF5FE093F6
:1042D000E80FE091EB0BA091E80FEA1710F4E1E092
:1042E0000895E0E00895E0E0E093E80F08951A9360
:1042F0000A93E091EC0BE6951E2F00E0E091E80FA9
:104300000E1710F5E0E0F0E060E070E00E94334B43
:10431000A12FBB27E02FF0E00E94464BEA1BFB0BCE
:10432000EA930E94B309E0E0F0E060E070E00E94F0
:10433000334BA12FBB27E02FF0E0EA0FFB1FEA93DE
:104340000E94B3090F5FDACF10E0E091EC0BE69525
:10435000A091E80FEA1B1E17C0F4EFEFFFEF6FEF1D
:104360007FEF0E94334B1A930E94B309EFEFFFEFE8
:104370006FEF7FEF0E94334BE091EC0BE11BE150BC
:10438000EA930E94B3091F5FE0CFE091E80FEF5F6F
:10439000E093E80FE091EC0BE695A091E80FEA17A7
:1043A000B8F4E0E0F0E060E070E00E94334BE091B0
:1043B000EC0BE150EA930E94B309E0E0F0E060E02A
:1043C00070E00E94334BEA930E94B309E1E001C020
:1043D000E0E0099119910895E0E0E093E80F089575
:1043E0001A9310E0E091E80F1E17C0F4E0E0F0E04F
:1043F00060E070E00E94334B1A930E94B309E0E042
:10440000F0E060E070E00E94334BE091EC0BE11BC8
:10441000E150EA930E94B3091F5FE4CF1091E80FC7
:10442000A091E80FE091EC0BEA1B1E1758F4EFEF98
:10443000FFEF6FEF7FEF0E94334B1A930E94B30997
:104440001F5FEECFE091E80FEF5FE093E80FE091A0
:10445000EC0BE695A091E80FEA1710F4E1E0DDC05F
:10446000E0E0DBC0E0E0E093E80F089524971A93C2
:10447000EFEFFFEF6FEF7FEF0E94334BE091EB0B1D
:10448000E695AE2FE091E80FAE1BAA93E091EB0BFF
:10449000E695A091E80FAE0FA150AA930E941D0BC4
:1044A000E983FA836B837C8310E0E091EC0B1E17A9
:1044B00058F4E981FA816B817C810E94334B1A9315
:1044C0000E94B3091F5FF1CFE4E6F0E0FA93EA93AC
:1044D0000E94DA49E091E80FEF5FE093E80FE09186
:1044E000EB0BE695A091E80FEA1718F4E1E01881CC
:1044F0005FC0E0E018815CC0E0E0E093E80F089561
:10450000249784E0A0E0B0E0E0E8F1E00E94214DD3
:104510001A93A091E80FA13020F1E981FA816B8113
:104520007C810E94334BE0E0EA93E091E80FE15098
:10453000EA930E941D0BE983FA836B837C830E94BC
:10454000334BA091E80FE091EB0BEA1BEA93E0916B
:10455000EB0BE150EA930E941D0BE983FA836B8316
:104560007C8310E0E091EC0B1E1758F4E981FA818E
:104570006B817C810E94334B1A930E94B3091F5FA9
:10458000F1CFE4E6F0E0FA93EA930E94DA49E09191
:10459000E80FEF5FE093E80FE091EB0BE695A09159
:1045A000E80FEA1718F4E1E0188102C0E0E0188192
:1045B00025960895E5EFFDE0FA93EA930E94ED0653
:1045C0000895E5EFFDE0A3E00E94384BE0E0EA93B8
:1045D0000E940D070895E881A3E0EA9FF001E850EA
:1045E000F24FFA93EA930E94ED0632C01A93E8EF75
:1045F000FDE0FA93EA930E94ED0611E0143068F4AE
:10460000E3E0E19FF001E850F24FDF01E8EFFDE069
:1046100083E00E94764B1F5FF1CF19910895E881E6
:10462000A3E0EA9FF001E850F24FA3E00E94384B6C
:10463000E0E0EA930E940D070BC0A881A13410F4BA
:10464000EAE006C0A881A13810F4E4E101C0EEE17F
:10465000219608951A93EA81EA93E6E0FEE0FA9340
:10466000EA930E942410EA81E093050EEA93E6E0C3
:10467000FEE0FA93EA930E948E0F0E948E0DE1E015
:10468000EA930E94790DE1E0E093AE0EE0E0E09362
:10469000890EE0E0F0E060E070E0E093BF0EF093A0
:1046A000C00E6093C10E7093C20EA0910D0EE091EA
:1046B0000F0EEA1741F4A0910E0EE091100EEA17CA
:1046C00011F4E0E001C0E1E0E093C40EE4E0E09327
:1046D000C50E10E0143010F00C945D24E9E1E19F68
:1046E000F001CF01EB5EF14FBF01A081E091EC0B37
:1046F000AE1790F5F001E95EF14FA081E091EC0B6F
:10470000AE1750F5FB016081FC01E95EF14FE081DD
:10471000E61710F1E9E1E19FF001EA5EF14FA081B7
:10472000E091EB0BAE17C0F4E9E1E19FF001E85E28
:10473000F14FA081E091EB0BAE1770F4E9E1E19F3E
:10474000F001EA5EF14F6081E9E1E19FF001E85E8E
:10475000F14FE081E61738F4E9E1E19FF001E75E0F
:10476000F14FA0E0A083E12FF0E0E758F14FA0E087
:10477000A083AFEABEE0E12FF0E00E946C4AAE0FEA
:10478000BF1FE0E0F0E060E070E00E942A4BADE780
:10479000BEE0EE27A10FBE1FEC93A1E8BEE0EE271E
:1047A000A10FBE1FEC93A5E8BEE0EE27A10FBE1F30
:1047B000EC93E9E1E19FF001E75EF14FE081E13048
:1047C00071F4A2EABEE0EE27A10FBE1FEAEFEC9360
:1047D000A6EABEE0EE27A10FBE1FEC936CC0E2304C
:1047E000A9F4A2EABEE0EE27A10FBE1FEFEFEC9303
:1047F000A6EABEE0EE27A10FBE1FEC93AAEABEE038
:10480000EE27A10FBE1FEFEFEC9355C0E33081F40C
:10481000E3E0E19FF001E657F14FA0E0B0E0A083B4
:10482000B183E3E0E19FF001E457F14FA08343C07F
:10483000E43081F4E3E0E19FF001EA56F14FA0E0BB
:10484000B0E0A083B183E3E0E19FF001E856F14FCF
:10485000A08331C0E53079F1E630C1F4A2EABEE0D0
:10486000EE27A10FBE1FEFEFEC93A6EABEE0EE2706
:10487000A10FBE1FEFEFEC93AAEABEE0EE27A10F57
:10488000BE1FE1E0EC93E89423F815C0E73039F45B
:10489000A2EABEE0EE27A10FBE1FEC930CC0E12FF1
:1048A000F0E0E758F14FA1E0A083E091C50EE150A0
:1048B000E093C50EEF5F1F5F0DCFA0910A0EA130F0
:1048C00030F0E0910A0EEA930E94502005C0E1E02A
:1048D000E093890E0E946E370E94DA220E94F6222F
:1048E0001881239608950E94154DAC81BD81529682
:1048F0000C9130E002FD3F5F03FD3F5FE8E1E31B09
:10490000AE81AE1710F018E108C0E0E1E31BAE8104
:10491000AE1710F010E101C018E0E12F0E941C4D0D
:10492000279608956A9781E0A2E0B0E0E4E8F1E01C
:104930000E94214D0E94134DEAADF0E0E758F14F7F
:10494000E081E03059F0EDA5E03041F4FE01B19690
:10495000A9E10E94384B0E94EB0D72C5E8A1EA93D1
:10496000E8E0EA93FE017196FA93EA930E949D10A3
:10497000EAADEA930E940F23DF01CB01EA89FB89AC
:10498000662777270E940E4D30F0EAADF0E0E75839
:10499000F14FA1E0A083EDB7FEB7FA93EA930F932E
:1049A000EDB7FEB7FA93EA933F93EDB7FEB7FA93EC
:1049B000EA932F930E94CB482F913F910F91A989A1
:1049C000A13039F40D3010F00C5003C0003009F460
:1049D0000CE0E889E030F9F4FE017796FA93EA9367
:1049E000E0EBF1E0FA93EA93E02FFF2766277727C1
:1049F0000E94334BE32FFF27662777270E94334B14
:104A0000E22FFF27662777270E94334B8CE00E9416
:104A10002048609618C0FE017796FA93EA93E5EB7A
:104A2000F1E0FA93EA93E02FFF27662777270E94A9
:104A3000334BE32FFF27662777270E94334B88E00D
:104A40000E9420482C96A9A1EBA1EA1BEF5FEA8700
:104A5000AAA1ECA1EA1BEF5FE987EA93FE01B296F7
:104A6000FA93EA930E947324EE87AA85A33238F062
:104A7000A23318F4A889A03011F0E0E001C0E1E011
:104A8000EE83A2EABEE0EAADF0E0AE0FBF1FAC914C
:104A90002A17B9F0E1E0EB87AFEABEE0EAADF0E05B
:104AA0000E946C4AEA0FFB1FA091E70BB091E80B44
:104AB0008091E90B9091EA0BA083B1838283938369
:104AC00002C0E0E0EB87AE89A13011F00C94BB2569
:104AD000EB85E03019F0E1E0E8874CC0AFEABEE0DA
:104AE000EAADF0E00E946C4AAE0FBF1F0E94244B5B
:104AF000A091E70BB091E80B8091E90B9091EA0B44
:104B00000E94404B0E94274A7F936F93FF93EF933D
:104B1000A5E0B0E00E94514BF0E0A0EABFE00E94A7
:104B2000E94AAF91BF918F919F910E94814A0E9463
:104B30000E4D10F0E0E001C0E1E0E887E03049F020
:104B4000A6EABEE0EAADF0E0AE0FBF1FAC91A03028
:104B500009F001C00DC0E885E03049F4A6EABEE0E6
:104B6000EAADF0E0AE0FBF1FAC91A13009F002C07A
:104B7000E1E0EB8702C0E1E0E887E1E0EB87E030CD
:104B800011F40C94112740E050E010E0FE017796FC
:104B9000FA93EA930E944A46A12FB0E0AE17BF07EE
:104BA00068F5E12FF0E0DE015796AE0FBF1FAC9124
:104BB000AA3379F0DE015796AE0FBF1FAC91A03338
:104BC00038F0DE015796AE0FBF1FAC91AA3308F044
:104BD00013C0EF85EA93EF85EA93E885EA93E12F26
:104BE000F0E0DE015A96AE0FBF1FEC91EA930E94EF
:104BF0005F0FF0E04E0F5F1F1F5FC8CFE9A1ED8789
:104C0000EAA1EC87EC89E03031F0EA85DA01F0E0E6
:104C1000AE17BF0708F00BC0FA01AA85B0E0AE1BC3
:104C2000BF0BFD01F695E795A9A1EA0FED87ED8988
:104C3000E03021F0EE85A985EA1708F007C0AE85BF
:104C4000E985EA1BE695AAA1EA0FEC87E9A1AD8503
:104C5000EA1778F4EA93ED85EA93EEA1EA93ACA122
:104C6000E889EA1BEA93EA89EA93E8A5EA930E94B5
:104C7000BF0C10E0FE017796FA93EA930E944A4631
:104C8000A12FB0E0AE17BF0710F00C94FD26E12F66
:104C9000F0E0DE015796AE0FBF1FAC91AA3311F0C2
:104CA0000C94B926EF85EA93EF85EA93E885EA93B9
:104CB000EAE3EA930E945F0FEF83E885E03041F07A
:104CC000A6EABEE0EAADF0E0AE0FBF1FE1E007C02C
:104CD000A6EABEE0EAADF0E0AE0FBF1FE0E0EC9365
:104CE000FE017796FA93EA930E944A463397A12FE2
:104CF000B0E0EA17FB0739F5E885E030A9F0ED856B
:104D0000EA93ED85EA93EEA1EA93EA89EA93EA89C8
:104D1000EA93EB85EA93EAE3EA93EAA5F0E0FA93F3
:104D2000EA930E94150F0EC0ED85EA93ED85EA9394
:104D3000EEA1EA93EA85EA93EA89EA93E8A5EA9381
:104D40000E94BF0C14C0ED85EA93ED85EA93EEA1B5
:104D5000EA93EA89EA93EA89EA93EB85EA93EAE33C
:104D6000EA93EAA5F0E0FA93EA930E94150FEF8127
:104D70003BC0E12FF0E0DE015796AE0FBF1FAC91B4
:104D8000A03338F0DE015796AE0FBF1FAC91AA33A7
:104D900008F033C0ED85EA93ED85EA93EEA1EA933E
:104DA000EA89EA93EA89EA93EB85EA93E12FF0E056
:104DB000DE015D96AE0FBF1FEC91EA93EAA5F0E02D
:104DC000FA93EA930E94150FEF85EA93EF85EA9331
:104DD000E885EA93E12FF0E0DE015A96AE0FBF1F9F
:104DE000EC91EA930E945F0FAD85EA0FED87EBA18E
:104DF000AD85EA1710F01F5F3DCFED85ABA1AE1773
:104E000080F0EA93ED85EA93EEA1EA93A889EEA1FA
:104E1000EA1BEF5FEA93EA89EA93E8A5EA930E9426
:104E2000BF0CA2EABEE0EAADF0E0EA0FFB1F208370
:104E300007C36A970E94134DEAADF0E0E758F14FBF
:104E4000E081E03059F0EDA5E03041F4FE01B1968B
:104E5000A9E10E94384B0E94EB0DF2C2E8A1EA934F
:104E6000E7E0EA93FE017B96FA93EA930E949D1095
:104E7000EAADEA930E940F23DF01CB01EC8DFD8D9B
:104E8000662777270E940E4D30F0EAADF0E0E75834
:104E9000F14FA1E0A083EB8DE030D1F4EDB7FEB788
:104EA0003197FA93EA933F932F93EDB7FEB7FA93B6
:104EB000EA930F93EDB7FEB7FA93EA935F93E1E0BD
:104EC000EA930E9489075F910F912F913F9119C03A
:104ED000EDB7FEB73197FA93EA933F932F93EDB76F
:104EE000FEB7FA93EA930F93EDB7FEB7FA93EA93FE
:104EF0005F93E0E0EA930E9489075F910F912F9101
:104F00003F91A2EABEE0EAADF0E0AE0FBF1FAC9168
:104F10005A1749F4AAEABEE0EAADF0E0AE0FBF1FAF
:104F2000AC910A1711F0E1E001C0E0E0E987EA8DF9
:104F3000E030F1F4FE013E96FA93EA93EFEBF1E0F4
:104F4000FA93EA93F901662777270E94334BE02F03
:104F5000FF27662777270E94334BE52FFF27662719
:104F600077270E94334B8CE00E942048609623C133
:104F7000E13011F5FE013E96FA93EA93EEECF1E092
:104F8000FA93EA93D901E4E6F0E00E94EE4A66273C
:104F900077270E94334BE02FFF27662777270E9451
:104FA000334BE52FFF27662777270E94334B8CE092
:104FB0000E9420486096FFC0E230F1F4FE013E9668
:104FC000FA93EA93EDEDF1E0FA93EA93F90166279B
:104FD00077270E94334BE02FFF27662777270E9411
:104FE000334BE52FFF27662777270E94334B8CE052
:104FF0000E9420486096DFC0E33011F5FE013E9626
:10500000FA93EA93ECEEF1E0FA93EA93D901E4E63D
:10501000F0E00E94EE4A662777270E94334BE02F8C
:10502000FF27662777270E94334BE52FFF27662748
:1050300077270E94334B8CE00E9420486096BBC0CB
:10504000E43021F0E53011F00C94DB28E1E0E98751
:10505000A6EABEE0EAADF0E0AE0FBF1FEC91E03093
:1050600011F00C949028EAADEA930E940F237F93ED
:105070006F93FF93EF93AFEABEE0EAADF0E00E94DA
:105080006C4AAE0FBF1F0E94244BAF91BF918F910E
:105090009F910E942C4AA330E0E0BE07E0E08E071B
:1050A000E0E09E07D0F0AFEABEE0EAADF0E00E949B
:1050B0006C4AEA0FFB1FFF93EF93EAADEA930E945D
:1050C0000F23AF91BF910E942A4BA6EABEE0EAAD42
:1050D000F0E0AE0FBF1FE1E0EC93AA8DA43039F4ED
:1050E000FE013E96FA93EA93E4ECF1E006C0FE017D
:1050F0003E96FA93EA93E2EEF1E0FA93EA93E02F18
:10510000FF27662777270E94334BE52FFF27662767
:1051100077270E94334B88E00E9420482C964BC092
:10512000EAADEA930E940F237F936F93FF93EF936F
:10513000AFEABEE0EAADF0E00E946C4AAE0FBF1FDE
:105140000E94244BAF91BF918F919F910E942C4A56
:10515000A330E0E0BE07E0E08E07E0E09E07D0F07D
:10516000AFEABEE0EAADF0E00E946C4AEA0FFB1F36
:10517000FF93EF93EAADEA930E940F23AF91BF91A3
:105180000E942A4BA6EABEE0EAADF0E0AE0FBF1FD8
:10519000E0E0EC93FE013E96FA93EA93EBEFF1E048
:1051A000FA93EA93F901662777270E94334B84E04C
:1051B0000E9420482896A9A1EBA1EA1BEF5FE8878F
:1051C000AAA1ECA1EA1BEF5FEF83EA93FE01B2967E
:1051D000FA93EA930E9473244E2FA885A33328F4F0
:1051E000AA8DA43011F0A53019F5A885A03430F4AB
:1051F000AA8DA03011F0A23009F41AC0A885A333FB
:1052000030F4AA8DA13011F0A23009F411C0A885A4
:10521000E0E20E94904A0E2EAA8DA43021F0A53023
:1052200011F0E0E001C0E1E0E02111F4E0E001C0B4
:10523000E1E0EE83E985E03011F40C94122AE0E01D
:10524000EC87ED8710E0FE013E96FA93EA930E9408
:105250004A46A12FB0E0AE17BF07B8F5E12FF0E046
:10526000DE011E96AE0FBF1FAC91AF32B1F0DE0172
:105270001E96AE0FBF1FAC91AD3279F0DE011E96C7
:10528000AE0FBF1FAC91A03338F0DE011E96AE0FFB
:10529000BF1FAC91AA3308F016C0E98DEA934A9378
:1052A000E885EA93E12FF0E0DE015196AE0FBF1FD3
:1052B000EC91EA930E945F0FAC85BD85F0E0EA0FA8
:1052C000FB1FEC87FD871F5FBECFE9A1EB87EAA13B
:1052D000EA87EE8DE03039F0E885AC85BD85F0E0F9
:1052E000AE17BF0708F00CC0EC85FD85A885B0E0BF
:1052F000AE1BBF0BFD01F695E795A9A1EA0FEB8761
:10530000EF8DE03019F0AF814A1708F006C0EF8149
:10531000E41BE695AAA1EA0FEA87E9A1AB85EA17A3
:1053200070F4EA93EB85EA93EEA1EA93ACA1EE85E3
:10533000EA1BEA934A93E8A5EA930E94BF0C10E0A7
:10534000FE013E96FA93EA930E944A46A12FB0E0EE
:10535000AE17BF0710F00C94FF29E12FF0E0DE013B
:105360001E96AE0FBF1FAC91AF32B1F0DE011E969C
:10537000AE0FBF1FAC91AD3279F0DE011E96AE0FBD
:10538000BF1FAC91A03338F0DE011E96AE0FBF1FD9
:10539000AC91AA3308F001C001C031C0EB85EA939B
:1053A000EB85EA93EEA1EA93EC8DEA934A93EB85C1
:1053B000EA93E12FF0E0DE015496AE0FBF1FEC91AF
:1053C000EA93EAA5F0E0FA93EA930E94150FE98DBB
:1053D000EA934A93E885EA93E12FF0E0DE015196E3
:1053E000AE0FBF1FEC91EA930E945F0FAB85EA0FEF
:1053F000EB87EBA1AB85EA1710F01F5FA1CFEB8520
:10540000ABA1AE1778F0EA93EB85EA93EEA1EA93AD
:10541000AE85EEA1EA1BEF5FEA934A93E8A5EA9313
:105420000E94BF0CA2EABEE0EAADF0E0EA0FFB1F6B
:105430005083AAEABEE0EAADF0E0EA0FFB1F00836A
:105440000E941A4DEB9608952497FE01FF93EF9367
:10545000E985EA93EE81FF81688579850E94334B67
:10546000EF85F8890995AF91BF91FF2766277727C8
:105470000E942A4BAC81A23050F1FE01FF93EF93C2
:10548000A881B9818A819B81E8E00E94544A7F9378
:105490006F93FF93EF93E985EA93EE81FF8168852F
:1054A0007985EF5FFF4F6F4F7F4F0E94334BEF8542
:1054B000F8890995AF91BF918F919F91FF2766273A
:1054C00077270E94364AAF91BF910E942A4BE8810C
:1054D000F9816A817B812C960895A89787E0A0E0E6
:1054E000B0E0E6E8F1E00E94214D0E94134DFE017C
:1054F000E85BFF4FE081F0E0E758F14FE081E030FA
:1055000059F0EBADE03041F4FE01BF96A9E10E94F5
:10551000384B0E94EB0D5FC5EEA5EA93ECE0EA93F1
:10552000FE01B496FA93EA930E949D10EDA5EF83D5
:10553000E1E0EF83DE0117960C90A5EBB0E00E944E
:10554000514BE00DED87EF81AD85EA1710F4ED8545
:10555000EF83EF81E03011F4E2E0EF83ADE7BEE0EE
:10556000FE01E85BFF4FE081F0E0AE0FBF1FEC9162
:10557000E03011F00C94862BECADE03061F4ADE737
:10558000BEE0FE01E85BFF4FE081F0E0AE0FBF1F21
:10559000E1E0EC93BBC0A1E8BEE0FE01E85BFF4F99
:1055A000E081F0E0AE0FBF1FEC91E03011F40C94FD
:1055B0006B2BAFEABEE0FE01E85BFF4FE081F0E05D
:1055C0000E946C4AAE0FBF1F0E94244BA091E70BB4
:1055D000B091E80B8091E90B9091EA0B0E94404B4F
:1055E0000E94274A7F936F93FF93EF93EFADFF27BE
:1055F000662777270E94E64BADECBCEC8CEC9EE373
:105600000E946E4C0E94AF4BAF91BF918F919F91C2
:105610000E940E4DC0F4AFEABEE0FE01E85BFF4F12
:10562000E081F0E00E946C4AAE0FBF1F0E94244B45
:10563000A091E70BB091E80B8091E90B9091EA0BF8
:105640000E940E4D08F401C0C6C4ADE7BEE0FE01E5
:10565000E85BFF4FE081F0E0EA0FFB1FFF93EF9361
:10566000FE01E85BFF4FE081EA93FE01F096FA93BA
:10567000EA93EFADEA930E94E310AF91BF91EC93F0
:10568000ADE7BEE0FE01E85BFF4FE081F0E0AE0F6A
:10569000BF1FEC91E03039F0FE01E85BFF4FE08185
:1056A000EA930E94EB22AFEABEE0FE01E85BFF4F07
:1056B000E081F0E00E946C4AEA0FFB1FA091E70B2B
:1056C000B091E80B8091E90B9091EA0BA083B18334
:1056D0008283938380C4A1E8BEE0FE01E85BFF4FB4
:1056E000E081F0E0AE0FBF1FE1E0EC93FE01E85B6C
:1056F000FF4FE081EA93FE01F096FA93EA93EFAD53
:10570000EA930E94B111E1E0EE83ECA3A091C50EF3
:10571000A13051F4EDA1EA930E941D23F0E0FA9329
:10572000EA930E94DA4974C0E091AE0EE03061F471
:10573000ADE7BEE0FE01E85BFF4FE081F0E0AE0FB9
:10574000BF1FEC91E03009F463C02497E9A5FF275F
:10575000662777270E94E64BADECBCEC8CEC9EE311
:105760000E946E4C0E94AD4BE883F9836A837B8371
:10577000A881B9818A819B81AA31E0E0BE07E0E07F
:105780008E07E0E09E0710F1AFEABEE0FE01E45BA9
:10579000FF4FE081F0E00E946C4AAE0FBF1F0E94F5
:1057A000244BA091E70BB091E80B8091E90B90910D
:1057B000EA0B0E942C4AE881F9816A817B81E951D8
:1057C000F040604070400E94094DF8F4AFEABEE03E
:1057D000FE01E45BFF4FE081F0E00E946C4AAE0FF7
:1057E000BF1F0E94244BA091E70BB091E80B809162
:1057F000E90B9091EA0B0E942C4AE881F9816A81B9
:105800007B810E940E4D10F302C02496E4C32496BF
:10581000DE01A85BBF4FAC91E3E0EA9FF001E657E1
:10582000F14F40815181042E052A19F441E050E0E6
:1058300004C0EF81F0E04E0F5F1FDE01A85BBF4F99
:10584000AC91E3E0EA9FF001E657F14F40835183CA
:10585000AFA5E9A9EA1BEF5FEF87A8A9EAA9EA1BB0
:10586000EF5FEE87EBA1E03011F00C94992CEAA1E8
:10587000E030E9F0EF85AEA1BFA1F0E0AE17BF07C1
:1058800098F4EEA1FFA1AF85B0E0AE1BBF0BFD0108
:10589000F695E795AF85B0E0AE1BBF0B9D012417D1
:1058A000350708F4A90102C02F85332702C02F85D0
:1058B0003327ACA1A03079F4DE01A85BBF4FAC91D7
:1058C000E3E0EA9FF001E457F14FE081E03019F4A2
:1058D0004217530708F02CC0EF81F0E0E40FF51FEA
:1058E000E217F30710F1DE01A85BBF4FAC91E3E0D4
:1058F000EA9FF001E457F14FA1E0A083AAA1A130F3
:1059000039F4FE01E85BFF4FE081EA930E94EB224D
:10591000DE01A85BBF4FAC91E3E0EA9FF001E657E0
:10592000F14FA0E0B0E0A083B1839A0141E050E0E4
:10593000E8C0ABA1A13011F00C94812DEAA1E030B8
:1059400011F40C94352DEF85AEA1BFA1F0E0AE1798
:10595000BF0710F00C94E62CEEA1FFA1AF85B0E0DC
:10596000AE1BBF0BFD01F695E7959F01EEA1FFA1D0
:10597000AF85B0E0AE1BBF0BFD01F695E795AF8597
:10598000B0E00E94464BEA1BFB0BE417F50770F4EE
:10599000EEA1FFA1AF85B0E0AE1BBF0BFD01F695F8
:1059A000E795AF85B0E0AE1BBF0BAD01EEA1FFA147
:1059B000AF85B0E0AE1BBF0BFD01F695E795AF8557
:1059C000B0E00E94464BEA1BED8704C0EF85ED87EF
:1059D00021E030E0ACA1A03091F4DE01A85BBF4F24
:1059E000AC91E3E0EA9FF001E457F14FE081E03051
:1059F00031F4ED85DA01F0E0AE17BF0708F034C0EE
:105A0000EF81F0E0E40FF51FDF01ED85F0E0AE1768
:105A1000BF0710F1DE01A85BBF4FAC91E3E0EA9F46
:105A2000F001E457F14FA1E0A083AAA1A13039F41D
:105A3000FE01E85BFF4FE081EA930E94EB22DE016A
:105A4000A85BBF4FAC91E3E0EA9FF001E657F14F4E
:105A5000A0E0B0E0A083B183FA01AF85B0E0AE1B57
:105A6000BF0B9D0141E050E04CC021E030E0ACA113
:105A7000A03091F4DE01A85BBF4FAC91E3E0EA9F58
:105A8000F001E457F14FE081E03031F4EF85DA01C5
:105A9000F0E0AE17BF0708F034C0EF81F0E0E40F8C
:105AA000F51FDF01EF85F0E0AE17BF0710F1DE0153
:105AB000A85BBF4FAC91E3E0EA9FF001E457F14FE0
:105AC000A1E0A083AAA1A13039F4FE01E85BFF4F59
:105AD000E081EA930E94EB22DE01A85BBF4FAC910C
