:100000000C9427010C9400000C9400000C94000048
:100010000C9400000C9400000C9400000C94000060
:100020000C9400000C94553A0C9400000C940000C1
:100030000C94A9380C9400000C9400000C94B63970
:100040000C9400000C9400000C94EC3A0C9400000A
:100050000C9400000C9400000C9400000C94000020
:100060000C9400000C9400000C9400000C94000010
:100070000C9400000C9400000C9400000C94000000
:100080000C9400000C9400000C94000000001F0071
:100090003C005B0079009800B600D500F400120126
:1000A00031014F0100001F003B005A00780097000B
:1000B000B500D400F300110130014E011E1F1E1FB8
:1000C0001F1E1F1E1F1F1C1F00000000010204082E
:1000D000102040800000FF0001BC0B0A0000000A55
:1000E0002064002340C20146607E040181200C0A86
:1000F0008088040AA0EC0423C04A0646E0060901F1
:10010000903A100909B03A190915D03A2E092BF086
:100110003A590901902F5A090DB02F67091DD02FA8
:10012000840931F02FB50901902DB6090BB02DC10E
:100130000919D02DDA092BF02D050A01902B060A9A
:100140000BB02B110A19D02B2A0A2BF02B550A01C0
:100150009043560A15B0436B0A33D0439E0A6AF0A7
:1001600043080B019046090B15B0461E0B33D046D1
:10017000510B6AF046BB0B0100000000FFFFFFFFC0
:10018000FFFFFFFF01000000000000000000FF0073
:1001900000000000FFFFFFFF00001027E8036400DD
:1001A0000A0001000010000110000100252D690067
:1001B000253032643A253032643A253032640025E5
:1001C0003034642F253032642F25303264002530DE
:1001D00032642F253032642F2530326400253034CC
:1001E000642D253032642D25303264002530326490
:1001F0002D253032642D25303264002530346400E2
:10020000555341525420427566666572206F76657B
:1002100072666C6F77004D656D6F72792044617402
:1002200061204F766572666C6F77000001000200F6
:1002300002002C0208000D0FCC000100260FD60092
:100240000100EC0F8E010200941098010000F89458
:10025000EE27ECBBF1E0F5BFE5BFE0936C00F8E101
:10026000F1BDE1BD8DE0A2E0BB27ED938A95E9F7F2
:1002700080E090E1A0E0B1E0ED930197E9F78BBF5A
:10028000EEE2F2E085919591009761F0A591B5912C
:1002900005901590BF01F00105900D920197E1F7CF
:1002A000FB01F0CFEFEFEDBFE0E1EEBFCAEFD1E031
:1002B0000C94A946A881B981E4E6F0E00E942E4C96
:1002C000DF01309719F0E881E37061F0FD013097AC
:1002D00041F4A881B981E0E9F1E00E942E4C309709
:1002E00009F002C0E1E001C0E0E022960895E6973F
:1002F00080E3A0E0B0E0ECE8F0E00E94614E0E94F4
:10030000534EEFE4F0E0E8AFF9AFFE01EC5BFF4FD6
:100310000190F081E02DFA93EA930E945A01E030B7
:1003200049F0FE01ED5BFF4FE081E150F0E0DE01BE
:10033000169608C0FE01ED5BFF4FE081E150F0E052
:10034000DE015E96EE0FFF1FAE0FBF1F0E94604CD6
:10035000DF01FE01EE5BFF4FE081F0E0EA0FFB1FE3
:10036000EAAFFBAFFE01EC5BFF4F0190F081E02DA7
:100370003197FA93EA930E945A01E03019F0EBE0CA
:10038000F0E002C0EAE0F0E0EEABFFABE8ADF9ADC3
:10039000AAADBBADEA17FB0714F00C942F02A8AD71
:1003A000B9ADEAADFBADEA1BFB0BEAAFFBAFAAAD03
:1003B000BBADAB3BE0E0BE0704F5EFE1F0E00E942F
:1003C000314C309751F4AAADBBADEFE1F0E00E94A3
:1003D000294C9F010FE110E00FC0AAADBBADEFE1CA
:1003E000F0E00E94294C31969F01AAADBBADEFE130
:1003F000F0E00E94314C8F0128C0EAADFBADEA5B12
:10040000F040EAAFFBAFAAADBBADEEE1F0E00E9479
:10041000314C309759F4AAADBBADEEE1F0E00E944B
:10042000294C36969F010EE110E00FC0AAADBBAD7E
:10043000EEE1F0E00E94294C37969F01AAADBBADDA
:10044000EEE1F0E00E94314C8F01FE01EC5BFF4FCA
:100450000190F081E02DED56F240AF0133C0EEA9DE
:10046000FFA9AAADBBADEA0FFB1FEAAFFBAFAAAD78
:10047000BBADEEE1F0E00E94314C309759F4AAADEB
:10048000BBADEEE1F0E00E94294C39969F010EE1F0
:1004900010E00FC0AAADBBADEEE1F0E00E94294C28
:1004A0003A969F01AAADBBADEEE1F0E00E94314C5F
:1004B0008F01FE01EC5BFF4F0190F081E02DEE56C5
:1004C000F240AF01DE01A05CBF4F0D90BC91A02DAA
:1004D0004D935C93F901AEADBFADEC93F801ACADBB
:1004E000BDADEC930E945A4EEF96279608956697FD
:1004F0008CE0A0E0B0E0ECEBF0E00E94614E0E94E6
:10050000534EECA1FDA1E359FD4FEC8BFD8BFA930B
:10051000EA930E945A01E03019F0ECE0F0E002C0EA
:10052000EBE0F0E0EA8FFB8FEC89FD893196FA93DE
:10053000EA930E945A01E03019F0E889EF5FE88BF6
:10054000ABA1A13010F0A73008F008C0EBA1F0E09B
:100550003197AFE1B0E00E940C4C09C0EBA1F0E094
:100560003797AEE1B0E00E940C4CE654FF4FDF013C
:10057000EAA1F0E0EA0FFB1FEE8BFF8BEA8DFB8D0B
:10058000AE89BF89EA17FB0774F0AA8DBB8DEFE136
:10059000F0E0EA1BFB0BAE89BF89EA0FFB1FAF013E
:1005A00023E030E03FC0AA8DBB8DEE89FF89EA1BB6
:1005B000FB0BE88FF98FE0E0EA8BEB8BEA89FB8994
:1005C000DE011696AE0FBF1FEC91A88DB98DF0E03D
:1005D000EA17FB07A4F4EA89FB89DE011696AE0F41
:1005E000BF1FEC91F0E0A88DB98DAE1BBF0BA88F9B
:1005F000B98FEA89FB893196EA8BFB8BDFCF488D77
:10060000598DAA89BB8919974CF0EA89FB893897DB
:100610009F01EC89FD8931968F0106C0EA89FB892B
:1006200034969F010C891D89A8A1B9A10D931C9333
:10063000F901AE8DBF8DEC93FA01AC8DBD8DEC93BD
:100640000E945A4EA6960895F894EFE1E1BDEFE0BE
:10065000E1BDA89578940895F894E8E1E1BDE8E05B
:10066000E1BDA89578940895F894E1B5E861E1BDFD
:10067000E0E0E1BD789408950C94000008950E9494
:100680002C03FFCF1A9311E0E981E11780F0DF9886
:10069000E4EFF1E0FA93EA930E941A4BDF9AE4EF59
:1006A000F1E0FA93EA930E941A4B1F5FEDCFDF98B7
:1006B000188122960895A4E0B0E00E94914CFF2793
:1006C00066277727DF01CB01F201662777270E9493
:1006D000EC4B08951A9310E01B3378F4E2E2E19FAB
:1006E000F001E25FFD4FAFEFBFEF8FEF9FEFA08311
:1006F000B183828393831F5FEFCF199108950E9486
:10070000554EA2E0B0E00E948D4C2F01E0E0F8E0F1
:10071000E415F50510F0E0E10FC0E0E0F0E2E415CB
:10072000F50510F0E0E208C0E0E0F0E8E415F505BA
:1007300010F0E0E401C0E0E87E2EA4E0B0E00E940A
:10074000914C0E2F0E946A03013010F0920102C0FA
:1007500020E030E0F901AAEFB1E0662777270E9498
:100760006A4C11E0153010F5101710F4920102C018
:1007700020E030E0E4E0E19FF001E650FE4F0F01A1
:10078000E12FE150F0E00E94AC4BE650FE4FDF015C
:100790000E94644CDF01CB01F901662777270E9494
:1007A000624BD0010E946A4C1F5FDCCF0E945C4EFE
:1007B000249608951A930E94CD4A6A920E94014B92
:1007C000EA81F070EA930E94014BE981EA930E946A
:1007D000014B0E94CD4AE62DE160EA930E94014B55
:1007E000E0E0EA930E94E64A1E2F0E94DC4AE12FD5
:1007F000188111C30E94CD4A6A920E94014BEA817E
:10080000F070EA930E94014BE981EA930E94014B48
:10081000E881EA930E94014B0E94DC4AEAE0F0E0A2
:10082000FA93EA930E941A4BF6C224971A93E09126
:10083000FA01F091FB016091FC017091FD01AF8123
:10084000B88589859A850E944E4E18F410E0E0EA3A
:1008500044C0E091FE01F091FF01609100027091AF
:100860000102E150F04060407040AF81B885898559
:100870009A850E944E4E18F411E0E2EA2EC0E091F3
:100880000202F09103026091040270910502E150AE
:10089000F04060407040AF81B88589859A850E949C
:1008A0004E4E18F412E0E4EA18C0E0910602F0910E
:1008B00007026091080270910902E150F040604027
:1008C0007040AF81B88589859A850E944E4E18F494
:1008D00013E0E6EA02C014E0E8EA6E2EAD81BE81C4
:1008E0004D925C92E4E0E19FF001E650FE4FDF01A3
:1008F0000E94644CDF01CB01F201662777270E943A
:100900006C4BA983BA838B839C83A981BA818B8129
:100910009C81EF81F88569857A850E94674B1881F3
:100920002B9608950E94554EEC81FD816E817F814A
:100930000E94734CEDB7FEB73197FA93EA933F9359
:100940002F930E9415042F913F918F011A930A93C0
:100950000E94DA030E945C4E289608950E94554E2C
:10096000ED81FE816F8178850E94734CEDB7FEB7F3
:100970003197FA93EA933F932F930E9415042F9196
:100980003F918F011A930A93EE81EA930E94FA0332
:1009900033C324970E94534EEE85FF856889798979
:1009A0000E94734CFE013A96FA93EA930E94150452
:1009B0008F01EE81FF81E01BF10BAF01EC85FD851E
:1009C0004E175F0730F04C855D85E0E0E887E987EA
:1009D00006C0EC85FD85E41BF50BE887F9870E94CE
:1009E000CD4A6A920E94014BE12FF070EA930E9477
:1009F000014B0A930E94014B0E94CD4AE62DE16013
:100A0000EA930E94014B20E030E0FA0131972E1763
:100A10003F0788F4F901AA85BB85EA0FFB1FFF9306
:100A2000EF93E1E0EA930E94E64AAF91BF91EC9325
:100A30002F5F3F4FEACFF901AA85BB85EA0FFB1F65
:100A4000FF93EF93E0E0EA930E94E64AAF91BF91F3
:100A5000EC93A885B9850E94454E10F00C947D0555
:100A6000FA01AE85BF8588899989662777270E9414
:100A7000624B0E94734CFE013A96FA93EA930E94ED
:100A800015048F010E94CD4A6A920E94014BE12F0A
:100A9000F070EA930E94014B0A930E94014B0E945E
:100AA000CD4AE62DE160EA930E94014B2F5F3F4F54
:100AB000EC85FD8531972E173F0788F4F901AA854B
:100AC000BB85EA0FFB1FFF93EF93E1E0EA930E94DF
:100AD000E64AAF91BF91EC932F5F3F4FE9CFF90109
:100AE000AA85BB85EA0FFB1FFF93EF93E0E0EA9333
:100AF0000E94E64AAF91BF91EC930E945A4E6296D3
:100B000008950E94534EE985FA856B857C850E9485
:100B1000734CEDB7FEB73197FA93EA935F934F9317
:100B20000E9415044F915F919F010E94CD4A6A92E5
:100B30000E94014BE32FF070EA930E94014B2A932D
:100B40000E94014B00E010E0E885D801F0E0AE170C
:100B5000BF0760F4F801AE81BF81AE0FBF1FEC91FB
:100B6000EA930E94014B0F5F1F4FEECF0E94DC4AB9
:100B7000EAE0F0E0FA93EA930E941A4B0E945A4E80
:100B80002D9608959394EBE39E1608F09924E92D91
:100B900008951A93182D1B33B8F5E2E2E19FF00196
:100BA000E25FFD4FDF010E94644CA981BA818B8115
:100BB0009C810E944E4E38F0E25EFF4F6F4F7F4F98
:100BC0000E944E4E08F01EC0812EE2E2E19FF0012D
:100BD000DF01EE5EFD4FFF93EF93FD01E25FFD4FFE
:100BE000DF010E94644CA981BA818B819C810E94A3
:100BF000804C0E94674BAF91BF91AE0FBF1FEC912D
:100C000018819AC41F5FC7CF10E01815B8F5E2E24B
:100C1000E19FF001E25FFD4FDF010E94644CA9817A
:100C2000BA818B819C810E944E4E38F0E25EFF4F6C
:100C30006F4F7F4F0E944E4E08F01EC0812EE2E2A1
:100C4000E19FF001DF01EE5EFD4FFF93EF93FD01A9
:100C5000E25FFD4FDF010E94644CA981BA818B8164
:100C60009C810E94804C0E94674BAF91BF91AE0F58
:100C7000BF1FEC91188160C41F5FC7CF0E94C205DF
:100C80001E2FE981FA816B817C810E94734CEEE119
:100C9000F0E0FA93EA93E2E2E19FF001EE5EFD4FAD
:100CA000FA93EA930E94C904E2E2E19FF001E25F55
:100CB000FD4FA981BA818B819C81A083B1838283FE
:100CC0009383812EE2E2E19FF001EE5EFD4FE08131
:100CD000188132C4EF97EF9722970E94554E20E07B
:100CE00030E010E0103850F4E12FF0E0DE0114960F
:100CF000AE0FBF1FE0E0EC931F5FF4CF0E945B03D9
:100D0000DE01AA57BF4F0D901D908D919C91D0018F
:100D10000E944E4E48F4FE01EC57FF4F0190F081C7
:100D2000E02D2E173F0708F02BC0FE01EA57FF4FBA
:100D30000190119061917081F0010E94734C7A9240
:100D4000FE013996FA93EA930E948105E72DFF2769
:100D500066277727DE01AA57BF4F0D901D908D9112
:100D60009C91D0010E94624BDE01AA57BF4FED93C8
:100D7000FD936D937C93E72DF0E02E0F3F1FBECFC8
:100D80000E945C4EEF96EF962C9608950E94554E69
:100D9000EDB7FEB7FA93EA931F93EDB7FEB7FA9358
:100DA000EA930F93EDB7FEB7FA93EA933F930E944D
:100DB0000B4A3F910F911F91AC81BD811C93E02F95
:100DC000AC81BD811196EC93E32FAC81BD8112966D
:100DD000EC930E945C4E26960895E091E409A88168
:100DE000B981EC93EC2DA881B9811196EC93ED2D8E
:100DF000A881B9811296EC9322960895E881EA932E
:100E0000EA81EA93EC81EA930E943C4AE881E0930C
:100E1000E409C980DA80239608952B971A930A93E0
:100E2000ED85E03039F0FE013A96FA93EA930E949C
:100E3000C60606C0FE013A96FA93EA930E94ED06B2
:100E4000EF85ACE3EA9FF001DF01E889F0E0EA0F0B
:100E5000FB1F8F01EE85FF2766277727A0E1BEE005
:100E600080E090E00E94EC4BDF01CB01F8016627A7
:100E700077270E94624BEA83FB836C837D83EB853B
:100E8000ACE3EA9FF001DF01EC85F0E0EA0FFB1F25
:100E90008F01EA85FF2766277727A0E1BEE080E083
:100EA00090E00E94EC4BDF01CB01F8016627772729
:100EB0000E94624BEE83FF8368877987EA81FB811A
:100EC0006C817D81AE81BF81888599850E944E4E5F
:100ED00088F4AA81BB818C819D81E0E8F1E561E025
:100EE00070E00E94674BAE81BF81888599850E9422
:100EF000624B0AC0AA81BB818C819D81EE81FF81FA
:100F0000688579850E94674B1981088161960895EB
:100F10000E94554EEDB7FEB7FA93EA933F93EDB7B3
:100F2000FEB7FA93EA930F93EDB7FEB7FA93EA93FD
:100F30001F930E945E4A1F910F913F91EC81E03018
:100F400079F4E12FF0E0E053F84FA985BA85ED93ED
:100F5000FC93AF81B8850C93AD81BE813C9316C0E4
:100F6000E12FF0E0E053F84FFA93EA930A933A93B3
:100F7000ED85FE85FA93EA93ED85FE85FA93EA9373
:100F8000ED85FE85FA93EA930E9477010E945C4EFC
:100F900038C60E94554EEC81E03041F4EF81F8856F
:100FA000E05DF7408F013E812D8121C0EF81F88502
:100FB000FA93EA93E885EA93E885EA93EDB7FEB7FA
:100FC0003197FA93EA931F930F93EDB7FEB7FA9315
:100FD000EA933F93EDB7FEB7FA93EA932F930E94FB
:100FE00077022F913F910F911F91005D17402A9337
:100FF0003A930A930E94904A0E945C4E2996089563
:10100000E881E06CE7B985E38A95F1F7369A219695
:101010000895349BFECF349AE4B1F5B10895249736
:101020001A930A93EE81E03061F1E0E0F0E160E0D4
:1010300070E0EA83FB836C837D83AA81BB818C8112
:101040009D81A030E4E0BE07E0E08E07E0E09E076F
:10105000B8F4EA81FB816C817D810E94734CE0E0F1
:10106000EA930E94AE04EA81FB816C817D81EF5F8F
:10107000FF4F6F4F7F4FEA83FB836C837D83DDCF10
:1010800035C000E010E0E0E0F0E160E070E0EA830D
:10109000FB836C837D83AA81BB818C819D81AE376C
:1010A000E0E1BE07E0E08E07E0E09E07F0F4EA81B1
:1010B000FB816C817D810E94734CA6E0B0E0A00FA3
:1010C000B11F0E94914CEA930E94AE040F5F1F4F24
:1010D000EA81FB816C817D81EF5FFF4F6F4F7F4F16
:1010E000EA83FB836C837D83D6CF04D0198108818A
:1010F00027960895A4E8B0E00E948D4CDF010E947D
:10110000454ED0F4A6E8B0E00E948D4C0F01A4E853
:10111000B0E00E948D4CE015F10540F0A4E8B0E08D
:101120000E948D4CEF3FAFEFFA0731F4E1E0EA9314
:101130000E940F08E1E00895E0E00895A4E8B0E01F
:101140000E948D4C309711F4E0E00895A6E8B0E0DD
:101150000E948D4C0F01A4E8B0E00E948D4CE01578
:10116000F10510F4E1E00895E0E0089508951A9380
:101170000A93EA81FB816C817D810E94734C0E94FD
:10118000554B0E94EF4C8F010F5F1F4FF8011981E3
:10119000088126960895FF9229970E94534E23FCBA
:1011A00008C0E2E1EA930E940008689423F8E0E0B6
:1011B00085C0E89423F80E940908ED87FE87EE8534
:1011C000E27051F0ED85FE853197E095F095F37072
:1011D000EB87FC87689405C0ED85FE85EB87FC876F
:1011E000E894F0F8EB85FC85662777270E94264D6A
:1011F000AAE0B7ED83EA9BE30E94AE4DEF83F88748
:1012000069877A87AF81B88589859A85E0E0F0E0C3
:1012100068EC72E40E94AE4D0E94734C0E94B708C5
:10122000EE83AE81AF3F10F0E0E0EE83F0FE06C04B
:10123000EE81F0E00E94804B9F0102C02E81332797
:10124000A8E8B0E00E948D4C2E0F3F1FA989A13065
:10125000F1F4F9010E94C14B0E94264DA0E0B0E0DC
:1012600080E191E40E94AE4DDF01CB01E0E0F0E0CF
:1012700060EA70E40E94FC4DA0E0B0E080E092E4FF
:101280000E94604D0E94EF4CAF018A0101C08901AC
:10129000EA89FB89FA93EA93ECEAF1E0FA93EA939C
:1012A000F8010E94C14B0E94734C84E00E94604987
:1012B0002896AF85B8890D931C93E1E00E945A4EA1
:1012C0006496FF9008952497A1E7BBE0EC81F0E0DD
:1012D000AE0FBF1FEC91FF2766277727E883F983BE
:1012E0006A837B83A881B9818A819B81E8E00E941F
:1012F000944B7F936F93FF93EF93AFEEBAE0EC8143
:10130000F0E0AE0FBF1FEC91AF91BF918F919F9115
:10131000FF27662777270E94764BE883F9836A8345
:101320007B83A881B9818A819B81E8E00E94944BEC
:101330007F936F93FF93EF93ADE6BAE0EC81F0E01B
:10134000AE0FBF1FEC91AF91BF918F919F91FF277F
:10135000662777270E94764BE883F9836A837B832D
:10136000A881B9818A819B81E8E00E94944BDF01CA
:10137000CB01EC81F0E0E551F64FE081FF276627D5
:1013800077270E94764BE883F9836A837B83D4C0F6
:101390002497A9E7BDE0EC81F0E0AE0FBF1FEC9110
:1013A000FF2766277727E883F9836A837B83A881F1
:1013B000B9818A819B81E8E00E94944B7F936F936F
:1013C000FF93EF93A7EFBCE0EC81F0E0AE0FBF1FFF
:1013D000EC91AF91BF918F919F91FF27662777275F
:1013E0000E94764BE883F9836A837B83A881B98165
:1013F0008A819B81E8E00E94944B7F936F93FF93D7
:10140000EF93A5E7BCE0EC81F0E0AE0FBF1FEC91DD
:10141000AF91BF918F919F91FF27662777270E94F9
:10142000764BE883F9836A837B83A881B9818A81BB
:101430009B81E8E00E94944BDF01CB01EC81F0E05E
:10144000ED50F44FE081FF27662777270E94764B07
:10145000E883F9836A837B836FC0A881B0E0A551DC
:10146000B64FE981EC93ADE6BAE0E881F0E0EA0F2F
:10147000FB1FFF93EF93A981BA818B819C81E8E0E8
:101480000E94A04BAF91BF91EC93AFEEBAE0E88120
:10149000F0E0AE0FBF1FE981FA816B817C810E9471
:1014A000B64BEC93A1E7BBE0E881F0E0EA0FFB1F4D
:1014B000FF93EF93A981BA818B819C81E8E10E941F
:1014C000A04BAF91BF91EC9337C0A881B0E0AD5075
:1014D000B44FE981EC93A5E7BCE0E881F0E0EA0FC6
:1014E000FB1FFF93EF93A981BA818B819C81E8E078
:1014F0000E94A04BAF91BF91EC93A7EFBCE0E881B5
:10150000F0E0AE0FBF1FE981FA816B817C810E9400
:10151000B64BEC93A9E7BDE0E881F0E0EA0FFB1FD2
:10152000FF93EF93A981BA818B819C81E8E10E94AE
:10153000A04BAF91BF91EC93259608956097EA89EF
:10154000FF2766277727AFEFBFEF8FEF9FEF0E9450
:10155000944BEC87FD876E877F87A989EFE1EA1BB3
:10156000FF2766277727AFEFBFEF8FEF9FEF0E9430
:10157000A04BE887F9876A877B87AC85BD858E8518
:101580009F850E94714B0E94C64BAB89BC898D8997
:101590009E890E94714BEC83FD836E837F83E88577
:1015A000F9856A857B85AC85BD858E859F850E9482
:1015B000714BAB89BC898D899E890E94714BE883F0
:1015C000F9836A837B83E889A881B9818A819B81B9
:1015D000FF27662777270E94944BE883F9836A8365
:1015E0007B83E885F9856A857B85AC85BD858E859D
:1015F0009F850E94714BA881B9818A819B810E943D
:10160000714BE883F9836A837B83AC81BD818E81D2
:101610009F810E94764B6DC06097EA89FF276627FD
:101620007727AFEFBFEF8FEF9FEF0E94944BEC87D0
:10163000FD876E877F87A989EFE1EA1BFF27662771
:101640007727AFEFBFEF8FEF9FEF0E94A04BE887A8
:10165000F9876A877B87AC85BD858E859F850E94CB
:10166000714B0E94C64BAB89BC898D899E890E94B3
:10167000714BEC83FD836E837F83E885F9856A85F2
:101680007B85AC85BD858E859F850E94714BAB891E
:10169000BC898D899E890E94714BE883F9836A8396
:1016A0007B83E889A881B9818A819B81FF2766278E
:1016B00077270E94A04BE883F9836A837B83E885C0
:1016C000F9856A857B85AC85BD858E859F850E9461
:1016D000714BA881B9818A819B810E94714BE883FB
:1016E000F9836A837B83AC81BD818E819F810E9457
:1016F000764B679608956097ED89FF2766277727D1
:10170000AFEFBFEF8FEF9FEF0E94944BEC87FD8709
:101710006E877F87AC89EFE1EA1BFF276627772773
:10172000AFEFBFEF8FEF9FEF0E94A04BE887F987E5
:101730006A877B87AC85BD858E859F850E94714BAE
:10174000AE89BF89888D998D0E94714BEC83FD8392
:101750006E837F83E889F9896A897B89AC81BD8141
:101760008E819F810E94714BEC83FD836E837F830A
:10177000E885F9856A857B85AC85BD858E859F85E5
:101780000E94714B0E94C64BAE89BF89888D998D8E
:101790000E94714BE883F9836A837B83AC81BD81AE
:1017A0008E819F810E94764B6A9608956097E989A1
:1017B000A889AE1728F4EA89FB896C897D8958C00D
:1017C000E989FF2766277727AFEFBFEF8FEF9FEFFE
:1017D0000E94944BEC87FD876E877F87A889EFE195
:1017E000EA1BFF2766277727AFEFBFEF8FEF9FEF4B
:1017F0000E94A04BE887F9876A877B87EA89FB8983
:101800006C897D890E94C64B7F936F93FF93EF9302
:10181000E885F9856A857B85AC85BD858E859F8544
:101820000E94714BAF91BF918F919F910E94714B1C
:10183000EC83FD836E837F83E885F9856A857B85EC
:10184000AC85BD858E859F850E94714B0E94C64BDD
:10185000AA89BB898C899D890E94714BE883F98391
:101860006A837B83AC81BD818E819F810E94764B90
:101870006696089560970E94534EE88DE03029F4F3
:10188000A98DBA8D0C9131E002C0088D30E0E02FB7
:10189000E30FE1502E2FEC8DFF2766277727AFEF60
:1018A000BFEF8FEF9FEF0E94944BEA8BFB8B6C8B0B
:1018B0007D8BAB8DEFE1EA1BFF2766277727AFEF24
:1018C000BFEF8FEF9FEF0E94A04BEE87FF87688BE3
:1018D000798BAA89BB898C899D890E94714B0E9452
:1018E000C64BEA87FB876C877D87A32FBB27EF89D1
:1018F000F0E0AE1BBF0BAD010F3F08F00EEF11E0A3
:10190000011710F40C94660DEE89AD8DEA1708F4FA
:10191000DDC0EF89F0E04E0F5F1FFA01A98DBA8D8F
:10192000AE0FBF1FEC91FF2766277727EE83FF835B
:1019300068877987AF89A230F8F0AE81BF8188854A
:101940009985E8E00E94944B7F936F93FF93EF9308
:10195000FA013196A98DBA8DAE0FBF1FEC91AF91F0
:10196000BF918F919F91FF27662777270E94764B23
:10197000EE83FF8368877987AF89A330F8F0AE8163
:10198000BF8188859985E8E00E94944B7F936F938F
:10199000FF93EF93FA013296A98DBA8DAE0FBF1F58
:1019A000EC91AF91BF918F919F91FF276627772789
:1019B0000E94764BEE83FF8368877987AF89A430D6
:1019C000F8F0AE81BF8188859985E8E00E94944B4C
:1019D0007F936F93FF93EF93FA013396A98DBA8D9E
:1019E000AE0FBF1FEC91AF91BF918F919F91FF27D9
:1019F000662777270E94764BEE83FF836887798777
:101A0000EC8DAE81BF8188859985FF276627772772
:101A10000E94944BEE83FF8368877987AC8DA13059
:101A200098F00E94734CE0E0EA93E9A1E150EA9358
:101A3000E0E0F0E060E070E00E94734C0E947B0BFD
:101A4000EE83FF8368877987E091E909E150AB8DE8
:101A5000AE17C8F4EE81FF81688579850E94734CCA
:101A6000EF8DEF5FEA93E091E909E150EA93E0E05E
:101A7000F0E060E070E00E94734C0E947B0BEE830C
:101A8000FF8368877987ED8DEA930E946309EA8B6B
:101A9000FB8B6C8B7D8BAA85BB858C859D850E947D
:101AA000714BAE81BF81888599850E94764BEA8B08
:101AB000FB8B6C8B7D8B0E94734CE9A1EA930E9497
:101AC0002D0AED8DEF5FED8F1F5F1ACF0E945A4EEA
:101AD0006E960895E981E83071F4EF81EA93EF8121
:101AE000EA93EF81EA93EE81FF81FA93EA93EF8123
:101AF000EA93E1E02FC0E03171F4EF81EA93EF81E6
:101B0000EA93EF81EA93EE81FF81FA93EA93EF8102
:101B1000EA93E2E01FC0E83171F4EF81EA93EF81CC
:101B2000EA93EF81EA93EE81FF81FA93EA93EF81E2
:101B3000EA93E3E00FC0E03291F4EF81EA93EF81A2
:101B4000EA93EF81EA93EE81FF81FA93EA93EF81C2
:101B5000EA93E4E0EA93EF81EA930E943A0C10C41E
:101B6000E2971A9310E0123390F4E12FF0E0DE01D7
:101B70001196EA0FFB1F0F01AEA9BFA9EE27A10F17
:101B8000BE1F0E94914CD001EC931F5FECCFEAADD9
:101B9000EA93EAADEA93EAADEA93FE013496FA934A
:101BA000EA93EAADEA93EAADEA93EAADEA930E94DA
:101BB0006A0D1881EB960895249784E0A0E0B0E0C8
:101BC000E8ECF0E00E94614E1A9311E0EF81E1171A
:101BD000B8F0EA85EA93EA85EA93EA85EA93FE019A
:101BE0003496FA93EA93E1E0EA93EC85EA93EC8584
:101BF000EA930E946A0DEA85EF5FEA871F5FE6CFEE
:101C000018812B9608951A931981A0910B0FB0910A
:101C10000C0FEE27A10FBE1FEC91E8BB183018F493
:101C2000939A93980CC0103118F4949A949807C022
:101C3000183118F4959A959802C0969A969818813A
:101C400090C2229781E0A0E0B0E0E4EDF0E00E94D5
:101C5000614E0E94534E3885383010F4032F0FC068
:101C6000303118F4E32FE85009C0383118F4E32F6D
:101C7000E05104C0303218F4E32FE8510E2FE02F6A
:101C8000F0E0E35FF04F1081E32FE695E695E695EF
:101C90005E2F40E0E091EA094E17A8F5E42FE95FD6
:101CA000EF8320E03F81431798F4220FA2E85A9F68
:101CB000F001E551F64FDF01EE27A30FBE1FEC91B7
:101CC000E123AE2FE02F0E948C4B2E2B3150EBCF17
:101CD000220FA2E85A9FF001E551F64FDF01EE27EF
:101CE000A40FBE1FEC91E123AE2FE02F0E948C4B7E
:101CF0002E2BEE81F0E0EB5EF04F2083EE81EF5F64
:101D0000EE83485FC7CF0E945A4EA5C2ABEAB0E04F
:101D10000E94914CE093250FACEAB0E00E94914CF8
:101D2000E093260FE03019F0EBECFEE002C0EBEEA2
:101D3000FEE0E0930B0FF0930C0F08951A9310E060
:101D4000A1E0B0E00E94914C1E1758F4E0E0F0E0F2
:101D500060E070E00E94734C1A930E942D0A1F5F8E
:101D6000EFCF1881FEC11A9310E0E091EA091E1727
:101D700058F4E0E0F0E060E070E00E94734C1A93E9
:101D80000E94650A1F5FF1CF82C22C971A93EF85DC
:101D9000FF2766277727AFEFBFEF8FEF9FEF0E94F8
:101DA000944BE987FA876B877C87AD85EFE1EA1B67
:101DB000FF2766277727AFEFBFEF8FEF9FEF0E94D8
:101DC000A04BED83FE836F837887A985BA858B85C9
:101DD0009C850E94714B0E94C64BE983FA836B83FA
:101DE0007C831889EE85E117C0F01A930E9463097D
:101DF000E987FA876B877C87A981BA818B819C816F
:101E00000E94714BE987FA876B877C870E94734C2D
:101E10001A930E942D0A1F5FE5CF188161960895DD
:101E2000E881EA93EA81EA93EC81EA93EE81EA930E
:101E30000E94C50E73C060971A93EB89FF2766272F
:101E40007727AFEFBFEF8FEF9FEF0E94944BED87A7
:101E5000FE876F87788BA989EFE1EA1BFF2766274A
:101E60007727AFEFBFEF8FEF9FEF0E94A04BE9877F
:101E7000FA876B877C87AD85BE858F8598890E94A0
:101E8000714B0E94C64BED83FE836F837887E0E041
:101E9000F0E060E070E00E94734CEF89EA93EE8915
:101EA000EA930E94D60BE983FA836B837C831C89B7
:101EB000EA89E11730F11A930E946309ED87FE87E2
:101EC0006F87788BAD81BE818F8198850E94714B21
:101ED000ED87FE876F87788BE981FA816B817C8142
:101EE000AD85BE858F8598890E94764BED87FE87EC
:101EF0006F87788B0E94734C1A930E942D0A1F5F84
:101F0000D7CF188165960895E881EA93EA81EA932C
:101F1000EC81EA93EE81EA930E941B0F6996089583
:101F20000E94554EE885E83039F4EF81E03011F039
:101F300021E001C020E00BC0E03111F420E207C035
:101F4000E83111F420E403C0E03209F420E6E98529
:101F5000E795E0E0E795E22B3E2FAE81A03310F04D
:101F6000AA3308F045C020E02A3010F00C94F70F97
:101F7000E4E0E29FF001E852FF4FE4913E17A9F53B
:101F8000A22FBB2769ED70E0E4E0F0E00E94E44B93
:101F9000E60FF71F0E946F4CFF93EF93EE81E05323
:101FA0008E2F9927A22FBB276BED70E0E4E0F0E0C5
:101FB0000E94E44BE60FF71FE491F0E0DC010E9481
:101FC000E44BAF91BF91EA0FFB1F8F01A22FBB27FC
:101FD0006BED70E0E4E0F0E00E94E44BE60FF71FE9
:101FE000E491AC81BD81EC9302C02F5FBDCF3DC0B9
:101FF000E32FE069EE7F3E2F20E02831B0F5A22FDD
:10200000BB2761E071E0E5E0F0E00E94E44BE60F01
:10201000F71FE491AE2FEE81EA1741F4E5E0E29F6D
:10202000F001E050FF4FE4913E1709F01CC0A22FD1
:10203000BB2762E071E0E5E0F0E00E94E44BE60FD0
:10204000F71F0E946F4C8F01A22FBB2764E071E045
:10205000E5E0F0E00E94E44BE60FF71FE491AC816D
:10206000BD81EC9302C02F5FC8CFF8010E945C4E87
:102070002A9608950E94554E30E0E985EA93E98555
:10208000EA93E985EA93E985EA93EDB7FEB7FA9317
:10209000EA933F930E94900F3F918F01353608F0ED
:1020A00034E63130C0F020E02317A0F4E22FF0E056
:1020B000E85DF04FFF93EF93F801662777270E94C2
:1020C000734C0E94C905AF91BF91EC930F5F1F4FF6
:1020D0002F5FEACF03C0E0E0E093280FEC85EA939E
:1020E000EC85EA93EC85EA93E8E2FFE0FA93EA9361
:1020F000E0E0EA93EE85EA93EB85EA930E946A0DAD
:102100000E945C4E2D9608950E94554EEF81EA93F1
:10211000EF81EA93EF81EA93EF81EA93EDB7FEB79F
:10212000FA93EA933F930E94900F3F918F01F80139
:10213000662777270E94734C0E94C9050E945C4E57
:102140001FC1E0E0F0E160E070E00E94734CE3E06A
:10215000F0E0FA93EA93EE81FF81FA93EA930E940A
:10216000C904229608952497EE81FF2766277727D2
:10217000A3E7B0E00E94E44BED5FFF4E6F4F7F4F4F
:10218000E883F9836A837B830E94734CE3E7F0E082
:10219000FA93EA93EA85FB85FA93EA930E94C904CD
:1021A00027960895249784E0A0E0B0E0E8E7F1E006
:1021B0000E94614E1A93EF81EA93EE81FF81FA93B8
:1021C000EA930E94B31010E0143018F5A9E11A9FA9
:1021D000F001AD81BE81AE0FBF1F5396EC91E03090
:1021E000B1F0A9E11A9FF001AD81BE81AE0FBF1F12
:1021F00055960E94604C66277727A981BA818B810A
:102200009C810E94624BE983FA836B837C831F5F0E
:10221000DBCFE981FA816B817C811881B1C0E885CF
:10222000ACE8BFE0F0E00E94AC4BAE0FBF1F0E94D5
:10223000644CAC81BD818E819F810E94624B0E9463
:10224000734CEE81FF81FA93EA93EE81FF81FA935A
:10225000EA930E94C904299608951A9310E0143055
:10226000B0F41A93E0E0F0E060E070E00E94734C9C
:10227000ECE0F0E0FA93EA93ACE01A9FF001E45648
:10228000F04FFA93EA930E940F111F5FE8CF199164
:10229000089524971A93E0910A0EFF27662777275F
:1022A000A3E7B0E00E94E44BED5FFF4E6F4F7F4F1E
:1022B000E983FA836B837C8310E0EF811E1798F427
:1022C0001A93EE81FF81FA93EA930E94D210A981BA
:1022D000BA818B819C810E94624BE983FA836B8374
:1022E0007C831F5FEACFE981FA816B817C81E09377
:1022F0008C0FF0938D0F60938E0F70938F0FEF8183
:10230000EA93EE81FF81FA93EA930E94B31011E001
:10231000143098F5E12FACE8BFE0F0E00E94AC4B40
:10232000EA0FFB1FFF93EF93E12FE150ACE8BFE012
:10233000F0E00E94AC4BAE0FBF1F0E94644C7F9335
:102340006F93FF93EF93E12FE150A9E1EA9FF00132
:10235000AD81BE81AE0FBF1F55960E94604C6627AF
:102360007727AF91BF918F919F910E94624BAF9160
:10237000BF910E946A4C1F5FCBCF0E942D11188124
:1023800028960895E881F981FA93EA93ED81ACE00B
:10239000EA9FF001E456F04FFA93EA93EE81F0E001
:1023A000FA93EA930E947A47ACC1EC81ACE8BFE0B3
:1023B000F0E00E94AC4BAE0FBF1F0E94644CE55F83
:1023C000FF4F6F4F7F4FA881B9818A819B810E9407
:1023D000624B0E94734C0E94C90518C0EC81ACE8A6
:1023E000BFE0F0E00E94AC4BAE0FBF1F0E94644CF8
:1023F000E45FFF4F6F4F7F4FA881B9818A819B8136
:102400000E94624B0E94734C0E94C9052596089554
:102410001A930A93E091E80F0E94DF4BE093E80FD4
:10242000EA81E13049F4ED81EA93EC81FD81A9E193
:102430000E94784C2CD2B6C0E23049F4ED81EA9388
:10244000EC81FD81A9E10E94784CA3D2ABC0E330BE
:1024500049F4ED81EA93EC81FD81A9E10E94784C79
:1024600038D3A0C0E43049F4ED81EA93EC81FD81DA
:10247000A9E10E94784C07D495C0E53049F4ED817C
:10248000EA93EC81FD81A9E10E94784CF7D48AC0DF
:10249000E63049F4ED81EA93EC81FD81A9E10E94E7
:1024A000784CA7D57FC0E73049F4ED81EA93EC8101
:1024B000FD81A9E10E94784C3CD674C0E83049F413
:1024C000ED81EA93EC81FD81A9E10E94784C0AD765
:1024D00069C0E93051F4ED81EA93EC81FD81A9E115
:1024E0000E94784C0E94891A5DC0EA3051F4ED8157
:1024F000EA93EC81FD81A9E10E94784C0E944A1B7D
:1025000051C0EB30C1F401E010E00C30E0E01E07F8
:1025100084F4ED81EA93EC81FD81A9E10E94784C7D
:102520000E944A1CE03011F0E1E03CC00F5F1F4FF9
:10253000ECCFE0E037C0EC3051F4ED81EA93EC8170
:10254000FD81A9E10E94784C0E94041D2BC0ED3052
:1025500081F4E091E80FE03051F0ED81EA93EC81F5
:10256000FD81A9E10E94784C0E94041E1BC0E0E09E
:1025700019C0EE3051F4ED81EA93EC81FD81A9E1BF
:102580000E94784C0E94D21E0DC0EF3051F4ED81B4
:10259000EA93EC81FD81A9E10E94784C0E944E20D3
:1025A00001C0E1E01981088126960895E881E130B3
:1025B00049F4EB81EA93EA81FB81A9E10E94784C1E
:1025C0005BD19FC0E23049F4EB81EA93EA81FB8161
:1025D000A9E10E94784CD2D194C0E33049F4EB8158
:1025E000EA93EA81FB81A9E10E94784C4CD289C030
:1025F000E43049F4EB81EA93EA81FB81A9E10E948E
:10260000784C1CD37EC0E53049F4EB81EA93EA8133
:10261000FB81A9E10E94784C0BD473C0E63049F4E9
:10262000EB81EA93EA81FB81A9E10E94784CBAD45C
:1026300068C0E73049F4EB81EA93EA81FB81A9E1C4
:102640000E94784C6BD55DC0E83049F4EB81EA9389
:10265000EA81FB81A9E10E94784C31D652C0E93071
:1026600049F4EB81EA93EA81FB81A9E10E94784C6D
:1026700033D747C0EA3051F4EB81EA93EA81FB811A
:10268000A9E10E94784C0E94371B3BC0EB3051F40B
:10269000EB81EA93EA81FB81A9E10E94784C0E94D8
:1026A000371C2FC0EC3051F4EB81EA93EA81FB81B7
:1026B000A9E10E94784C0E94F91C23C0ED3051F42E
:1026C000EB81EA93EA81FB81A9E10E94784C0E94A8
:1026D000F91D17C0EE3051F4EB81EA93EA81FB81DA
:1026E000A9E10E94784C0E94AD1E0BC0EF3049F466
:1026F000EB81EA93EA81FB81A9E10E94784C0E9478
:102700007E1F249608952C97ED85FF27662777274F
:10271000AFEFBFEF8FEF9FEF0E94944BE887F987F1
:102720006A877B87AC85EFE1EA1BFF27662777275F
:10273000AFEFBFEF8FEF9FEF0E94A04BEC83FD83C5
:102740006E837F83A885B9858A859B850E94714B9E
:10275000E883F9836A837B83EE85EA930E94C80944
:10276000E887F9876A877B87A881B9818A819B81FD
:102770000E94714BE883F9836A837B837BC02C972B
:10278000ED85FF2766277727AFEFBFEF8FEF9FEF2E
:102790000E94944BE887F9876A877B87AC85EFE1D5
:1027A000EA1BFF2766277727AFEFBFEF8FEF9FEF7B
:1027B0000E94A04BEC83FD836E837F83A885B9853F
:1027C0008A859B850E94714BE883F9836A837B83AA
:1027D000EE85EA930E94C8090E94C64BE887F987F4
:1027E0006A877B87A881B9818A819B810E94714B0E
:1027F000E883F9836A837B833DC02C97ED85FF27AF
:1028000066277727AFEFBFEF8FEF9FEF0E94944BC4
:10281000E887F9876A877B87AC85EFE1EA1BFF27AA
:1028200066277727AFEFBFEF8FEF9FEF0E94A04B98
:10283000EC83FD836E837F83A885B9858A859B851C
:102840000E94714B0E94C64BE883F9836A837B83A5
:10285000EE85EA930E946309E887F9876A877B8798
:10286000A881B9818A819B810E94714BE883F98399
:102870006A837B832F960895E98DA7E0EA9FF00194
:10288000E453F04FA0E0B0E0A083B183B0C3289739
:10289000E9A1A7E0EA9FF001E453F04FDF010E94B5
:1028A000604CDF01E885F0E0EA0FFB1FEA93EA8560
:1028B000EA93ED85EA930E948313E883F9836A83A0
:1028C0007B83E9A1A7E0EA9FF001E453F04FDF0129
:1028D0000E94604CDF01E885F0E0EA0FFB1FEA93FD
:1028E000EA85EA93ED85EA930E94FD13EC83FD836C
:1028F0006E837F83E881F9816A817B81AC81BD81B0
:102900008E819F810E94764BEC83FD836E837F8353
:102910000E94734CEDA1A7E0EA9FF001E453F04F51
:10292000DF010E94604CDF01EC85F0E0EA0FFB1F45
:10293000EA930E942D0AE9A1A7E0EA9FF001E4537F
:10294000F04FDF01ED91FD913196FE93EE93E9A1F9
:10295000A7E0EA9FF001E453F04FDF010E94604CD2
:10296000DF01E885F0E0AE0FBF1FEA85F0E0EA176F
:10297000FB0714F4E1E085C0E0E083C0E98DA7E047
:10298000EA9FF001E453F04FA0E0B0E0A083B183F0
:102990002EC32897E9A1A7E0EA9FF001E453F04F86
:1029A000DF010E94604CAA85B0E00E94864CEA1BC1
:1029B000FB0BEA93EA85EA93ED85EA930E94831381
:1029C000E883F9836A837B83E9A1A7E0EA9FF001AA
:1029D000E453F04FDF010E94604CAA85B0E00E94F2
:1029E000864CEA1BFB0BEA93EA85EA93ED85EA93B2
:1029F0000E94FD13EC83FD836E837F83E881F98160
:102A00006A817B81AC81BD818E819F810E94764BE2
:102A1000EC83FD836E837F830E94734CEDA1A7E05E
:102A2000EA9FF001E453F04FDF010E94604CAE8555
:102A3000B0E00E94864CEA1BFB0BEA930E942D0A31
:102A4000E9A1A7E0EA9FF001E453F04FDF01ED9127
:102A5000FD913196FE93EE93E9A1A7E0EA9FF00184
:102A6000E453F04FDF010E94604CAA85B0E0AE1B3A
:102A7000BF0BE885F0E0EA17FB0714F0E1E001C0C6
:102A8000E0E0A2960895E98DA7E0EA9FF001E45303
:102A9000F04FBF01AB81BB27E981F0E00E94864C7B
:102AA000EA1BFB0B3196DB01ED93FC93A98DE7E06C
:102AB000EA9FF001E153F04FA091E509B091E609DA
:102AC0008091E7099091E809A083B1838283938381
:102AD0008EC228971A93AAA1E7E0EA9FF001E1537A
:102AE000F04FDF010E94644CA091E509B091E60926
:102AF0008091E7099091E8090E946C4BA639E0E0CB
:102B0000BE07E0E08E07E0E09E0710F418818FC258
:102B10001985EB85E11710F40C94EE151A93EB85EB
:102B2000EA93EE85EA930E948313E983FA836B8329
:102B30007C83E12FE370E230A8F4E981FA816B81B4
:102B40007C810E94734CEE85EA93E989EA93E8A5BB
:102B5000A7E0EA9FF001E453F04FE081EA930E947E
:102B60009E0A18C0E12FE370E430C0F4E981FA81D5
:102B70006B817C810E94734CEE85EA93E989EA932C
:102B8000E8A5A7E0EA9FF001E453F04FE081EA9363
:102B90000E940C0BE983FA836B837C831A93EB8589
:102BA000EA93EE85EA930E94FD13ED83FE836F8323
:102BB0007887E981FA816B817C81AD81BE818F81CB
:102BC00098850E94764BED83FE836F8378870E9401
:102BD000734C1A930E942D0A1F5F9BCFAAA1E7E0B6
:102BE000EA9FF001E153F04FA091E509B091E609A9
:102BF0008091E7099091E809A083B1838283938350
:102C0000EAA1A7E0EA9FF001E453F04FDF01ED9164
:102C1000FD913197FE93EE93EAA1A7E0EA9FF001C0
:102C2000E453F04FDF010E94604CDF0110971CF469
:102C3000E1E01881FCC1E0E01881F9C1E98DA7E06D
:102C4000EA9FF001E453F04FA0E0B0E0A083B1832D
:102C5000A98DE7E0EA9FF001E253F04FA0E0A083E6
:102C6000A98DE7E0EA9FF001E153F04FA091E5095B
:102C7000B091E6098091E7099091E809A083B183BA
:102C800082839383B4C12C971A93AEA1E7E0EA9FA5
:102C9000F001E153F04FDF010E94644CA091E5097F
:102CA000B091E6098091E7099091E8090E946C4B88
:102CB000A532E0E0BE07E0E08E07E0E09E0710F4FA
:102CC0001881D3C4AEA1E7E0EA9FF001E253F04FD0
:102CD000E081E03011F41D8503C0ED85EF5F1E2F0C
:102CE000EEA1A7E0EA9FF001E453F04FDF010E945C
:102CF000604CDF01EE85F0E0EA0FFB1F0E94C14B44
:102D0000AFEFBFEF8FEF9FEF0E94944B0E94C64B37
:102D1000E983FA836B837C83EF85E117C8F11A930B
:102D2000EF85EA93EA89EA930E948313E987FA8799
:102D30006B877C87E981FA816B817C81A985BA8563
:102D40008B859C850E94714BED83FE836F83788712
:102D50001A93EF85EA93EA89EA930E94FD13E987C3
:102D6000FA876B877C87ED81FE816F817885A985E5
:102D7000BA858B859C850E94764BE987FA876B879D
:102D80007C870E94734C1A930E942D0A1E5FC4CF49
:102D9000AEA1E7E0EA9FF001E153F04FA091E50911
:102DA000B091E6098091E7099091E809A083B18389
:102DB00082839383EEA1A7E0EA9FF001E453F04FF2
:102DC000DF01ED91FD913196FE93EE93EEA1A7E028
:102DD000EA9FF001E453F04F00801180AE85E8894E
:102DE000EA1BEF5FD001F0E0EA17FB07F4F4AEA1B5
:102DF000E7E0EA9FF001E253F04FE081E03091F428
:102E0000E7E0EA9FF001E253F04FA1E0A083EEA1DA
:102E1000A7E0EA9FF001E453F04FA0E0B0E0A08308
:102E2000B18303C0E1E0188120C4E0E018811DC433
:102E3000E98DA7E0EA9FF001E453F04FBF01AB81B9
:102E4000BB27E981F0E00E94864CEA1BFB0B319620
:102E5000DB01ED93FC93A98DE7E0EA9FF001E153DC
:102E6000F04FA091E509B091E6098091E7099091B2
:102E7000E809A083B18382839383B9C028971A930A
:102E8000AAA1E7E0EA9FF001E153F04FDF010E94C1
:102E9000644CA091E509B091E6098091E709909111
:102EA000E8090E946C4BAB34E0E0BE07E0E08E071F
:102EB000E0E09E0710F41881BAC01985EB85E11790
:102EC00010F40C94A2171A93EB85EA93EE85EA931B
:102ED0000E948313E983FA836B837C830E94734C83
:102EE000EE85EA93E989EA93E8A5A7E0EA9FF00175
:102EF000E453F04FE081EA930E940C0BE983FA83DC
:102F00006B837C831A93EB85EA93EE85EA930E94A8
:102F1000FD13ED83FE836F837887E981FA816B81EE
:102F20007C81AD81BE818F8198850E94764BED8337
:102F3000FE836F8378870E94734C1A930E942D0A38
:102F40001F5FBCCFAAA1E7E0EA9FF001E153F04F79
:102F5000A091E509B091E6098091E7099091E8090F
:102F6000A083B18382839383EAA1A7E0EA9FF00163
:102F7000E453F04FDF01ED91FD913197FE93EE9315
:102F8000EAA1A7E0EA9FF001E453F04FDF010E94BD
:102F9000604CDF0110971CF4E1E0188148C0E0E0CC
:102FA000188145C0E98DA7E0EA9FF001E453F04F96
:102FB000BF01AB81BB27E981F0E00E94864CEA1B90
:102FC000FB0B3196DB01ED93FC93A98DE7E0EA9FC3
:102FD000F001E153F04FA091E509B091E60980912D
:102FE000E7099091E809A083B183828393836A966D
:102FF000089528971A93AAA1E7E0EA9FF001E15308
:10300000F04FDF010E94644CA091E509B091E60900
:103010008091E7099091E8090E946C4BAB34E0E0A5
:10302000BE07E0E08E07E0E09E0718F41881A39643
:1030300008951985EB85E11710F40C945E181A9326
:10304000EB85EA93EE85EA930E948313E983FA8382
:103050006B837C830E94734CEE85EA93E989EA9343
:10306000E8A5A7E0EA9FF001E453F04FE081EA937E
:103070000E949E0AE983FA836B837C831A93EB8513
:10308000EA93EE85EA930E94FD13ED83FE836F833E
:103090007887E981FA816B817C81AD81BE818F81E6
:1030A00098850E94764BED83FE836F8378870E941C
:1030B000734C1A930E942D0A1F5FBCCFAAA1E7E0B0
:1030C000EA9FF001E153F04FA091E509B091E609C4
:1030D0008091E7099091E809A083B183828393836B
:1030E000EAA1A7E0EA9FF001E453F04FDF01ED9180
:1030F000FD913197FE93EE93EAA1A7E0EA9FF001DC
:10310000E453F04FDF010E94604CDF0110971CF484
:10311000E1E01881F1C6E0E01881EEC6E98DA7E094
:10312000EA9FF001E453F04FA0E0B0E0A083B18348
:10313000F7C62C970E94554EEB89FF276627772705
:103140000E94264DDF01CB01E989FF2766277727FB
:103150000E94264D0E94804C0E94594DA0E0B0E094
:1031600080E89FE30E94604DDF01CB01E0E0F0E0EA
:1031700060E871E40E94804C0E94594DA0E0B0E0EC
:1031800080EA90EC0E94AE4DDF01CB01E0E0F0E080
:1031900060E071E40E94FC4DA0E0B0E080EA90E4C1
:1031A0000E94604D0E94EF4C0E2FE9A5A7E0EA9F18
:1031B000F001E453F04FDF010E94604CAA89B0E0B7
:1031C0000E94864CEA1B1E2F1A93EA89EA93ED8926
:1031D000EA930E948313EC87FD876E877F87EC83D9
:1031E000FD836E837F830E94414E11F40C943D1940
:1031F000AB89BB27E989F0E00E94864CEA1BFB0BF8
:1032000031969F0120503040C4F1EC81FD816E81E8
:103210007F810E94734CED89EA93E88DEA932A93AB
:103220000E949E0AE887F9876A877B871A93EA8952
:10323000EA93ED89EA930E94FD13EC87FD876E8780
:103240007F87E885F9856A857B85AC85BD858E8518
:103250009F850E94764BEC87FD876E877F870E9453
:10326000734C1A930E942D0AE02FF0E0FA93EA9330
:103270000E941A4B21503040C5CFE9A5A7E0EA9F34
:10328000F001E453F04FDF01ED91FD913196FE9393
:10329000EE93E9A5A7E0EA9FF001E453F04FDF01C8
:1032A0000E94604CAA89B0E0AE1BBF0BE889F0E039
:1032B000EA17FB0714F0E1E00BC1E0E009C1E98D7A
:1032C000A7E0EA9FF001E453F04FA0E0B0E0A08354
:1032D000B183A98DE7E0EA9FF001E253F04FA0E04F
:1032E000A0831EC62C970E94554EEB89FF276627A8
:1032F00077270E94264DDF01CB01E989FF2766274A
:1033000077270E94264D0E94804C0E94594DA0E0D4
:10331000B0E080E89FE30E94604DDF01CB01E0E078
:10332000F0E060E871E40E94804C0E94594DA0E0FA
:10333000B0E080EA90EC0E94AE4DDF01CB01E0E00E
:10334000F0E060E071E40E94FC4DA0E0B0E080EAB3
:1033500090E40E94604D0E94EF4C0E2FE9A5A7E07B
:10336000EA9FF001E453F04FDF010E94604CAA890C
:10337000B0E00E94864CEA1B1E2F1A93EA89EA935A
:10338000ED89EA930E948313EC87FD876E877F8720
:10339000EC83FD836E837F830E94414E11F40C9475
:1033A0002F1AAB89BB27E989F0E00E94864CEA1B03
:1033B000FB0B31969F012050304014F40C942F1ACF
:1033C000A9A5E7E0EA9FF001E253F04FE081E03089
:1033D00071F4EC81FD816E817F810E94734CED89D7
:1033E000EA93E88DEA932A930E949E0A0DC0EC812D
:1033F000FD816E817F810E94734CED89EA93E88D97
:10340000EA932A930E940C0BE887F9876A877B87E7
:103410001A93EA89EA93ED89EA930E94FD13EC87F7
:10342000FD876E877F87E885F9856A857B85AC8512
:10343000BD858E859F850E94764BEC87FD876E87C4
:103440007F870E94734C1A930E942D0AE02FF0E0B0
:10345000FA93EA930E941A4B21503040ACCFE9A571
:10346000A7E0EA9FF001E453F04FDF01ED91FD91F9
:103470003196FE93EE93A9A5E7E0EA9FF001E253AF
:10348000F04FE081E03039F4E7E0EA9FF001E253E9
:10349000F04FA1E007C0A9A5E7E0EA9FF001E253E1
:1034A000F04FA0E0A083E9A5A7E0EA9FF001E45374
:1034B000F04FDF010E94604CAA89B0E0AE1BBF0B49
:1034C000E889F0E0EA17FB0714F0E1E001C0E0E072
:1034D0000E945C4EAA960895E98DA7E0EA9FF0014C
:1034E000E453F04FA0E0B0E0A083B183A98DE7E002
:1034F000EA9FF001E153F04FA091E509B091E60990
:103500008091E7099091E809A083B1838283938336
:1035100007C52C971A93AEA1E7E0EA9FF001E153AB
:10352000F04FDF010E94644CA091E509B091E609DB
:103530008091E7099091E8090E946C4BAB34E0E080
:10354000BE07E0E08E07E0E09E0710F418818DC012
:103550001D85EEA1A7E0EA9FF001E453F04FDF01E3
:103560000E94604CDF01EE85F0E0EA0FFB1F0E9435
:10357000C14BAFEFBFEF8FEF9FEF0E94944B0E94C4
:10358000C64BE983FA836B837C83EF85E117C8F12F
:103590001A93EF85EA93EA89EA930E948313E987F5
:1035A000FA876B877C87E981FA816B817C81A985A9
:1035B000BA858B859C850E94714BED83FE836F835A
:1035C00078871A93EF85EA93EA89EA930E94FD13BC
:1035D000E987FA876B877C87ED81FE816F8178852B
:1035E000A985BA858B859C850E94764BE987FA87E9
:1035F0006B877C870E94734C1A930E942D0A1F5F71
:10360000C4CFAEA1E7E0EA9FF001E153F04FA091F3
:10361000E509B091E6098091E7099091E809A08356
:10362000B18382839383EEA1A7E0EA9FF001E45384
:10363000F04FDF01ED91FD913196FE93EE93EEA1F7
:10364000A7E0EA9FF001E453F04F00801180AE85BF
:10365000E889EA1BEF5FD001F0E0AE17BF071CF06E
:10366000E1E0188102C0E0E01881A7960895E98D95
:10367000A7E0EA9FF001E453F04FA0E0B0E0A083A0
:10368000B183A98DE7E0EA9FF001E253F04FA0E09B
:10369000A08346C428971A930A93ABA1E7E0EA9F58
:1036A000F001E253F04FE081E03011F00C940C1C7B
:1036B000AA85EC85EA1BEF5FE695EA0F6E2FEBA17A
:1036C000A7E0EA9FF001E453F04FDF010E94604C55
:1036D000A62FB0E00E94864CEA1B0E2F1A85EBA1A4
:1036E000A7E0EA9FF001E453F04FDF010E94604C35
:1036F000AA85B0E0EA0FFB1FA12FB0E0EA17FB0795
:1037000064F10A93EC85EA93EF85EA930E948313B0
:10371000EA83FB836C837D831A93EC85EA93EF85C0
:10372000EA930E94FD13EE83FF8368877987EA811D
:10373000FB816C817D81AE81BF81888599850E94E6
:10374000764BEE83FF83688779870E94734C1A93C8
:103750000E942D0A0F5F1F5FC2CFAA85EC85EA1B6E
:10376000EF5FE695EA0F6E2FEBA1A7E0EA9FF0016D
:10377000E453F04FDF010E94604CE60F0E2F1C85D2
:10378000EBA1A7E0EA9FF001E453F04FDF010E94B4
:10379000604CAC85B0E00E94864CEA1BFB0BA12F6D
:1037A000B0E0AE17BF0764F10A93EC85EA93EF85AA
:1037B000EA930E948313EA83FB836C837D831A93CD
:1037C000EC85EA93EF85EA930E94FD13EE83FF8375
:1037D00068877987EA81FB816C817D81AE81BF81B9
:1037E000888599850E94764BEE83FF836887798769
:1037F0000E94734C1A930E942D0A01501150C0CFA1
:10380000EBA1A7E0EA9FF001E453F04FDF01ED9157
:10381000FD913196FE93EE93EBA1A7E0EA9FF001B4
:10382000E453F04F00801180AA85EC85EA1BE695F1
:10383000D001F0E0EA17FB07C4F4ABA1E7E0EA9F90
:10384000F001AEECBFE0AE0FBF1FAC91A33058F457
:10385000ABA1E7E0EA9FF001E253F04FDF01EC910A
:10386000EF5FEC9302C0E1E074C2E0E072C2E98D68
:10387000A7E0EA9FF001E453F04FA0E0B0E0A0839E
:10388000B183A98DE7E0EA9FF001E253F04FA881F0
:10389000A08346C328971A930A93EBA1A7E0EA9F57
:1038A000F001E453F04FDF010E94604CAC85B0E0C2
:1038B0000E94864CEA1B0E2F0A93EC85EA93EF8553
:1038C000EA930E948313EA83FB836C837D830E94C7
:1038D000414E39F4ABA1E7E0EA9FF001E253F04F2B
:1038E0000083ABA1E7E0EA9FF001E253F04FA08133
:1038F000EA85EA17D8F4ABA1E7E0EA9FF001E253CA
:10390000F04FE081E1501E2F1A93EC85EA93EF858A
:10391000EA930E94FD13EE83FF836887798701177E
:1039200029F00E94734C1A930E942D0AABA1E7E084
:10393000EA9FF001E253F04F10811A93EC85EA936D
:10394000EF85EA930E94FD13EE83FF8368877987F2
:10395000EA81FB816C817D81AE81BF8188859985FB
:103960000E94764BEE83FF83688779870E94734CB1
:103970001A930E942D0AABA1E7E0EA9FF001E253FF
:10398000F04FDF01EC91EF5FEC93ABA1E7E0EA9F32
:10399000F001AEECBFE0AE0FBF1FAC910A17A0F470
:1039A000ABA1E7E0EA9FF001E253F04FAA85A083C4
:1039B000EBA1A7E0EA9FF001E453F04FDF01ED91A6
:1039C000FD913196FE93EE93EBA1A7E0EA9FF00103
:1039D000E453F04F00801180AA85EC85EA1BEF5F6D
:1039E000D001F0E0AE17BF0714F0E1E0B2C1E0E0B3
:1039F000B0C1E98DA7E0EA9FF001E453F04FA0E0E9
:103A0000B0E0A083B1838CC22C971A930A93EFA1E4
:103A1000A7E0EA9FF001E453F04FDF010E94604C01
:103A2000AE85EA0F1E2FEFA1A7E0EA9FF001E45355
:103A3000F04FDF010E94604CA889B0E00E94864CE4
:103A4000EA1B0E2F1A93E889EA93EB89EA930E9406
:103A50008313EA87FB876C877D87EE83FF83688704
:103A600079870A93E889EA93EB89EA930E948313A2
:103A7000EA87FB876C877D87EA83FB836C837D8382
:103A8000EE81FF81688579850E94734CEB89EA930A
:103A9000AC89EE89EA1BE695AE89AE1BAA93E0E0FD
:103AA000F0E060E070E00E94734C0E947B0BAE81FE
:103AB000BF81888599850E94714BEE83FF8368875B
:103AC0007987EA81FB816C817D810E94734CAB898F
:103AD000ED89EA1BE695AD890E94894CEA1BEF5FF0
:103AE000EA93EE89EA93E0E0F0E060E070E00E94A3
:103AF000734C0E947B0BAA81BB818C819D810E94AB
:103B0000714BEA83FB836C837D831A93E889EA9384
:103B1000EB89EA930E94FD13EA87FB876C877D8718
:103B2000EE81FF8168857985AA85BB858C859D8519
:103B30000E94764BEA87FB876C877D871A930E94E9
:103B40006309AA85BB858C859D850E94764B0E9462
:103B5000734C1A930E942D0A0A93E889EA93EB8921
:103B6000EA930E94FD13EA87FB876C877D87EA81D1
:103B7000FB816C817D81AA85BB858C859D850E949A
:103B8000764BEA87FB876C877D870A930E946309DF
:103B9000AA85BB858C859D850E94764B0E94734CBF
:103BA0000A930E942D0AEFA1A7E0EA9FF001E453D7
:103BB000F04FDF01ED91FD913196FE93EE93EFA171
:103BC000A7E0EA9FF001E453F04FDF010E94604C50
:103BD000DF01EE85F0E0AE0FBF1FE889F0E0EA17E5
:103BE000FB0714F4E1E001C0E0E019810881A89628
:103BF0000895E98DA7E0EA9FF001E453F04FA0E0BB
:103C0000B0E0A083B1838CC128971A930A930A85E8
:103C10001A85EBA1A7E0EA9FF001E453F04FDF0122
:103C20000E94604CAA85B0E0EA0FFB1FA12FB0E014
:103C3000EA17FB0764F10A93EC85EA93EF85EA93B0
:103C40000E948313EA83FB836C837D831A93EC8544
:103C5000EA93EF85EA930E94FD13EE83FF83688762
:103C60007987EA81FB816C817D81AE81BF81888506
:103C700099850E94764BEE83FF83688779870E943F
:103C8000734C1A930E942D0A0F5F1F5FC2CF0C85E1
:103C90001C85EBA1A7E0EA9FF001E453F04FDF01A0
:103CA0000E94604CAC85B0E00E94864CEA1BFB0B86
:103CB000A12FB0E0AE17BF0764F10A93EC85EA9339
:103CC000EF85EA930E948313EA83FB836C837D83F1
:103CD0001A93EC85EA93EF85EA930E94FD13EE8335
:103CE000FF8368877987EA81FB816C817D81AE8162
:103CF000BF81888599850E94764BEE83FF83688714
:103D000079870E94734C1A930E942D0A015011501A
:103D1000C0CFEBA1A7E0EA9FF001E453F04FDF0131
:103D2000ED91FD913196FE93EE93EBA1A7E0EA9F12
:103D3000F001E453F04F00801180AA85EC85EA1B66
:103D4000E695D001F0E0AE17BF0714F0E1E001C046
:103D5000E0E019810881A4960895E98DA7E0EA9F23
:103D6000F001E453F04FA0E0B0E0A083B183A98D4F
:103D7000E7E0EA9FF001E253F04FA0E0A083A98DB5
:103D8000E7E0EA9FF001E153F04FA091E509B0911F
:103D9000E6098091E7099091E809A083B1838283C5
:103DA0009383BEC028971A93AAA1E7E0EA9FF00187
:103DB000E153F04FDF010E94644CA091E509B091FE
:103DC000E6098091E7099091E8090E946C4BA639B9
:103DD000E0E0BE07E0E08E07E0E09E0718F4E0E0D8
:103DE00018818AC01985EB85E11710F40C94361FF1
:103DF000AAA1E7E0EA9FF001AEECBFE0AE0FBF1F63
:103E0000AC91A13041F41A93EB85EA93EE85EA93E5
:103E10000E94BF1307C01A93EB85EA93EE85EA93DD
:103E20000E948313E983FA836B837C831A93EB8567
:103E3000EA93EE85EA930E94FD13ED83FE836F8380
:103E40007887E981FA816B817C81AD81BE818F8128
:103E500098850E94764BED83FE836F8378870E945E
:103E6000734C1A930E942D0A1F5FBDCFAAA1E7E0F1
:103E7000EA9FF001E253F04FE081E03039F4E7E0EF
:103E8000EA9FF001E253F04FA1E007C0AAA1E7E0EA
:103E9000EA9FF001E253F04FA0E0A083AAA1E7E07F
:103EA000EA9FF001E153F04FA091E509B091E609D6
:103EB0008091E7099091E809A083B183828393837D
:103EC000EAA1A7E0EA9FF001E453F04FDF01ED9192
:103ED000FD913196FE93EE93EAA1A7E0EA9FF001EF
:103EE000E453F04FDF010E94604C719719F4E1E058
:103EF000188102C0E0E01881A3960895E98DA7E03B
:103F0000EA9FF001E453F04FA0E0B0E0A083B1835A
:103F1000A98DE7E0EA9FF001E253F04FA0E0A08313
:103F20006A96089528970E94554E2FA133270EA117
:103F30001127EC85D801F0E0AE17BF0714F40C94FC
:103F4000F81FEDA1E03041F00A93EE85EA93E9898C
:103F5000EA930E94BF1307C00A93EE85EA93E989AA
:103F6000EA930E948313EC83FD836E837F832A93FD
:103F7000EE85EA93E989EA930E94FD13E887F987C1
:103F80006A877B87EC81FD816E817F81A885B985F9
:103F90008A859B850E94764BE887F9876A877B87AD
:103FA0000E94734C2A930E942D0A21503040EC85C8
:103FB000D901F0E0AE17BF07DCF02A93EE85EA9353
:103FC000E989EA930E94FD13E887F9876A877B876E
:103FD0000E94734C2A930E942D0A21503040EC8598
:103FE000D901F0E0AE17BF071CF001501040A1CF7F
:103FF0000E945C4EA896089528970E94554E28A5C9
:1040000033270EA11127EC85D801F0E0AE17BF07CA
:1040100014F40C944A20EDA1E03041F00A93EE85AF
:10402000EA93E989EA930E94BF1307C00A93EE85D9
:10403000EA93E989EA930E948313EC83FD836E83FC
:104040007F832A93EE85EA93E989EA930E94FD1320
:10405000E887F9876A877B87EC81FD816E817F81A4
:10406000A885B9858A859B850E94764BE887F98764
:104070006A877B870E94734C2A930E942D0A2150E5
:104080003040EFA1D901F0E0EA17FB071CF4015022
:104090001040B9CF0E945C4EA99608952C97EDA1CF
:1040A000EA93ECE0EA93FE013296FA93EA930E94D7
:1040B000C211ADA1E7E0EA9FF001E253F04FE081C9
:1040C000E03081F4EDA1A7E0EA9FF001E453F04F66
:1040D000DF010E94604CAC85B0E0EA0FFB1FEA9361
:1040E000EF853EC0EE85EA93EEA1A7E0EA9FF001DE
:1040F000E453F04FDF010E94604CAF85B0E00E94B6
:10410000864CEA1BFB0BEA93E889EA93EA850E9456
:10411000DF4BEA93FE017096A9E10E94784C0E9461
:10412000FC1FEDA1A7E0EA9FF001E453F04FDF018F
:104130000E94604CAE85B0E00E94864CEA1BFB0BEF
:10414000EA93EEA1A7E0EA9FF001E453F04FDF010C
:104150000E94604CAF85B0E00E94864CEA1BFB0BCE
:10416000EA93E9850E94DF4BEA93FE013F96A9E1BD
:104170000E94784C0E94921FEDA1A7E0EA9FF001F7
:10418000E453F04FDF01ED91FD913196FE93EE93F4
:10419000ADA1E7E0EA9FF001E253F04FE081E030AB
:1041A00031F5EDA1A7E0EA9FF001E453F04FDF0104
:1041B0000E94604CDF01EC85F0E0AE0FBF1FEE8582
:1041C000F0E0EA17FB0794F4ADA1E7E0EA9FF00105
:1041D000E253F04FA1E0A083EDA1A7E0EA9FF00138
:1041E000E453F04FA0E0B0E0A083B18358C0ADA18C
:1041F000E7E0EA9FF001AEECBFE0AE0FBF1FAC916D
:10420000A13051F5EDA1A7E0EA9FF001E453F04F92
:10421000DF010E94604CDF01EC85F0E0AE0FBF1FB4
:10422000EE85F0E0EA17FB07B4F4ADA1E7E0EA9F02
:10423000F001E253F04FDF01EC91EF5FEC93EDA161
:10424000A7E0EA9FF001E453F04FDF01ED91FD910B
:104250003197FE93EE9323C0ADA1E7E0EA9FF00112
:10426000E253F04FDF01EC91EF5FEC93ADA1E7E09B
:10427000EA9FF001AEECBFE0AE0FBF1FAC91A530DE
:1042800011F4E1E00DC0EDA1A7E0EA9FF001E453D5
:10429000F04FDF01ED91FD913197FE93EE93E0E059
:1042A000A6960895E881E13011F444D0EAC2E230E4
:1042B00011F475D0E6C2E33011F4FED0E2C2E4306E
:1042C00011F41AD1DEC2E53011F436D1DAC2E6308B
:1042D00011F4ABD1D6C2E73011F4EDD1D2C2E8303F
:1042E00011F433D2CEC2E1E0CCC2E881E13011F466
:1042F0001DD01BC0E23011F44ED017C0E33011F4D2
:104300009BD013C0E43011F4F3D00FC0E53011F4AA
:104310000FD10BC0E63011F484D107C0E73011F49F
:10432000C6D103C0E83009F40CD2ABC2E0E0E093A0
:10433000E90F08951A9310E0E091E90F1E1758F461
:10434000E0E0F0E060E070E00E94734C1A930E949D
:104350002D0A1F5FF1CF1091E90FE091EA091E17B6
:1043600058F4EFEFFFEF6FEF7FEF0E94734C1A935B
:104370000E942D0A1F5FF1CFE091E90FEF5FE093FC
:10438000E90FE091EA09A091E90FEA1710F4E1E0E2
:1043900069C2E0E067C2E0E0E093E90F08951A9394
:1043A0000A93E091EA09E1500E2F1127A091E90F3D
:1043B000E091EA09EA1BD801F0E0EA17FB0764F490
:1043C000E0E0F0E060E070E00E94734C0A930E942D
:1043D0002D0A01501040EACF00E010E0A091E90F53
:1043E000E091EA09EA1BD801F0E0AE17BF0764F4D8
:1043F000EFEFFFEF6FEF7FEF0E94734C0A930E9485
:104400002D0A0F5F1F4FEACFE091E90FEF5FE093B6
:10441000E90FE091EA09A091E90FEA1758F4E0E00A
:10442000F0E060E070E00E94734CEA930E942D0A75
:10443000E1E0F4C0E0E0F2C0E0E0E093E90F0895CD
:10444000249784E0A0E0B0E0ECE7F1E00E94614E48
:104450001A93EE81E03079F0ED81E05EA091E909F8
:10446000EA1BA981BA818B819C81FF276627772768
:104470000E94A04B0AC0ED81A981BA818B819C81E9
:10448000FF27662777270E94944BE983FA836B8383
:104490007C8310E0E091EA091E1758F4E981FA8163
:1044A0006B817C810E94734C1A930E942D0A1F5FBE
:1044B000F1CF188127960895E0E0EA93E091E90FA3
:1044C000EA930E942022E2E3F0E0FA93EA930E944A
:1044D0001A4BE091E90FEF5FE093E90FE091E909F2
:1044E000A091E90FEA1710F4E1E00895E0E00895E3
:1044F000E0E0E093E90F0895E1E0EA93E091E90F4D
:10450000EA930E942022E2E3F0E0FA93EA930E9409
:104510001A4BE091E90FEF5FE093E90FE091E909B1
:10452000A091E90FEA1710F4E1E00895E0E00895A2
:10453000E0E0E093E90F08951A930A93E091EA0905
:10454000E6951E2F00E0E091E90F0E1710F5E0E070
:10455000F0E060E070E00E94734CA12FBB27E02FD9
:10456000F0E00E94864CEA1BFB0BEA930E942D0AA6
:10457000E0E0F0E060E070E00E94734CA12FBB2708
:10458000E02FF0E0EA0FFB1FEA930E942D0A0F5F75
:10459000DACF10E0E091EA09E695A091E90FEA1B75
:1045A0001E17C0F4EFEFFFEF6FEF7FEF0E94734C29
:1045B0001A930E942D0AEFEFFFEF6FEF7FEF0E943B
:1045C000734CE091EA09E11BE150EA930E942D0A45
:1045D0001F5FE0CFE091E90FEF5FE093E90FE0911B
:1045E000EA09E695A091E90FEA17B8F4E0E0F0E0F7
:1045F00060E070E00E94734CE091EA09E150EA93B8
:104600000E942D0AE0E0F0E060E070E00E94734C50
:10461000EA930E942D0AE1E001C0E0E009911991BE
:104620000895E0E0E093E90F08951A9310E0E09117
:10463000E90F1E17C0F4E0E0F0E060E070E00E94D7
:10464000734C1A930E942D0AE0E0F0E060E070E005
:104650000E94734CE091EA09E11BE150EA930E9449
:104660002D0A1F5FE4CF1091E90FA091E90FE091AF
:10467000EA09EA1B1E1758F4EFEFFFEF6FEF7FEF29
:104680000E94734C1A930E942D0A1F5FEECFE09197
:10469000E90FEF5FE093E90FE091EA09E695A09159
:1046A000E90FEA1710F4E1E0DDC0E0E0DBC0E0E094
:1046B000E093E90F089524971A93EFEFFFEF6FEF60
:1046C0007FEF0E94734CE091E909E695AE2FE091EF
:1046D000E90FAE1BAA93E091E909E695A091E90FD5
:1046E000AE0FA150AA930E94D60BE983FA836B8385
:1046F0007C8310E0E091EA091E1758F4E981FA8101
:104700006B817C810E94734C1A930E942D0A1F5F5B
:10471000F1CFE4E6F0E0FA93EA930E941A4BE091BD
:10472000E90FEF5FE093E90FE091E909E695A091C9
:10473000E90FEA1718F4E1E018815FC0E0E01881A2
:104740005CC0E0E0E093E90F0895249784E0A0E0E6
:10475000B0E0E0E8F1E00E94614E1A93A091E90F09
:10476000A13020F1E981FA816B817C810E94734C38
:10477000E0E0EA93E091E90FE150EA930E94D60B62
:10478000E983FA836B837C830E94734CA091E90FC9
:10479000E091E909EA1BEA93E091E909E150EA9323
:1047A0000E94D60BE983FA836B837C8310E0E0914F
:1047B000EA091E1758F4E981FA816B817C810E9415
:1047C000734C1A930E942D0A1F5FF1CFE4E6F0E0CC
:1047D000FA93EA930E941A4BE091E90FEF5FE0939E
:1047E000E90FE091E909E695A091E90FEA1718F4BD
:1047F000E1E0188102C0E0E0188125960895EBEF12
:10480000FDE0FA93EA930E94ED060895EBEFFDE0D8
:10481000A3E00E94784CE0E0EA930E940D0708951F
:10482000E881A3E0EA9FF001E250F24FFA93EA93A5
:104830000E94ED0626C01A93EEEFFDE0FA93EA938C
:104840000E94ED0611E0143068F4E3E0E19FF0010E
:10485000E250F24FDF01EEEFFDE083E00E94B64C44
:104860001F5FF1CF19910895E881A3E0EA9FF0015D
:10487000E250F24FA3E00E94784CE0E0EA930E94FD
:104880000D07219608951A93EA81EA93ECE0FEE081
:10489000FA93EA930E944911EA81E0930B0EEA939E
:1048A000ECE0FEE0FA93EA930E94B3100E94B30E8C
:1048B000E1E0EA930E949E0EE1E0E093B40EE0E0B6
:1048C000E0938F0EE0E0F0E060E070E0E093C50E72
:1048D000F093C60E6093C70E7093C80EA091130E8E
:1048E000E091150EEA1741F4A091140EE091160E16
:1048F000EA1711F4E0E001C0E1E0E093CA0E10E035
:10490000143010F00C946B25E9E1E19FF001CF0128
:10491000E55EF14FBF01A081E091EA09AE1790F585
:10492000F001E35EF14FA081E091EA09AE1750F586
:10493000FB016081FC01E35EF14FE081E61710F1BD
:10494000E9E1E19FF001E45EF14FA081E091E90926
:10495000AE17C0F4E9E1E19FF001E25EF14FA08102
:10496000E091E909AE1770F4E9E1E19FF001E45E3E
:10497000F14F6081E9E1E19FF001E25EF14FE081FA
:10498000E61738F4E9E1E19FF001E15EF14FA0E0C4
:10499000A083E12FF0E0E158F14FA0E0A083A5EB68
:1049A000BEE0E12FF0E00E94AC4BAE0FBF1FE0E095
:1049B000F0E060E070E00E946A4CA3E8BEE0EE2701
:1049C000A10FBE1FEC93A7E8BEE0EE27A10FBE1F0C
:1049D000EC93ABE8BEE0EE27A10FBE1FEC93E9E13C
:1049E000E19FF001E15EF14FE081E13071F4A8EA6E
:1049F000BEE0EE27A10FBE1FEAEFEC93ACEABEE0EB
:104A0000EE27A10FBE1FEC9364C0E230A9F4A8EA20
:104A1000BEE0EE27A10FBE1FEFEFEC93ACEABEE0C5
:104A2000EE27A10FBE1FEC93A0EBBEE0EE27A10F77
:104A3000BE1FEFEFEC934DC0E33079F4E3E0E19F6C
:104A4000F001E057F14FA0E0B0E0A083B183E3E0D4
:104A5000E19FF001EE56F14F3BC0E43079F4E3E022
:104A6000E19FF001E456F14FA0E0B0E0A083B183F4
:104A7000E3E0E19FF001E256F14F2AC0E53049F151
:104A8000E630C1F4A8EABEE0EE27A10FBE1FEFEFAB
:104A9000EC93ACEABEE0EE27A10FBE1FEFEFEC9364
:104AA000A0EBBEE0EE27A10FBE1FE1E0EC93E8947F
:104AB00023F80FC0E73039F4A8EABEE0EE27A10FD3
:104AC000BE1FEC9306C0E12FF0E0E158F14FA1E0EA
:104AD000A0831F5F15CFA091100EA13030F0E091A0
:104AE000100EEA930E94752105C0E1E0E0938F0E5D
:104AF0000E9496380E94FF230E941B24188123964F
:104B000008950E94554EAC81BD8152960C9130E0C3
:104B100002FD3F5F03FD3F5FE8E1E31BAE81AE179F
:104B200010F018E108C0E0E1E31BAE81AE1710F011
:104B300010E101C018E0E12F0E945C4E2796089515
:104B40006A9781E0A2E0B0E0E4E8F1E00E94614E03
:104B50000E94534EEAADF0E0E158F14FE081E030C1
:104B600059F0EDA5E03041F4FE01B196A9E10E94B3
:104B7000784C0E94100F72C5E8A1EA93E8E0EA932E
:104B8000FE017196FA93EA930E94C211EAADEA938C
:104B90000E943424DF01CB01EA89FB89662777274D
:104BA0000E944E4E30F0EAADF0E0E158F14FA1E046
:104BB000A083EDB7FEB7FA93EA930F93EDB7FEB774
:104BC000FA93EA933F93EDB7FEB7FA93EA932F93E4
:104BD0000E940B4A2F913F910F91A989A13039F47E
:104BE0000D3010F00C5003C0003009F40CE0E889DF
:104BF000E030F9F4FE017796FA93EA93E0EBF1E006
:104C0000FA93EA93E02FFF27662777270E94734CD9
:104C1000E32FFF27662777270E94734CE22FFF2799
:104C2000662777270E94734C8CE00E94604960964B
:104C300018C0FE017796FA93EA93E5EBF1E0FA9358
:104C4000EA93E02FFF27662777270E94734CE32F14
:104C5000FF27662777270E94734C88E00E946049EF
:104C60002C96A9A1EBA1EA1BEF5FEA87AAA1ECA110
:104C7000EA1BEF5FE987EA93FE01B296FA93EA93A3
:104C80000E948125EE87AA85A33238F0A23318F45A
:104C9000A889A03011F0E0E001C0E1E0EE83A8EACD
:104CA000BEE0EAADF0E0AE0FBF1FAC912A17B9F03D
:104CB000E1E0EB87A5EBBEE0EAADF0E00E94AC4B93
:104CC000EA0FFB1FA091E509B091E6098091E70981
:104CD0009091E809A083B1838283938302C0E0E0CE
:104CE000EB87AE89A13011F00C94C926EB85E0303A
:104CF00019F0E1E0E8874CC0A5EBBEE0EAADF0E0DA
:104D00000E94AC4BAE0FBF1F0E94644CA091E509FE
:104D1000B091E6098091E7099091E8090E94804CE2
:104D20000E94674B7F936F93FF93EF93A5E0B0E0F2
:104D30000E94914CF0E0A0EABFE00E94294CAF91A4
:104D4000BF918F919F910E94C14B0E944E4E10F0D7
:104D5000E0E001C0E1E0E887E03049F0ACEABEE025
:104D6000EAADF0E0AE0FBF1FAC91A03009F001C07A
:104D70000DC0E885E03049F4ACEABEE0EAADF0E011
:104D8000AE0FBF1FAC91A13009F002C0E1E0EB878C
:104D900002C0E1E0E887E1E0EB87E03011F40C9439
:104DA0001F2840E050E010E0FE017796FA93EA9366
:104DB0000E948A47A12FB0E0AE17BF0768F5E12F28
:104DC000F0E0DE015796AE0FBF1FAC91AA3379F029
:104DD000DE015796AE0FBF1FAC91A03338F0DE0155
:104DE0005796AE0FBF1FAC91AA3308F013C0EF85E2
:104DF000EA93EF85EA93E885EA93E12FF0E0DE019C
:104E00005A96AE0FBF1FEC91EA930E948410F0E017
:104E10004E0F5F1F1F5FC8CFE9A1ED87EAA1EC87A6
:104E2000EC89E03031F0EA85DA01F0E0AE17BF0737
:104E300008F00BC0FA01AA85B0E0AE1BBF0BFD0164
:104E4000F695E795A9A1EA0FED87ED89E03021F00D
:104E5000EE85A985EA1708F007C0AE85E985EA1B4B
:104E6000E695AAA1EA0FEC87E9A1AD85EA1778F4E7
:104E7000EA93ED85EA93EEA1EA93ACA1E889EA1BF7
:104E8000EA93EA89EA93E8A5EA930E94DC0D10E030
:104E9000FE017796FA93EA930E948A47A12FB0E029
:104EA000AE17BF0710F00C940B28E12FF0E0DE01E5
:104EB0005796AE0FBF1FAC91AA3311F00C94C727C1
:104EC000EF85EA93EF85EA93E885EA93EAE3EA93CC
:104ED0000E948410EF83E885E03041F0ACEABEE048
:104EE000EAADF0E0AE0FBF1FE1E007C0ACEABEE004
:104EF000EAADF0E0AE0FBF1FE0E0EC93FE01779665
:104F0000FA93EA930E948A473397A12FB0E0EA17F9
:104F1000FB0739F5E885E030A9F0ED85EA93ED85EA
:104F2000EA93EEA1EA93EA89EA93EA89EA93EB85A8
:104F3000EA93EAE3EA93EAA5F0E0FA93EA930E949F
:104F40003A100EC0ED85EA93ED85EA93EEA1EA935F
:104F5000EA85EA93EA89EA93E8A5EA930E94DC0DE0
:104F600014C0ED85EA93ED85EA93EEA1EA93EA8910
:104F7000EA93EA89EA93EB85EA93EAE3EA93EAA5FE
:104F8000F0E0FA93EA930E943A10EF813BC0E12FE0
:104F9000F0E0DE015796AE0FBF1FAC91A03338F0A2
:104FA000DE015796AE0FBF1FAC91AA3308F033C095
:104FB000ED85EA93ED85EA93EEA1EA93EA89EA9317
:104FC000EA89EA93EB85EA93E12FF0E0DE015D9652
:104FD000AE0FBF1FEC91EA93EAA5F0E0FA93EA93D3
:104FE0000E943A10EF85EA93EF85EA93E885EA9309
:104FF000E12FF0E0DE015A96AE0FBF1FEC91EA936D
:105000000E948410AD85EA0FED87EBA1AD85EA170C
:1050100010F01F5F3DCFED85ABA1AE1780F0EA9396
:10502000ED85EA93EEA1EA93A889EEA1EA1BEF5F72
:10503000EA93EA89EA93E8A5EA930E94DC0DA8EADC
:10504000BEE0EAADF0E0EA0FFB1F208307C36A97DA
:105050000E94534EEAADF0E0E158F14FE081E030BC
:1050600059F0EDA5E03041F4FE01B196A9E10E94AE
:10507000784C0E94100FF2C2E8A1EA93E7E0EA93AD
:10508000FE017B96FA93EA930E94C211EAADEA937D
:105090000E943424DF01CB01EC8DFD8D662777273C
:1050A0000E944E4E30F0EAADF0E0E158F14FA1E041
:1050B000A083EB8DE030D1F4EDB7FEB73197FA93D2
:1050C000EA933F932F93EDB7FEB7FA93EA930F93CA
:1050D000EDB7FEB7FA93EA935F93E1E0EA930E949B
:1050E00088075F910F912F913F9119C0EDB7FEB7DF
:1050F0003197FA93EA933F932F93EDB7FEB7FA9364
:10510000EA930F93EDB7FEB7FA93EA935F93E0E06B
:10511000EA930E9488075F910F912F913F91A8EA2F
:10512000BEE0EAADF0E0AE0FBF1FAC915A1749F4F4
:10513000A0EBBEE0EAADF0E0AE0FBF1FAC910A17E6
:1051400011F0E1E001C0E0E0E987EA8DE030F1F440
:10515000FE013E96FA93EA93EFEBF1E0FA93EA93BD
:10516000F901662777270E94734CE02FFF276627F7
:1051700077270E94734CE52FFF27662777270E9429
:10518000734C8CE00E946049609623C1E13011F5B8
:10519000FE013E96FA93EA93EEECF1E0FA93EA937D
:1051A000D901E4E6F0E00E942E4C662777270E94A2
:1051B000734CE02FFF27662777270E94734CE52F5B
:1051C000FF27662777270E94734C8CE00E94604976
:1051D0006096FFC0E230F1F4FE013E96FA93EA9346
:1051E000EDEDF1E0FA93EA93F901662777270E9443
:1051F000734CE02FFF27662777270E94734CE52F1B
:10520000FF27662777270E94734C8CE00E94604935
:105210006096DFC0E33011F5FE013E96FA93EA9303
:10522000ECEEF1E0FA93EA93D901E4E6F0E00E94B3
:105230002E4C662777270E94734CE02FFF276627A6
:1052400077270E94734CE52FFF27662777270E9458
:10525000734C8CE00E9460496096BBC0E43021F042
:10526000E53011F00C94E929E1E0E987ACEABEE011
:10527000EAADF0E0AE0FBF1FEC91E03011F00C94FE
:105280009E29EAADEA930E9434247F936F93FF93A3
:10529000EF93A5EBBEE0EAADF0E00E94AC4BAE0FA1
:1052A000BF1F0E94644CAF91BF918F919F910E944C
:1052B0006C4BA330E0E0BE07E0E08E07E0E09E0725
:1052C000D0F0A5EBBEE0EAADF0E00E94AC4BEA0FF7
:1052D000FB1FFF93EF93EAADEA930E943424AF9152
:1052E000BF910E946A4CACEABEE0EAADF0E0AE0FBE
:1052F000BF1FE1E0EC93AA8DA43039F4FE013E9685
:10530000FA93EA93E4ECF1E006C0FE013E96FA93CC
:10531000EA93E2EEF1E0FA93EA93E02FFF276627A3
:1053200077270E94734CE52FFF27662777270E9477
:10533000734C88E00E9460492C964BC0EAADEA931A
:105340000E9434247F936F93FF93EF93A5EBBEE00D
:10535000EAADF0E00E94AC4BAE0FBF1F0E94644C60
:10536000AF91BF918F919F910E946C4BA330E0E071
:10537000BE07E0E08E07E0E09E07D0F0A5EBBEE0C0
:10538000EAADF0E00E94AC4BEA0FFB1FFF93EF93F6
:10539000EAADEA930E943424AF91BF910E946A4C17
:1053A000ACEABEE0EAADF0E0AE0FBF1FE0E0EC9388
:1053B000FE013E96FA93EA93EBEFF1E0FA93EA935B
:1053C000F901662777270E94734C84E00E946049A8
:1053D0002896A9A1EBA1EA1BEF5FE887AAA1ECA19F
:1053E000EA1BEF5FEF83EA93FE01B296FA93EA932A
:1053F0000E9481254E2FA885A33328F4AA8DA430BE
:1054000011F0A53019F5A885A03430F4AA8DA0308C
:1054100011F0A23009F41AC0A885A33330F4AA8D84
:10542000A13011F0A23009F411C0A885E0E20E9479
:10543000D04B0E2EAA8DA43021F0A53011F0E0E063
:1054400001C0E1E0E02111F4E0E001C0E1E0EE8321
:10545000E985E03011F40C94202BE0E0EC87ED8737
:1054600010E0FE013E96FA93EA930E948A47A12F2C
:10547000B0E0AE17BF07B8F5E12FF0E0DE011E96F1
:10548000AE0FBF1FAC91AF32B1F0DE011E96AE0F72
:10549000BF1FAC91AD3279F0DE011E96AE0FBF1F7B
:1054A000AC91A03338F0DE011E96AE0FBF1FAC9159
:1054B000AA3308F016C0E98DEA934A93E885EA9387
:1054C000E12FF0E0DE015196AE0FBF1FEC91EA93A1
:1054D0000E948410AC85BD85F0E0EA0FFB1FEC87CD
:1054E000FD871F5FBECFE9A1EB87EAA1EA87EE8DBA
:1054F000E03039F0E885AC85BD85F0E0AE17BF0738
:1055000008F00CC0EC85FD85A885B0E0AE1BBF0B94
:10551000FD01F695E795A9A1EA0FEB87EF8DE03045
:1055200019F0AF814A1708F006C0EF81E41BE69539
:10553000AAA1EA0FEA87E9A1AB85EA1770F4EA931A
:10554000EB85EA93EEA1EA93ACA1EE85EA1BEA9320
:105550004A93E8A5EA930E94DC0D10E0FE013E9616
:10556000FA93EA930E948A47A12FB0E0AE17BF07D3
:1055700010F00C940D2BE12FF0E0DE011E96AE0F23
:10558000BF1FAC91AF32B1F0DE011E96AE0FBF1F50
:10559000AC91AD3279F0DE011E96AE0FBF1FAC911B
:1055A000A03338F0DE011E96AE0FBF1FAC91AA33B8
:1055B00008F001C001C031C0EB85EA93EB85EA93A6
:1055C000EEA1EA93EC8DEA934A93EB85EA93E12FFF
:1055D000F0E0DE015496AE0FBF1FEC91EA93EAA50E
:1055E000F0E0FA93EA930E943A10E98DEA934A9325
:1055F000E885EA93E12FF0E0DE015196AE0FBF1F80
:10560000EC91EA930E948410AB85EA0FEB87EBA143
:10561000AB85EA1710F01F5FA1CFEB85ABA1AE17EA
:1056200078F0EA93EB85EA93EEA1EA93AE85EEA1DA
:10563000EA1BEF5FEA934A93E8A5EA930E94DC0D28
:10564000A8EABEE0EAADF0E0EA0FFB1F5083A0EB52
:10565000BEE0EAADF0E0EA0FFB1F00830E945A4E65
:10566000EB9608952497FE01FF93EF93E985EA9363
:10567000EE81FF81688579850E94734CEF85F889FA
:105680000995AF91BF91FF27662777270E946A4C43
:10569000AC81A23050F1FE01FF93EF93A881B98154
:1056A0008A819B81E8E00E94944B7F936F93FF93E4
:1056B000EF93E985EA93EE81FF8168857985EF5F55
:1056C000FF4F6F4F7F4F0E94734CEF85F88909950C
:1056D000AF91BF918F919F91FF27662777270E94F7
:1056E000764BAF91BF910E946A4CAC81A33050F1D0
:1056F000FE01FF93EF93A881B9818A819B81E8E045
:105700000E94944B7F936F93FF93EF93E985EA9305
:10571000EE81FF8168857985EE5FFF4F6F4F7F4F88
:105720000E94734CEF85F8890995AF91BF918F91D5
:105730009F91FF27662777270E94764BAF91BF91F5
:105740000E946A4CAC81A43050F1FE01FF93EF93AC
:10575000A881B9818A819B81E8E00E94944B7F9364
:105760006F93FF93EF93E985EA93EE81FF8168855C
:105770007985ED5FFF4F6F4F7F4F0E94734CEF8530
:10578000F8890995AF91BF918F919F91FF27662767
:1057900077270E94764BAF91BF910E946A4CE881B7
:1057A000F9816A817B812C960895A89787E0A0E013
:1057B000B0E0E6E8F1E00E94614E0E94534EFE0127
:1057C000E85BFF4FE081F0E0E158F14FE081E0302D
:1057D00059F0EBADE03041F4FE01BF96A9E10E9423
:1057E000784C0E94100F1FC5EEA5EA93ECE0EA93F7
:1057F000FE01B496FA93EA930E94C211EDA5EF83DD
:10580000DE0117960C90A5EBB0E00E94914CE00DE4
:10581000ED87EF81AD85EA1710F4ED85EF83EF8119
:10582000E03011F4E2E0EF83A3E8BEE0FE01E85BC4
:10583000FF4FE081F0E0AE0FBF1FEC91E03011F0C0
:105840000C94EC2CECADE03061F4A3E8BEE0FE017A
:10585000E85BFF4FE081F0E0AE0FBF1FE1E0EC93AB
:10586000BBC0A7E8BEE0FE01E85BFF4FE081F0E0CF
:10587000AE0FBF1FEC91E03011F40C94D12CA5EBCE
:10588000BEE0FE01E85BFF4FE081F0E00E94AC4B20
:10589000AE0FBF1F0E94644CA091E509B091E609CC
:1058A0008091E7099091E8090E94804C0E94674B23
:1058B0007F936F93FF93EF93EFADFF2766277727D3
:1058C0000E94264DA3E3B3E383E39FE30E94AE4D22
:1058D0000E94EF4CAF91BF918F919F910E944E4ECD
:1058E000C0F4A5EBBEE0FE01E85BFF4FE081F0E015
:1058F0000E94AC4BAE0FBF1F0E94644CA091E50903
:10590000B091E6098091E7099091E8090E944E4E16
:1059100008F401C088C4A3E8BEE0FE01E85BFF4FC5
:10592000E081F0E0EA0FFB1FFF93EF93FE01E85BDD
:10593000FF4FE081EA93FE01F096FA93EA93EFAD10
:10594000EA930E940812AF91BF91EC93A3E8BEE0E6
:10595000FE01E85BFF4FE081F0E0AE0FBF1FEC916E
:10596000E03039F0FE01E85BFF4FE081EA930E94EE
:105970001024A5EBBEE0FE01E85BFF4FE081F0E004
:105980000E94AC4BEA0FFB1FA091E509B091E6091C
:105990008091E7099091E809A083B1838283938382
:1059A00042C4A7E8BEE0FE01E85BFF4FE081F0E003
:1059B000AE0FBF1FE1E0EC93FE01E85BFF4FE0811B
:1059C000EA93FE01F096FA93EA93EFADEA930E9410
:1059D000D612E1E0EE83ECA3A5EBBEE0FE01E85BAE
:1059E000FF4FE081F0E00E94AC4BAE0FBF1F0E9462
:1059F000644CA091E509B091E6098091E709909186
:105A0000E8090E94804C0E94674B7F936F93FF933D
:105A1000EF93EDA1FF27662777270E94264DA3E38A
:105A2000B3E383E39FE30E94AE4D0E94EF4CAF913E
:105A3000BF918F919F910E944E4E80F4E091B40EE1
:105A4000E03061F4A3E8BEE0FE01E85BFF4FE081D7
:105A5000F0E0AE0FBF1FEC91E03009F401C0E3C3EA
:105A6000DE01A85BBF4FAC91E3E0EA9FF001E05795
:105A7000F14F40815181042E052A19F441E050E094
:105A800004C0EF81F0E04E0F5F1FDE01A85BBF4F47
:105A9000AC91E3E0EA9FF001E057F14F408351837E
:105AA000AFA5E9A9EA1BEF5FEF87A8A9EAA9EA1B5E
:105AB000EF5FEE87EBA1E03011F00C94C12DEAA16D
:105AC000E030E9F0EF85AEA1BFA1F0E0AE17BF076F
:105AD00098F4EEA1FFA1AF85B0E0AE1BBF0BFD01B6
